{
  "_format": "hh-sol-artifact-1",
  "contractName": "zkStake",
  "sourceName": "contracts/extensions/zkStake.sol",
  "abi": [
    {
      "anonymous": false,
      "inputs": [
        {
          "indexed": false,
          "internalType": "uint256",
          "name": "entityId",
          "type": "uint256"
        },
        {
          "indexed": true,
          "internalType": "address",
          "name": "editor",
          "type": "address"
        }
      ],
      "name": "EntityCreated",
      "type": "event"
    },
    {
      "anonymous": false,
      "inputs": [
        {
          "indexed": true,
          "internalType": "uint256",
          "name": "groupId",
          "type": "uint256"
        },
        {
          "indexed": false,
          "internalType": "uint8",
          "name": "depth",
          "type": "uint8"
        }
      ],
      "name": "GroupAdded",
      "type": "event"
    },
    {
      "anonymous": false,
      "inputs": [
        {
          "indexed": true,
          "internalType": "uint256",
          "name": "groupId",
          "type": "uint256"
        },
        {
          "indexed": false,
          "internalType": "uint256",
          "name": "identityCommitment",
          "type": "uint256"
        },
        {
          "indexed": false,
          "internalType": "uint256",
          "name": "root",
          "type": "uint256"
        }
      ],
      "name": "MemberAdded",
      "type": "event"
    },
    {
      "anonymous": false,
      "inputs": [
        {
          "indexed": true,
          "internalType": "uint256",
          "name": "groupId",
          "type": "uint256"
        },
        {
          "indexed": false,
          "internalType": "uint256",
          "name": "identityCommitment",
          "type": "uint256"
        },
        {
          "indexed": false,
          "internalType": "uint256",
          "name": "root",
          "type": "uint256"
        }
      ],
      "name": "MemberRemoved",
      "type": "event"
    },
    {
      "anonymous": false,
      "inputs": [
        {
          "indexed": false,
          "internalType": "uint256",
          "name": "nullifierHash",
          "type": "uint256"
        }
      ],
      "name": "NullifierHashAdded",
      "type": "event"
    },
    {
      "inputs": [
        {
          "internalType": "uint256",
          "name": "entityId",
          "type": "uint256"
        },
        {
          "internalType": "uint256",
          "name": "identityCommitment",
          "type": "uint256"
        },
        {
          "internalType": "uint256",
          "name": "id",
          "type": "uint256"
        }
      ],
      "name": "addDAOIdentity",
      "outputs": [],
      "stateMutability": "nonpayable",
      "type": "function"
    },
    {
      "inputs": [
        {
          "internalType": "uint256",
          "name": "",
          "type": "uint256"
        }
      ],
      "name": "commitmentNFTs",
      "outputs": [
        {
          "internalType": "uint256",
          "name": "",
          "type": "uint256"
        }
      ],
      "stateMutability": "view",
      "type": "function"
    },
    {
      "inputs": [
        {
          "internalType": "uint256",
          "name": "entityId",
          "type": "uint256"
        },
        {
          "internalType": "address",
          "name": "editor",
          "type": "address"
        },
        {
          "internalType": "address",
          "name": "token",
          "type": "address"
        }
      ],
      "name": "createEntity",
      "outputs": [],
      "stateMutability": "nonpayable",
      "type": "function"
    },
    {
      "inputs": [
        {
          "internalType": "uint256",
          "name": "groupId",
          "type": "uint256"
        }
      ],
      "name": "getDepth",
      "outputs": [
        {
          "internalType": "uint256",
          "name": "",
          "type": "uint256"
        }
      ],
      "stateMutability": "view",
      "type": "function"
    },
    {
      "inputs": [
        {
          "internalType": "uint256",
          "name": "groupId",
          "type": "uint256"
        }
      ],
      "name": "getRoot",
      "outputs": [
        {
          "internalType": "uint256",
          "name": "",
          "type": "uint256"
        }
      ],
      "stateMutability": "view",
      "type": "function"
    },
    {
      "inputs": [
        {
          "internalType": "uint256",
          "name": "groupId",
          "type": "uint256"
        }
      ],
      "name": "getSize",
      "outputs": [
        {
          "internalType": "uint256",
          "name": "",
          "type": "uint256"
        }
      ],
      "stateMutability": "view",
      "type": "function"
    },
    {
      "inputs": [
        {
          "internalType": "uint256",
          "name": "",
          "type": "uint256"
        }
      ],
      "name": "membershipTokens",
      "outputs": [
        {
          "internalType": "address",
          "name": "",
          "type": "address"
        }
      ],
      "stateMutability": "view",
      "type": "function"
    },
    {
      "inputs": [
        {
          "internalType": "address",
          "name": "",
          "type": "address"
        },
        {
          "internalType": "address",
          "name": "",
          "type": "address"
        },
        {
          "internalType": "uint256",
          "name": "",
          "type": "uint256"
        },
        {
          "internalType": "bytes",
          "name": "",
          "type": "bytes"
        }
      ],
      "name": "onERC721Received",
      "outputs": [
        {
          "internalType": "bytes4",
          "name": "",
          "type": "bytes4"
        }
      ],
      "stateMutability": "nonpayable",
      "type": "function"
    },
    {
      "inputs": [
        {
          "internalType": "uint256",
          "name": "entityId",
          "type": "uint256"
        },
        {
          "internalType": "uint256",
          "name": "identityCommitment",
          "type": "uint256"
        },
        {
          "internalType": "uint256[]",
          "name": "proofSiblings",
          "type": "uint256[]"
        },
        {
          "internalType": "uint8[]",
          "name": "proofPathIndices",
          "type": "uint8[]"
        },
        {
          "internalType": "address",
          "name": "receiver",
          "type": "address"
        }
      ],
      "name": "removeDAOIdentity",
      "outputs": [],
      "stateMutability": "nonpayable",
      "type": "function"
    },
    {
      "inputs": [
        {
          "internalType": "string",
          "name": "challenge",
          "type": "string"
        },
        {
          "internalType": "uint256",
          "name": "nullifierHash",
          "type": "uint256"
        },
        {
          "internalType": "uint256",
          "name": "entityId",
          "type": "uint256"
        },
        {
          "internalType": "uint256[8]",
          "name": "proof",
          "type": "uint256[8]"
        }
      ],
      "name": "verifyIdentityChallenge",
      "outputs": [
        {
          "internalType": "bool",
          "name": "",
          "type": "bool"
        }
      ],
      "stateMutability": "view",
      "type": "function"
    },
    {
      "inputs": [
        {
          "internalType": "uint256[2]",
          "name": "a",
          "type": "uint256[2]"
        },
        {
          "internalType": "uint256[2][2]",
          "name": "b",
          "type": "uint256[2][2]"
        },
        {
          "internalType": "uint256[2]",
          "name": "c",
          "type": "uint256[2]"
        },
        {
          "internalType": "uint256[4]",
          "name": "input",
          "type": "uint256[4]"
        }
      ],
      "name": "verifyProof",
      "outputs": [
        {
          "internalType": "bool",
          "name": "r",
          "type": "bool"
        }
      ],
      "stateMutability": "view",
      "type": "function"
    }
  ],
  "bytecode": "0x608060405234801561001057600080fd5b50613cad806100206000396000f3fe608060405234801561001057600080fd5b50600436106100a95760003560e01c80635fe8c13b116100715780635fe8c13b1461017657806375e618c9146101a65780638cdde82e146101d65780639b24b3b014610206578063ad9a2f7214610236578063d868b1fd14610266576100a9565b8063023c23db146100ae578063117ada32146100de578063150b7a02146100fa578063171015711461012a5780634d56f27d14610146575b600080fd5b6100c860048036038101906100c39190612e71565b610282565b6040516100d59190613587565b60405180910390f35b6100f860048036038101906100f39190612ee9565b6102a2565b005b610114600480360381019061010f9190612d10565b6103f8565b6040516101219190613375565b60405180910390f35b610144600480360381019061013f9190612e9a565b61040c565b005b610160600480360381019061015b9190612e71565b610500565b60405161016d9190613308565b60405180910390f35b610190600480360381019061018b9190612d8b565b610533565b60405161019d919061335a565b60405180910390f35b6101c060048036038101906101bb9190612e71565b6109e7565b6040516101cd9190613587565b60405180910390f35b6101f060048036038101906101eb9190612e71565b610a17565b6040516101fd9190613587565b60405180910390f35b610220600480360381019061021b9190612e71565b610a2f565b60405161022d9190613587565b60405180910390f35b610250600480360381019061024b9190612df0565b610a4f565b60405161025d919061335a565b60405180910390f35b610280600480360381019061027b9190612f99565b610a85565b005b600060016000838152602001908152602001600020600201549050919050565b86600360006102af610b4e565b73ffffffffffffffffffffffffffffffffffffffff1673ffffffffffffffffffffffffffffffffffffffff16815260200190815260200160002054811461032b576040517f08c379a0000000000000000000000000000000000000000000000000000000008152600401610322906133d0565b60405180910390fd5b610339888888888888610b56565b6004600089815260200190815260200160002060009054906101000a900473ffffffffffffffffffffffffffffffffffffffff1673ffffffffffffffffffffffffffffffffffffffff166342842e0e3084600560008d8152602001908152602001600020546040518463ffffffff1660e01b81526004016103bc93929190613323565b600060405180830381600087803b1580156103d657600080fd5b505af11580156103ea573d6000803e3d6000fd5b505050505050505050505050565b600063150b7a0260e01b9050949350505050565b610417836014610ca5565b82600360008473ffffffffffffffffffffffffffffffffffffffff1673ffffffffffffffffffffffffffffffffffffffff16815260200190815260200160002081905550806004600085815260200190815260200160002060006101000a81548173ffffffffffffffffffffffffffffffffffffffff021916908373ffffffffffffffffffffffffffffffffffffffff1602179055508173ffffffffffffffffffffffffffffffffffffffff167f5340f46ccfdbf46cea681e7481c711c8838cbcda1356cab6f31a2d0b2cd3525a846040516104f39190613587565b60405180910390a2505050565b60046020528060005260406000206000915054906101000a900473ffffffffffffffffffffffffffffffffffffffff1681565b600061053d61288d565b604051806040016040528087600060028110610582577f4e487b7100000000000000000000000000000000000000000000000000000000600052603260045260246000fd5b60200201518152602001876001600281106105c6577f4e487b7100000000000000000000000000000000000000000000000000000000600052603260045260246000fd5b602002015181525081600001819052506040518060400160405280604051806040016040528088600060028110610626577f4e487b7100000000000000000000000000000000000000000000000000000000600052603260045260246000fd5b6020020151600060028110610664577f4e487b7100000000000000000000000000000000000000000000000000000000600052603260045260246000fd5b60200201518152602001886000600281106106a8577f4e487b7100000000000000000000000000000000000000000000000000000000600052603260045260246000fd5b60200201516001600281106106e6577f4e487b7100000000000000000000000000000000000000000000000000000000600052603260045260246000fd5b60200201518152508152602001604051806040016040528088600160028110610738577f4e487b7100000000000000000000000000000000000000000000000000000000600052603260045260246000fd5b6020020151600060028110610776577f4e487b7100000000000000000000000000000000000000000000000000000000600052603260045260246000fd5b60200201518152602001886001600281106107ba577f4e487b7100000000000000000000000000000000000000000000000000000000600052603260045260246000fd5b60200201516001600281106107f8577f4e487b7100000000000000000000000000000000000000000000000000000000600052603260045260246000fd5b60200201518152508152508160200181905250604051806040016040528085600060028110610850577f4e487b7100000000000000000000000000000000000000000000000000000000600052603260045260246000fd5b6020020151815260200185600160028110610894577f4e487b7100000000000000000000000000000000000000000000000000000000600052603260045260246000fd5b602002015181525081604001819052506000600467ffffffffffffffff8111156108e7577f4e487b7100000000000000000000000000000000000000000000000000000000600052604160045260246000fd5b6040519080825280602002602001820160405280156109155781602001602082028036833780820191505090505b50905060005b60048110156109ba5784816004811061095d577f4e487b7100000000000000000000000000000000000000000000000000000000600052603260045260246000fd5b602002015182828151811061099b577f4e487b7100000000000000000000000000000000000000000000000000000000600052603260045260246000fd5b60200260200101818152505080806109b2906138bf565b91505061091b565b5060006109c78284610dfd565b14156109d8576001925050506109df565b6000925050505b949350505050565b60006001600083815260200190815260200160002060000160009054906101000a900460ff1660ff169050919050565b60056020528060005260406000206000915090505481565b600060016000838152602001908152602001600020600101549050919050565b600080610a7687876001600088815260200190815260200160002060010154888888611088565b90508091505095945050505050565b6004600084815260200190815260200160002060009054906101000a900473ffffffffffffffffffffffffffffffffffffffff1673ffffffffffffffffffffffffffffffffffffffff166342842e0e3330846040518463ffffffff1660e01b8152600401610af593929190613323565b600060405180830381600087803b158015610b0f57600080fd5b505af1158015610b23573d6000803e3d6000fd5b50505050806005600085815260200190815260200160002081905550610b49838361138b565b505050565b600033905090565b6000610b61876109e7565b1415610ba2576040517f08c379a0000000000000000000000000000000000000000000000000000000008152600401610b9990613430565b60405180910390fd5b6001600087815260200190815260200160002073__$4c0484323457fe1a856f46a4759b553fe4$__630629596f909187878787876040518763ffffffff1660e01b8152600401610bf7969594939291906134f9565b60006040518083038186803b158015610c0f57600080fd5b505af4158015610c23573d6000803e3d6000fd5b505050506000610c3287610a2f565b9050866002600083815260200190815260200160002081905550867fe270325ded177064d7bda473e6519ef40a291058c41286f71a6e4872f1e9ab5c87600160008b815260200190815260200160002060010154604051610c949291906135a2565b60405180910390a250505050505050565b6000610cb0836109e7565b14610cf0576040517f08c379a0000000000000000000000000000000000000000000000000000000008152600401610ce7906133b0565b60405180910390fd5b6001600083815260200190815260200160002073__$4c0484323457fe1a856f46a4759b553fe4$__63b4bdd1179091837f30644e72e131a029b85045b68181585d2833e84879b9709143e1f593f0000001604051602001610d50906132f3565b6040516020818303038152906040528051906020012060001c610d739190613908565b6040518463ffffffff1660e01b8152600401610d9193929190613550565b60006040518083038186803b158015610da957600080fd5b505af4158015610dbd573d6000803e3d6000fd5b50505050817f6e41c6ac154b547a2112d36281cc5de1cdfa7d7f260d4edf74f3ef59f9df0c5982604051610df191906135cb565b60405180910390a25050565b6000807f30644e72e131a029b85045b68181585d2833e84879b9709143e1f593f000000190506000610e2d6114b8565b905080608001515160018651610e43919061371a565b14610e83576040517f08c379a0000000000000000000000000000000000000000000000000000000008152600401610e7a906133f0565b60405180910390fd5b60006040518060400160405280600081526020016000815250905060005b8651811015610fe45783878281518110610ee4577f4e487b7100000000000000000000000000000000000000000000000000000000600052603260045260246000fd5b602002602001015110610f2c576040517f08c379a0000000000000000000000000000000000000000000000000000000008152600401610f2390613450565b60405180910390fd5b610fcf82610fca8560800151600185610f45919061371a565b81518110610f7c577f4e487b7100000000000000000000000000000000000000000000000000000000600052603260045260246000fd5b60200260200101518a8581518110610fbd577f4e487b7100000000000000000000000000000000000000000000000000000000600052603260045260246000fd5b6020026020010151611b08565b611c57565b91508080610fdc906138bf565b915050610ea1565b50611034818360800151600081518110611027577f4e487b7100000000000000000000000000000000000000000000000000000000600052603260045260246000fd5b6020026020010151611c57565b905061106a6110468660000151611df2565b8660200151846000015185602001518587604001518b604001518960600151611e97565b61107a5760019350505050611082565b600093505050505b92915050565b600080600085815260200190815260200160002060009054906101000a900460ff16156110ea576040517f08c379a00000000000000000000000000000000000000000000000000000000081526004016110e190613390565b60405180910390fd5b60006110f688886121e0565b90506000604051806080016040528088815260200187815260200183815260200186815250905061137d604051806040016040528086600060088110611165577f4e487b7100000000000000000000000000000000000000000000000000000000600052603260045260246000fd5b60200201358152602001866001600881106111a9577f4e487b7100000000000000000000000000000000000000000000000000000000600052603260045260246000fd5b60200201358152506040518060400160405280604051806040016040528089600260088110611201577f4e487b7100000000000000000000000000000000000000000000000000000000600052603260045260246000fd5b6020020135815260200189600360088110611245577f4e487b7100000000000000000000000000000000000000000000000000000000600052603260045260246000fd5b60200201358152508152602001604051806040016040528089600460088110611297577f4e487b7100000000000000000000000000000000000000000000000000000000600052603260045260246000fd5b60200201358152602001896005600881106112db577f4e487b7100000000000000000000000000000000000000000000000000000000600052603260045260246000fd5b602002013581525081525060405180604001604052808860066008811061132b577f4e487b7100000000000000000000000000000000000000000000000000000000600052603260045260246000fd5b602002013581526020018860076008811061136f577f4e487b7100000000000000000000000000000000000000000000000000000000600052603260045260246000fd5b602002013581525084610533565b925050509695505050505050565b6000611396836109e7565b14156113d7576040517f08c379a00000000000000000000000000000000000000000000000000000000081526004016113ce90613430565b60405180910390fd5b6001600083815260200190815260200160002073__$4c0484323457fe1a856f46a4759b553fe4$__63168703fa9091836040518363ffffffff1660e01b81526004016114249291906134d0565b60006040518083038186803b15801561143c57600080fd5b505af4158015611450573d6000803e3d6000fd5b50505050600061145f83610a2f565b9050826002600083815260200190815260200160002081905550827f03fd27265b7dd1f55558bedc22a58fa3b10afb1be776e614bd5a7ba7b949940683836040516114ab9291906135a2565b60405180910390a2505050565b6114c06128c0565b60405180604001604052807f2d4d9aa7e302d9df41749d5507949d05dbea33fbb16c643b22f599a2be6df2e281526020017f14bedd503c37ceb061d8ec60209fe345ce89830a19230301f076caff004d19268152508160000181905250604051806040016040528060405180604001604052807f0967032fcbf776d1afc985f88877f182d38480a653f2decaa9794cbc3bf3060c81526020017f0e187847ad4c798374d0d6732bf501847dd68bc0e071241e0213bc7fc13db7ab815250815260200160405180604001604052807f304cfbd1e08a704a99f5e847d93f8c3caafddec46b7a0d379da69a4d112346a781526020017f1739c1b1a457a8c7313123d24d2f9192f896b7c63eea05a9d57f06547ad0cec88152508152508160200181905250604051806040016040528060405180604001604052807f198e9393920d483a7260bfb731fb5d25f1aa493335a9e71297e485b7aef312c281526020017f1800deef121f1e76426a00665e5c4479674322d4f75edadd46debd5cd992f6ed815250815260200160405180604001604052807f090689d0585ff075ec9e99ad690c3395bc4b313370b38ef355acdadcd122975b81526020017f12c85ea5db8c6deb4aab71808dcb408fe3d1e7690c43d37b4ce6cc0166fa7daa8152508152508160400181905250604051806040016040528060405180604001604052807f1bdb443ce61ebcf93daed4215a57e1cec90ca64973023e31197a112e8cee72f681526020017f117e26c4235f42625b3404f2973059814ff260dba7176d7aae910f493a8e1fb5815250815260200160405180604001604052807f196e247a12f580e36894f256f0c122393489b4c213b3e913250feee806ca45ff81526020017f2fedff4e4bbcbf9f1c56e28a060d50eef5f54e2aab897f6b465acd2ed005ae918152508152508160600181905250600567ffffffffffffffff8111156117ad577f4e487b7100000000000000000000000000000000000000000000000000000000600052604160045260246000fd5b6040519080825280602002602001820160405280156117e657816020015b6117d3612907565b8152602001906001900390816117cb5790505b50816080018190525060405180604001604052807f2c097b31a897227a6f64c9fc31d9a8fc421b0d8b8207f92532b464e431e61db881526020017f0fcf6d89d77d5123a43dfb23efb9c929c28c148ca82c794057864b8e66903c548152508160800151600081518110611882577f4e487b7100000000000000000000000000000000000000000000000000000000600052603260045260246000fd5b602002602001018190525060405180604001604052807f0186dae5999acfe2cda6fa7a157ae726afda7c6f57b00ea0aa6c2c23bf83838881526020017f2f078608f710c45b60d23716c58e106d8c7a1c6db28119defffc413e074f87168152508160800151600181518110611920577f4e487b7100000000000000000000000000000000000000000000000000000000600052603260045260246000fd5b602002602001018190525060405180604001604052807f2464c1784bda2cbfb51e5ab87cf7eb2764ad81f7038152bdbbb07d404b49aa3781526020017f0638b273e4ee33e03e42ca6c7de1ea7043dbdcaa48661864de644d91c6b4821f81525081608001516002815181106119be577f4e487b7100000000000000000000000000000000000000000000000000000000600052603260045260246000fd5b602002602001018190525060405180604001604052807f098ce8b5289ef791db34b68b9e0043ab7bf25306d83a9f0ce74396b8a69c57bb81526020017f1ec6f7a81748f3d2c2b87610d747ca72045ac1530e226f00710630d41aad7e268152508160800151600381518110611a5c577f4e487b7100000000000000000000000000000000000000000000000000000000600052603260045260246000fd5b602002602001018190525060405180604001604052807f07dbf682cc528d3ff763fa576d05db50e023921728119ef66f880b6adae01cbe81526020017f0d287dcd9318207576eaa871e7b3308f613d9df7865059cdbc9f66fdef342dc68152508160800151600481518110611afa577f4e487b7100000000000000000000000000000000000000000000000000000000600052603260045260246000fd5b602002602001018190525090565b611b10612907565b611b18612921565b836000015181600060038110611b57577f4e487b7100000000000000000000000000000000000000000000000000000000600052603260045260246000fd5b602002018181525050836020015181600160038110611b9f577f4e487b7100000000000000000000000000000000000000000000000000000000600052603260045260246000fd5b6020020181815250508281600260038110611be3577f4e487b7100000000000000000000000000000000000000000000000000000000600052603260045260246000fd5b602002018181525050600060608360808460076107d05a03fa90508060008114611c0c57611c0e565bfe5b5080611c4f576040517f08c379a0000000000000000000000000000000000000000000000000000000008152600401611c4690613410565b60405180910390fd5b505092915050565b611c5f612907565b611c67612943565b836000015181600060048110611ca6577f4e487b7100000000000000000000000000000000000000000000000000000000600052603260045260246000fd5b602002018181525050836020015181600160048110611cee577f4e487b7100000000000000000000000000000000000000000000000000000000600052603260045260246000fd5b602002018181525050826000015181600260048110611d36577f4e487b7100000000000000000000000000000000000000000000000000000000600052603260045260246000fd5b602002018181525050826020015181600360048110611d7e577f4e487b7100000000000000000000000000000000000000000000000000000000600052603260045260246000fd5b602002018181525050600060608360c08460066107d05a03fa90508060008114611da757611da9565bfe5b5080611dea576040517f08c379a0000000000000000000000000000000000000000000000000000000008152600401611de190613490565b60405180910390fd5b505092915050565b611dfa612907565b60007f30644e72e131a029b85045b68181585d97816a916871ca8d3c208c16d87cfd47905060008360000151148015611e37575060008360200151145b15611e5b576040518060400160405280600081526020016000815250915050611e92565b604051806040016040528084600001518152602001828560200151611e809190613908565b83611e8b91906137ca565b8152509150505b919050565b600080600467ffffffffffffffff811115611edb577f4e487b7100000000000000000000000000000000000000000000000000000000600052604160045260246000fd5b604051908082528060200260200182016040528015611f1457816020015b611f01612907565b815260200190600190039081611ef95790505b5090506000600467ffffffffffffffff811115611f5a577f4e487b7100000000000000000000000000000000000000000000000000000000600052604160045260246000fd5b604051908082528060200260200182016040528015611f9357816020015b611f80612965565b815260200190600190039081611f785790505b5090508a82600081518110611fd1577f4e487b7100000000000000000000000000000000000000000000000000000000600052603260045260246000fd5b60200260200101819052508882600181518110612017577f4e487b7100000000000000000000000000000000000000000000000000000000600052603260045260246000fd5b6020026020010181905250868260028151811061205d577f4e487b7100000000000000000000000000000000000000000000000000000000600052603260045260246000fd5b602002602001018190525084826003815181106120a3577f4e487b7100000000000000000000000000000000000000000000000000000000600052603260045260246000fd5b602002602001018190525089816000815181106120e9577f4e487b7100000000000000000000000000000000000000000000000000000000600052603260045260246000fd5b6020026020010181905250878160018151811061212f577f4e487b7100000000000000000000000000000000000000000000000000000000600052603260045260246000fd5b60200260200101819052508581600281518110612175577f4e487b7100000000000000000000000000000000000000000000000000000000600052603260045260246000fd5b602002602001018190525083816003815181106121bb577f4e487b7100000000000000000000000000000000000000000000000000000000600052603260045260246000fd5b60200260200101819052506121d0828261221a565b9250505098975050505050505050565b6000600883836040516020016121f79291906132da565b6040516020818303038152906040528051906020012060001c901c905092915050565b60008151835114612260576040517f08c379a000000000000000000000000000000000000000000000000000000000815260040161225790613470565b60405180910390fd5b60008351905060006006826122759190613770565b905060008167ffffffffffffffff8111156122b9577f4e487b7100000000000000000000000000000000000000000000000000000000600052604160045260246000fd5b6040519080825280602002602001820160405280156122e75781602001602082028036833780820191505090505b50905060005b838110156127cc5786818151811061232e577f4e487b7100000000000000000000000000000000000000000000000000000000600052603260045260246000fd5b60200260200101516000015182600060068461234a9190613770565b612354919061371a565b8151811061238b577f4e487b7100000000000000000000000000000000000000000000000000000000600052603260045260246000fd5b6020026020010181815250508681815181106123d0577f4e487b7100000000000000000000000000000000000000000000000000000000600052603260045260246000fd5b6020026020010151602001518260016006846123ec9190613770565b6123f6919061371a565b8151811061242d577f4e487b7100000000000000000000000000000000000000000000000000000000600052603260045260246000fd5b602002602001018181525050858181518110612472577f4e487b7100000000000000000000000000000000000000000000000000000000600052603260045260246000fd5b6020026020010151600001516000600281106124b7577f4e487b7100000000000000000000000000000000000000000000000000000000600052603260045260246000fd5b60200201518260026006846124cc9190613770565b6124d6919061371a565b8151811061250d577f4e487b7100000000000000000000000000000000000000000000000000000000600052603260045260246000fd5b602002602001018181525050858181518110612552577f4e487b7100000000000000000000000000000000000000000000000000000000600052603260045260246000fd5b602002602001015160000151600160028110612597577f4e487b7100000000000000000000000000000000000000000000000000000000600052603260045260246000fd5b60200201518260036006846125ac9190613770565b6125b6919061371a565b815181106125ed577f4e487b7100000000000000000000000000000000000000000000000000000000600052603260045260246000fd5b602002602001018181525050858181518110612632577f4e487b7100000000000000000000000000000000000000000000000000000000600052603260045260246000fd5b602002602001015160200151600060028110612677577f4e487b7100000000000000000000000000000000000000000000000000000000600052603260045260246000fd5b602002015182600460068461268c9190613770565b612696919061371a565b815181106126cd577f4e487b7100000000000000000000000000000000000000000000000000000000600052603260045260246000fd5b602002602001018181525050858181518110612712577f4e487b7100000000000000000000000000000000000000000000000000000000600052603260045260246000fd5b602002602001015160200151600160028110612757577f4e487b7100000000000000000000000000000000000000000000000000000000600052603260045260246000fd5b602002015182600560068461276c9190613770565b612776919061371a565b815181106127ad577f4e487b7100000000000000000000000000000000000000000000000000000000600052603260045260246000fd5b60200260200101818152505080806127c4906138bf565b9150506122ed565b506127d561298b565b6000602082602086026020860160086107d05a03fa905080600081146127fa576127fc565bfe5b508061283d576040517f08c379a0000000000000000000000000000000000000000000000000000000008152600401612834906134b0565b60405180910390fd5b600082600060018110612879577f4e487b7100000000000000000000000000000000000000000000000000000000600052603260045260246000fd5b602002015114159550505050505092915050565b60405180606001604052806128a0612907565b81526020016128ad612965565b81526020016128ba612907565b81525090565b6040518060a001604052806128d3612907565b81526020016128e0612965565b81526020016128ed612965565b81526020016128fa612965565b8152602001606081525090565b604051806040016040528060008152602001600081525090565b6040518060600160405280600390602082028036833780820191505090505090565b6040518060800160405280600490602082028036833780820191505090505090565b60405180604001604052806129786129ad565b81526020016129856129ad565b81525090565b6040518060200160405280600190602082028036833780820191505090505090565b6040518060400160405280600290602082028036833780820191505090505090565b60006129e26129dd8461360b565b6135e6565b905080828560408602820111156129f857600080fd5b60005b85811015612a285781612a0e8882612b72565b8452602084019350604083019250506001810190506129fb565b5050509392505050565b6000612a45612a4084613631565b6135e6565b90508082856020860282011115612a5b57600080fd5b60005b85811015612a8b5781612a718882612ce6565b845260208401935060208301925050600181019050612a5e565b5050509392505050565b6000612aa8612aa384613657565b6135e6565b90508082856020860282011115612abe57600080fd5b60005b85811015612aee5781612ad48882612ce6565b845260208401935060208301925050600181019050612ac1565b5050509392505050565b6000612b0b612b068461367d565b6135e6565b905082815260208101848484011115612b2357600080fd5b612b2e84828561387f565b509392505050565b600081359050612b4581613c32565b92915050565b600082601f830112612b5c57600080fd5b6002612b698482856129cf565b91505092915050565b600082601f830112612b8357600080fd5b6002612b90848285612a32565b91505092915050565b600082601f830112612baa57600080fd5b6004612bb7848285612a95565b91505092915050565b600081905082602060080282011115612bd857600080fd5b92915050565b60008083601f840112612bf057600080fd5b8235905067ffffffffffffffff811115612c0957600080fd5b602083019150836020820283011115612c2157600080fd5b9250929050565b60008083601f840112612c3a57600080fd5b8235905067ffffffffffffffff811115612c5357600080fd5b602083019150836020820283011115612c6b57600080fd5b9250929050565b600082601f830112612c8357600080fd5b8135612c93848260208601612af8565b91505092915050565b60008083601f840112612cae57600080fd5b8235905067ffffffffffffffff811115612cc757600080fd5b602083019150836001820283011115612cdf57600080fd5b9250929050565b600081359050612cf581613c49565b92915050565b600081359050612d0a81613c60565b92915050565b60008060008060808587031215612d2657600080fd5b6000612d3487828801612b36565b9450506020612d4587828801612b36565b9350506040612d5687828801612ce6565b925050606085013567ffffffffffffffff811115612d7357600080fd5b612d7f87828801612c72565b91505092959194509250565b6000806000806101808587031215612da257600080fd5b6000612db087828801612b72565b9450506040612dc187828801612b4b565b93505060c0612dd287828801612b72565b925050610100612de487828801612b99565b91505092959194509250565b60008060008060006101608688031215612e0957600080fd5b600086013567ffffffffffffffff811115612e2357600080fd5b612e2f88828901612c9c565b95509550506020612e4288828901612ce6565b9350506040612e5388828901612ce6565b9250506060612e6488828901612bc0565b9150509295509295909350565b600060208284031215612e8357600080fd5b6000612e9184828501612ce6565b91505092915050565b600080600060608486031215612eaf57600080fd5b6000612ebd86828701612ce6565b9350506020612ece86828701612b36565b9250506040612edf86828701612b36565b9150509250925092565b600080600080600080600060a0888a031215612f0457600080fd5b6000612f128a828b01612ce6565b9750506020612f238a828b01612ce6565b965050604088013567ffffffffffffffff811115612f4057600080fd5b612f4c8a828b01612bde565b9550955050606088013567ffffffffffffffff811115612f6b57600080fd5b612f778a828b01612c28565b93509350506080612f8a8a828b01612b36565b91505092959891949750929550565b600080600060608486031215612fae57600080fd5b6000612fbc86828701612ce6565b9350506020612fcd86828701612ce6565b9250506040612fde86828701612ce6565b9150509250925092565b6000612ff483836132cb565b60208301905092915050565b613009816137fe565b82525050565b600061301b83856136c5565b93507f07ffffffffffffffffffffffffffffffffffffffffffffffffffffffffffffff83111561304a57600080fd5b60208302925061305b83858461387f565b82840190509392505050565b600061307383856136d6565b935061307e826136ae565b8060005b858110156130b7576130948284613703565b61309e8882612fe8565b97506130a9836136b8565b925050600181019050613082565b5085925050509392505050565b6130cd81613810565b82525050565b6130dc8161381c565b82525050565b60006130ee83856136f8565b93506130fb83858461387f565b82840190509392505050565b60006131146036836136e7565b915061311f826139d7565b604082019050919050565b60006131376025836136e7565b915061314282613a26565b604082019050919050565b600061315a6031836136e7565b915061316582613a75565b604082019050919050565b600061317d6012836136e7565b915061318882613ac4565b602082019050919050565b60006131a06012836136e7565b91506131ab82613aed565b602082019050919050565b60006131c36009836136f8565b91506131ce82613b16565b600982019050919050565b60006131e66025836136e7565b91506131f182613b3f565b604082019050919050565b6000613209601f836136e7565b915061321482613b8e565b602082019050919050565b600061322c6016836136e7565b915061323782613bb7565b602082019050919050565b600061324f6012836136e7565b915061325a82613be0565b602082019050919050565b60006132726015836136e7565b915061327d82613c09565b602082019050919050565b8082525050565b61329881613868565b82525050565b6132a781613868565b82525050565b6132b681613872565b82525050565b6132c581613872565b82525050565b6132d481613872565b82525050565b60006132e78284866130e2565b91508190509392505050565b60006132fe826131b6565b9150819050919050565b600060208201905061331d6000830184613000565b92915050565b60006060820190506133386000830186613000565b6133456020830185613000565b613352604083018461328f565b949350505050565b600060208201905061336f60008301846130c4565b92915050565b600060208201905061338a60008301846130d3565b92915050565b600060208201905081810360008301526133a981613107565b9050919050565b600060208201905081810360008301526133c98161312a565b9050919050565b600060208201905081810360008301526133e98161314d565b9050919050565b6000602082019050818103600083015261340981613170565b9050919050565b6000602082019050818103600083015261342981613193565b9050919050565b60006020820190508181036000830152613449816131d9565b9050919050565b60006020820190508181036000830152613469816131fc565b9050919050565b600060208201905081810360008301526134898161321f565b9050919050565b600060208201905081810360008301526134a981613242565b9050919050565b600060208201905081810360008301526134c981613265565b9050919050565b60006040820190506134e56000830185613288565b6134f2602083018461329e565b9392505050565b600060808201905061350e6000830189613288565b61351b602083018861329e565b818103604083015261352e81868861300f565b90508181036060830152613543818486613067565b9050979650505050505050565b60006060820190506135656000830186613288565b61357260208301856132bc565b61357f604083018461329e565b949350505050565b600060208201905061359c600083018461328f565b92915050565b60006040820190506135b7600083018561328f565b6135c4602083018461328f565b9392505050565b60006020820190506135e060008301846132ad565b92915050565b60006135f0613601565b90506135fc828261388e565b919050565b6000604051905090565b600067ffffffffffffffff82111561362657613625613997565b5b602082029050919050565b600067ffffffffffffffff82111561364c5761364b613997565b5b602082029050919050565b600067ffffffffffffffff82111561367257613671613997565b5b602082029050919050565b600067ffffffffffffffff82111561369857613697613997565b5b6136a1826139c6565b9050602081019050919050565b6000819050919050565b6000602082019050919050565b600082825260208201905092915050565b600082825260208201905092915050565b600082825260208201905092915050565b600081905092915050565b60006137126020840184612cfb565b905092915050565b600061372582613868565b915061373083613868565b9250827fffffffffffffffffffffffffffffffffffffffffffffffffffffffffffffffff0382111561376557613764613939565b5b828201905092915050565b600061377b82613868565b915061378683613868565b9250817fffffffffffffffffffffffffffffffffffffffffffffffffffffffffffffffff04831182151516156137bf576137be613939565b5b828202905092915050565b60006137d582613868565b91506137e083613868565b9250828210156137f3576137f2613939565b5b828203905092915050565b600061380982613848565b9050919050565b60008115159050919050565b60007fffffffff0000000000000000000000000000000000000000000000000000000082169050919050565b600073ffffffffffffffffffffffffffffffffffffffff82169050919050565b6000819050919050565b600060ff82169050919050565b82818337600083830152505050565b613897826139c6565b810181811067ffffffffffffffff821117156138b6576138b5613997565b5b80604052505050565b60006138ca82613868565b91507fffffffffffffffffffffffffffffffffffffffffffffffffffffffffffffffff8214156138fd576138fc613939565b5b600182019050919050565b600061391382613868565b915061391e83613868565b92508261392e5761392d613968565b5b828206905092915050565b7f4e487b7100000000000000000000000000000000000000000000000000000000600052601160045260246000fd5b7f4e487b7100000000000000000000000000000000000000000000000000000000600052601260045260246000fd5b7f4e487b7100000000000000000000000000000000000000000000000000000000600052604160045260246000fd5b6000601f19601f8301169050919050565b7f53656d6170686f7265436f72653a20796f752063616e6e6f742075736520746860008201527f652073616d65206e756c6c696669657220747769636500000000000000000000602082015250565b7f53656d6170686f726547726f7570733a2067726f757020616c7265616479206560008201527f7869737473000000000000000000000000000000000000000000000000000000602082015250565b7f53656d6170686f726557686973746c65626c6f77696e673a2063616c6c65722060008201527f6973206e6f742074686520656469746f72000000000000000000000000000000602082015250565b7f76657269666965722d6261642d696e7075740000000000000000000000000000600082015250565b7f70616972696e672d6d756c2d6661696c65640000000000000000000000000000600082015250565b7f53656d6170686f72650000000000000000000000000000000000000000000000600082015250565b7f53656d6170686f726547726f7570733a2067726f757020646f6573206e6f742060008201527f6578697374000000000000000000000000000000000000000000000000000000602082015250565b7f76657269666965722d6774652d736e61726b2d7363616c61722d6669656c6400600082015250565b7f70616972696e672d6c656e677468732d6661696c656400000000000000000000600082015250565b7f70616972696e672d6164642d6661696c65640000000000000000000000000000600082015250565b7f70616972696e672d6f70636f64652d6661696c65640000000000000000000000600082015250565b613c3b816137fe565b8114613c4657600080fd5b50565b613c5281613868565b8114613c5d57600080fd5b50565b613c6981613872565b8114613c7457600080fd5b5056fea2646970667358221220f822c54a55c099ee7cc772e70b4dda332edf8691931d6214504fb60abd26311164736f6c63430008040033",
  "linkReferences": {
    "@zk-kit/incremental-merkle-tree.sol/contracts/IncrementalBinaryTree.sol": {
      "IncrementalBinaryTree": [
        {
          "length": 20,
          "start": 3031
        },
        {
          "length": 20,
          "start": 3365
        },
        {
          "length": 20,
          "start": 5132
        }
      ]
    }
  },
  "deployedLinkReferences": {
    "@zk-kit/incremental-merkle-tree.sol/contracts/IncrementalBinaryTree.sol": {
      "IncrementalBinaryTree": [
        {
          "length": 20,
          "start": 2999
        },
        {
          "length": 20,
          "start": 3333
        },
        {
          "length": 20,
          "start": 5100
        }
      ]
    }
  }
}