{
  "_format": "hh-sol-artifact-1",
  "contractName": "zkStake",
  "sourceName": "contracts/extensions/zkStake.sol",
  "abi": [
    {
      "anonymous": false,
      "inputs": [
        {
          "indexed": false,
          "internalType": "uint256",
          "name": "entityId",
          "type": "uint256"
        },
        {
          "indexed": true,
          "internalType": "address",
          "name": "editor",
          "type": "address"
        }
      ],
      "name": "EntityCreated",
      "type": "event"
    },
    {
      "anonymous": false,
      "inputs": [
        {
          "indexed": true,
          "internalType": "uint256",
          "name": "groupId",
          "type": "uint256"
        },
        {
          "indexed": false,
          "internalType": "uint8",
          "name": "depth",
          "type": "uint8"
        }
      ],
      "name": "GroupAdded",
      "type": "event"
    },
    {
      "anonymous": false,
      "inputs": [
        {
          "indexed": true,
          "internalType": "uint256",
          "name": "groupId",
          "type": "uint256"
        },
        {
          "indexed": false,
          "internalType": "uint256",
          "name": "identityCommitment",
          "type": "uint256"
        },
        {
          "indexed": false,
          "internalType": "uint256",
          "name": "root",
          "type": "uint256"
        }
      ],
      "name": "MemberAdded",
      "type": "event"
    },
    {
      "anonymous": false,
      "inputs": [
        {
          "indexed": true,
          "internalType": "uint256",
          "name": "groupId",
          "type": "uint256"
        },
        {
          "indexed": false,
          "internalType": "uint256",
          "name": "identityCommitment",
          "type": "uint256"
        },
        {
          "indexed": false,
          "internalType": "uint256",
          "name": "root",
          "type": "uint256"
        }
      ],
      "name": "MemberRemoved",
      "type": "event"
    },
    {
      "anonymous": false,
      "inputs": [
        {
          "indexed": false,
          "internalType": "uint256",
          "name": "nullifierHash",
          "type": "uint256"
        }
      ],
      "name": "NullifierHashAdded",
      "type": "event"
    },
    {
      "inputs": [
        {
          "internalType": "uint256",
          "name": "entityId",
          "type": "uint256"
        },
        {
          "internalType": "uint256",
          "name": "identityCommitment",
          "type": "uint256"
        },
        {
          "internalType": "uint256",
          "name": "id",
          "type": "uint256"
        }
      ],
      "name": "addDAOIdentity",
      "outputs": [],
      "stateMutability": "nonpayable",
      "type": "function"
    },
    {
      "inputs": [
        {
          "internalType": "uint256",
          "name": "entityId",
          "type": "uint256"
        },
        {
          "internalType": "address",
          "name": "editor",
          "type": "address"
        },
        {
          "internalType": "address",
          "name": "token",
          "type": "address"
        }
      ],
      "name": "createEntity",
      "outputs": [],
      "stateMutability": "nonpayable",
      "type": "function"
    },
    {
      "inputs": [
        {
          "internalType": "uint256",
          "name": "groupId",
          "type": "uint256"
        }
      ],
      "name": "getDepth",
      "outputs": [
        {
          "internalType": "uint256",
          "name": "",
          "type": "uint256"
        }
      ],
      "stateMutability": "view",
      "type": "function"
    },
    {
      "inputs": [
        {
          "internalType": "uint256",
          "name": "groupId",
          "type": "uint256"
        }
      ],
      "name": "getRoot",
      "outputs": [
        {
          "internalType": "uint256",
          "name": "",
          "type": "uint256"
        }
      ],
      "stateMutability": "view",
      "type": "function"
    },
    {
      "inputs": [
        {
          "internalType": "uint256",
          "name": "groupId",
          "type": "uint256"
        }
      ],
      "name": "getSize",
      "outputs": [
        {
          "internalType": "uint256",
          "name": "",
          "type": "uint256"
        }
      ],
      "stateMutability": "view",
      "type": "function"
    },
    {
      "inputs": [
        {
          "internalType": "uint256",
          "name": "",
          "type": "uint256"
        }
      ],
      "name": "membershipTokens",
      "outputs": [
        {
          "internalType": "address",
          "name": "",
          "type": "address"
        }
      ],
      "stateMutability": "view",
      "type": "function"
    },
    {
      "inputs": [
        {
          "internalType": "uint256",
          "name": "entityId",
          "type": "uint256"
        },
        {
          "internalType": "uint256",
          "name": "identityCommitment",
          "type": "uint256"
        },
        {
          "internalType": "uint256[]",
          "name": "proofSiblings",
          "type": "uint256[]"
        },
        {
          "internalType": "uint8[]",
          "name": "proofPathIndices",
          "type": "uint8[]"
        }
      ],
      "name": "removeDAOIdentity",
      "outputs": [],
      "stateMutability": "nonpayable",
      "type": "function"
    },
    {
      "inputs": [
        {
          "internalType": "string",
          "name": "challenge",
          "type": "string"
        },
        {
          "internalType": "uint256",
          "name": "nullifierHash",
          "type": "uint256"
        },
        {
          "internalType": "uint256",
          "name": "entityId",
          "type": "uint256"
        },
        {
          "internalType": "uint256[8]",
          "name": "proof",
          "type": "uint256[8]"
        }
      ],
      "name": "verifyIdentityChallenge",
      "outputs": [
        {
          "internalType": "bool",
          "name": "",
          "type": "bool"
        }
      ],
      "stateMutability": "view",
      "type": "function"
    },
    {
      "inputs": [
        {
          "internalType": "uint256[2]",
          "name": "a",
          "type": "uint256[2]"
        },
        {
          "internalType": "uint256[2][2]",
          "name": "b",
          "type": "uint256[2][2]"
        },
        {
          "internalType": "uint256[2]",
          "name": "c",
          "type": "uint256[2]"
        },
        {
          "internalType": "uint256[4]",
          "name": "input",
          "type": "uint256[4]"
        }
      ],
      "name": "verifyProof",
      "outputs": [
        {
          "internalType": "bool",
          "name": "r",
          "type": "bool"
        }
      ],
      "stateMutability": "view",
      "type": "function"
    }
  ],
  "bytecode": "0x608060405234801561001057600080fd5b506139be806100206000396000f3fe608060405234801561001057600080fd5b50600436106100935760003560e01c806375e618c91161006657806375e618c9146101445780639b24b3b014610174578063ad9a2f72146101a4578063d868b1fd146101d4578063da3eea05146101f057610093565b8063023c23db1461009857806317101571146100c85780634d56f27d146100e45780635fe8c13b14610114575b600080fd5b6100b260048036038101906100ad9190612c1e565b61020c565b6040516100bf91906132f5565b60405180910390f35b6100e260048036038101906100dd9190612c47565b61022c565b005b6100fe60048036038101906100f99190612c1e565b610320565b60405161010b9190613091565b60405180910390f35b61012e60048036038101906101299190612b38565b610353565b60405161013b91906130e3565b60405180910390f35b61015e60048036038101906101599190612c1e565b610807565b60405161016b91906132f5565b60405180910390f35b61018e60048036038101906101899190612c1e565b610837565b60405161019b91906132f5565b60405180910390f35b6101be60048036038101906101b99190612b9d565b610857565b6040516101cb91906130e3565b60405180910390f35b6101ee60048036038101906101e99190612d31565b61088d565b005b61020a60048036038101906102059190612c96565b61093e565b005b600060016000838152602001908152602001600020600201549050919050565b6102378360146109de565b82600360008473ffffffffffffffffffffffffffffffffffffffff1673ffffffffffffffffffffffffffffffffffffffff16815260200190815260200160002081905550806004600085815260200190815260200160002060006101000a81548173ffffffffffffffffffffffffffffffffffffffff021916908373ffffffffffffffffffffffffffffffffffffffff1602179055508173ffffffffffffffffffffffffffffffffffffffff167f5340f46ccfdbf46cea681e7481c711c8838cbcda1356cab6f31a2d0b2cd3525a8460405161031391906132f5565b60405180910390a2505050565b60046020528060005260406000206000915054906101000a900473ffffffffffffffffffffffffffffffffffffffff1681565b600061035d61271d565b6040518060400160405280876000600281106103a2577f4e487b7100000000000000000000000000000000000000000000000000000000600052603260045260246000fd5b60200201518152602001876001600281106103e6577f4e487b7100000000000000000000000000000000000000000000000000000000600052603260045260246000fd5b602002015181525081600001819052506040518060400160405280604051806040016040528088600060028110610446577f4e487b7100000000000000000000000000000000000000000000000000000000600052603260045260246000fd5b6020020151600060028110610484577f4e487b7100000000000000000000000000000000000000000000000000000000600052603260045260246000fd5b60200201518152602001886000600281106104c8577f4e487b7100000000000000000000000000000000000000000000000000000000600052603260045260246000fd5b6020020151600160028110610506577f4e487b7100000000000000000000000000000000000000000000000000000000600052603260045260246000fd5b60200201518152508152602001604051806040016040528088600160028110610558577f4e487b7100000000000000000000000000000000000000000000000000000000600052603260045260246000fd5b6020020151600060028110610596577f4e487b7100000000000000000000000000000000000000000000000000000000600052603260045260246000fd5b60200201518152602001886001600281106105da577f4e487b7100000000000000000000000000000000000000000000000000000000600052603260045260246000fd5b6020020151600160028110610618577f4e487b7100000000000000000000000000000000000000000000000000000000600052603260045260246000fd5b60200201518152508152508160200181905250604051806040016040528085600060028110610670577f4e487b7100000000000000000000000000000000000000000000000000000000600052603260045260246000fd5b60200201518152602001856001600281106106b4577f4e487b7100000000000000000000000000000000000000000000000000000000600052603260045260246000fd5b602002015181525081604001819052506000600467ffffffffffffffff811115610707577f4e487b7100000000000000000000000000000000000000000000000000000000600052604160045260246000fd5b6040519080825280602002602001820160405280156107355781602001602082028036833780820191505090505b50905060005b60048110156107da5784816004811061077d577f4e487b7100000000000000000000000000000000000000000000000000000000600052603260045260246000fd5b60200201518282815181106107bb577f4e487b7100000000000000000000000000000000000000000000000000000000600052603260045260246000fd5b60200260200101818152505080806107d2906135d0565b91505061073b565b5060006107e78284610b36565b14156107f8576001925050506107ff565b6000925050505b949350505050565b60006001600083815260200190815260200160002060000160009054906101000a900460ff1660ff169050919050565b600060016000838152602001908152602001600020600101549050919050565b60008061087e87876001600088815260200190815260200160002060010154888888610dc1565b90508091505095945050505050565b6004600084815260200190815260200160002060009054906101000a900473ffffffffffffffffffffffffffffffffffffffff1673ffffffffffffffffffffffffffffffffffffffff166342842e0e3330846040518463ffffffff1660e01b81526004016108fd939291906130ac565b600060405180830381600087803b15801561091757600080fd5b505af115801561092b573d6000803e3d6000fd5b5050505061093983836110c4565b505050565b856003600061094b6111f1565b73ffffffffffffffffffffffffffffffffffffffff1673ffffffffffffffffffffffffffffffffffffffff1681526020019081526020016000205481146109c7576040517f08c379a00000000000000000000000000000000000000000000000000000000081526004016109be9061313e565b60405180910390fd5b6109d58787878787876111f9565b50505050505050565b60006109e983610807565b14610a29576040517f08c379a0000000000000000000000000000000000000000000000000000000008152600401610a209061311e565b60405180910390fd5b6001600083815260200190815260200160002073__$4c0484323457fe1a856f46a4759b553fe4$__63b4bdd1179091837f30644e72e131a029b85045b68181585d2833e84879b9709143e1f593f0000001604051602001610a899061307c565b6040516020818303038152906040528051906020012060001c610aac9190613619565b6040518463ffffffff1660e01b8152600401610aca939291906132be565b60006040518083038186803b158015610ae257600080fd5b505af4158015610af6573d6000803e3d6000fd5b50505050817f6e41c6ac154b547a2112d36281cc5de1cdfa7d7f260d4edf74f3ef59f9df0c5982604051610b2a9190613339565b60405180910390a25050565b6000807f30644e72e131a029b85045b68181585d2833e84879b9709143e1f593f000000190506000610b66611348565b905080608001515160018651610b7c9190613457565b14610bbc576040517f08c379a0000000000000000000000000000000000000000000000000000000008152600401610bb39061315e565b60405180910390fd5b60006040518060400160405280600081526020016000815250905060005b8651811015610d1d5783878281518110610c1d577f4e487b7100000000000000000000000000000000000000000000000000000000600052603260045260246000fd5b602002602001015110610c65576040517f08c379a0000000000000000000000000000000000000000000000000000000008152600401610c5c906131be565b60405180910390fd5b610d0882610d038560800151600185610c7e9190613457565b81518110610cb5577f4e487b7100000000000000000000000000000000000000000000000000000000600052603260045260246000fd5b60200260200101518a8581518110610cf6577f4e487b7100000000000000000000000000000000000000000000000000000000600052603260045260246000fd5b6020026020010151611998565b611ae7565b91508080610d15906135d0565b915050610bda565b50610d6d818360800151600081518110610d60577f4e487b7100000000000000000000000000000000000000000000000000000000600052603260045260246000fd5b6020026020010151611ae7565b9050610da3610d7f8660000151611c82565b8660200151846000015185602001518587604001518b604001518960600151611d27565b610db35760019350505050610dbb565b600093505050505b92915050565b600080600085815260200190815260200160002060009054906101000a900460ff1615610e23576040517f08c379a0000000000000000000000000000000000000000000000000000000008152600401610e1a906130fe565b60405180910390fd5b6000610e2f8888612070565b9050600060405180608001604052808881526020018781526020018381526020018681525090506110b6604051806040016040528086600060088110610e9e577f4e487b7100000000000000000000000000000000000000000000000000000000600052603260045260246000fd5b6020020135815260200186600160088110610ee2577f4e487b7100000000000000000000000000000000000000000000000000000000600052603260045260246000fd5b60200201358152506040518060400160405280604051806040016040528089600260088110610f3a577f4e487b7100000000000000000000000000000000000000000000000000000000600052603260045260246000fd5b6020020135815260200189600360088110610f7e577f4e487b7100000000000000000000000000000000000000000000000000000000600052603260045260246000fd5b60200201358152508152602001604051806040016040528089600460088110610fd0577f4e487b7100000000000000000000000000000000000000000000000000000000600052603260045260246000fd5b6020020135815260200189600560088110611014577f4e487b7100000000000000000000000000000000000000000000000000000000600052603260045260246000fd5b6020020135815250815250604051806040016040528088600660088110611064577f4e487b7100000000000000000000000000000000000000000000000000000000600052603260045260246000fd5b60200201358152602001886007600881106110a8577f4e487b7100000000000000000000000000000000000000000000000000000000600052603260045260246000fd5b602002013581525084610353565b925050509695505050505050565b60006110cf83610807565b1415611110576040517f08c379a00000000000000000000000000000000000000000000000000000000081526004016111079061319e565b60405180910390fd5b6001600083815260200190815260200160002073__$4c0484323457fe1a856f46a4759b553fe4$__63168703fa9091836040518363ffffffff1660e01b815260040161115d92919061323e565b60006040518083038186803b15801561117557600080fd5b505af4158015611189573d6000803e3d6000fd5b50505050600061119883610837565b9050826002600083815260200190815260200160002081905550827f03fd27265b7dd1f55558bedc22a58fa3b10afb1be776e614bd5a7ba7b949940683836040516111e4929190613310565b60405180910390a2505050565b600033905090565b600061120487610807565b1415611245576040517f08c379a000000000000000000000000000000000000000000000000000000000815260040161123c9061319e565b60405180910390fd5b6001600087815260200190815260200160002073__$4c0484323457fe1a856f46a4759b553fe4$__630629596f909187878787876040518763ffffffff1660e01b815260040161129a96959493929190613267565b60006040518083038186803b1580156112b257600080fd5b505af41580156112c6573d6000803e3d6000fd5b5050505060006112d587610837565b9050866002600083815260200190815260200160002081905550867fe270325ded177064d7bda473e6519ef40a291058c41286f71a6e4872f1e9ab5c87600160008b815260200190815260200160002060010154604051611337929190613310565b60405180910390a250505050505050565b611350612750565b60405180604001604052807f2d4d9aa7e302d9df41749d5507949d05dbea33fbb16c643b22f599a2be6df2e281526020017f14bedd503c37ceb061d8ec60209fe345ce89830a19230301f076caff004d19268152508160000181905250604051806040016040528060405180604001604052807f0967032fcbf776d1afc985f88877f182d38480a653f2decaa9794cbc3bf3060c81526020017f0e187847ad4c798374d0d6732bf501847dd68bc0e071241e0213bc7fc13db7ab815250815260200160405180604001604052807f304cfbd1e08a704a99f5e847d93f8c3caafddec46b7a0d379da69a4d112346a781526020017f1739c1b1a457a8c7313123d24d2f9192f896b7c63eea05a9d57f06547ad0cec88152508152508160200181905250604051806040016040528060405180604001604052807f198e9393920d483a7260bfb731fb5d25f1aa493335a9e71297e485b7aef312c281526020017f1800deef121f1e76426a00665e5c4479674322d4f75edadd46debd5cd992f6ed815250815260200160405180604001604052807f090689d0585ff075ec9e99ad690c3395bc4b313370b38ef355acdadcd122975b81526020017f12c85ea5db8c6deb4aab71808dcb408fe3d1e7690c43d37b4ce6cc0166fa7daa8152508152508160400181905250604051806040016040528060405180604001604052807f1bdb443ce61ebcf93daed4215a57e1cec90ca64973023e31197a112e8cee72f681526020017f117e26c4235f42625b3404f2973059814ff260dba7176d7aae910f493a8e1fb5815250815260200160405180604001604052807f196e247a12f580e36894f256f0c122393489b4c213b3e913250feee806ca45ff81526020017f2fedff4e4bbcbf9f1c56e28a060d50eef5f54e2aab897f6b465acd2ed005ae918152508152508160600181905250600567ffffffffffffffff81111561163d577f4e487b7100000000000000000000000000000000000000000000000000000000600052604160045260246000fd5b60405190808252806020026020018201604052801561167657816020015b611663612797565b81526020019060019003908161165b5790505b50816080018190525060405180604001604052807f2c097b31a897227a6f64c9fc31d9a8fc421b0d8b8207f92532b464e431e61db881526020017f0fcf6d89d77d5123a43dfb23efb9c929c28c148ca82c794057864b8e66903c548152508160800151600081518110611712577f4e487b7100000000000000000000000000000000000000000000000000000000600052603260045260246000fd5b602002602001018190525060405180604001604052807f0186dae5999acfe2cda6fa7a157ae726afda7c6f57b00ea0aa6c2c23bf83838881526020017f2f078608f710c45b60d23716c58e106d8c7a1c6db28119defffc413e074f871681525081608001516001815181106117b0577f4e487b7100000000000000000000000000000000000000000000000000000000600052603260045260246000fd5b602002602001018190525060405180604001604052807f2464c1784bda2cbfb51e5ab87cf7eb2764ad81f7038152bdbbb07d404b49aa3781526020017f0638b273e4ee33e03e42ca6c7de1ea7043dbdcaa48661864de644d91c6b4821f815250816080015160028151811061184e577f4e487b7100000000000000000000000000000000000000000000000000000000600052603260045260246000fd5b602002602001018190525060405180604001604052807f098ce8b5289ef791db34b68b9e0043ab7bf25306d83a9f0ce74396b8a69c57bb81526020017f1ec6f7a81748f3d2c2b87610d747ca72045ac1530e226f00710630d41aad7e2681525081608001516003815181106118ec577f4e487b7100000000000000000000000000000000000000000000000000000000600052603260045260246000fd5b602002602001018190525060405180604001604052807f07dbf682cc528d3ff763fa576d05db50e023921728119ef66f880b6adae01cbe81526020017f0d287dcd9318207576eaa871e7b3308f613d9df7865059cdbc9f66fdef342dc6815250816080015160048151811061198a577f4e487b7100000000000000000000000000000000000000000000000000000000600052603260045260246000fd5b602002602001018190525090565b6119a0612797565b6119a86127b1565b8360000151816000600381106119e7577f4e487b7100000000000000000000000000000000000000000000000000000000600052603260045260246000fd5b602002018181525050836020015181600160038110611a2f577f4e487b7100000000000000000000000000000000000000000000000000000000600052603260045260246000fd5b6020020181815250508281600260038110611a73577f4e487b7100000000000000000000000000000000000000000000000000000000600052603260045260246000fd5b602002018181525050600060608360808460076107d05a03fa90508060008114611a9c57611a9e565bfe5b5080611adf576040517f08c379a0000000000000000000000000000000000000000000000000000000008152600401611ad69061317e565b60405180910390fd5b505092915050565b611aef612797565b611af76127d3565b836000015181600060048110611b36577f4e487b7100000000000000000000000000000000000000000000000000000000600052603260045260246000fd5b602002018181525050836020015181600160048110611b7e577f4e487b7100000000000000000000000000000000000000000000000000000000600052603260045260246000fd5b602002018181525050826000015181600260048110611bc6577f4e487b7100000000000000000000000000000000000000000000000000000000600052603260045260246000fd5b602002018181525050826020015181600360048110611c0e577f4e487b7100000000000000000000000000000000000000000000000000000000600052603260045260246000fd5b602002018181525050600060608360c08460066107d05a03fa90508060008114611c3757611c39565bfe5b5080611c7a576040517f08c379a0000000000000000000000000000000000000000000000000000000008152600401611c71906131fe565b60405180910390fd5b505092915050565b611c8a612797565b60007f30644e72e131a029b85045b68181585d97816a916871ca8d3c208c16d87cfd47905060008360000151148015611cc7575060008360200151145b15611ceb576040518060400160405280600081526020016000815250915050611d22565b604051806040016040528084600001518152602001828560200151611d109190613619565b83611d1b9190613507565b8152509150505b919050565b600080600467ffffffffffffffff811115611d6b577f4e487b7100000000000000000000000000000000000000000000000000000000600052604160045260246000fd5b604051908082528060200260200182016040528015611da457816020015b611d91612797565b815260200190600190039081611d895790505b5090506000600467ffffffffffffffff811115611dea577f4e487b7100000000000000000000000000000000000000000000000000000000600052604160045260246000fd5b604051908082528060200260200182016040528015611e2357816020015b611e106127f5565b815260200190600190039081611e085790505b5090508a82600081518110611e61577f4e487b7100000000000000000000000000000000000000000000000000000000600052603260045260246000fd5b60200260200101819052508882600181518110611ea7577f4e487b7100000000000000000000000000000000000000000000000000000000600052603260045260246000fd5b60200260200101819052508682600281518110611eed577f4e487b7100000000000000000000000000000000000000000000000000000000600052603260045260246000fd5b60200260200101819052508482600381518110611f33577f4e487b7100000000000000000000000000000000000000000000000000000000600052603260045260246000fd5b60200260200101819052508981600081518110611f79577f4e487b7100000000000000000000000000000000000000000000000000000000600052603260045260246000fd5b60200260200101819052508781600181518110611fbf577f4e487b7100000000000000000000000000000000000000000000000000000000600052603260045260246000fd5b60200260200101819052508581600281518110612005577f4e487b7100000000000000000000000000000000000000000000000000000000600052603260045260246000fd5b6020026020010181905250838160038151811061204b577f4e487b7100000000000000000000000000000000000000000000000000000000600052603260045260246000fd5b602002602001018190525061206082826120aa565b9250505098975050505050505050565b600060088383604051602001612087929190613063565b6040516020818303038152906040528051906020012060001c901c905092915050565b600081518351146120f0576040517f08c379a00000000000000000000000000000000000000000000000000000000081526004016120e7906131de565b60405180910390fd5b600083519050600060068261210591906134ad565b905060008167ffffffffffffffff811115612149577f4e487b7100000000000000000000000000000000000000000000000000000000600052604160045260246000fd5b6040519080825280602002602001820160405280156121775781602001602082028036833780820191505090505b50905060005b8381101561265c578681815181106121be577f4e487b7100000000000000000000000000000000000000000000000000000000600052603260045260246000fd5b6020026020010151600001518260006006846121da91906134ad565b6121e49190613457565b8151811061221b577f4e487b7100000000000000000000000000000000000000000000000000000000600052603260045260246000fd5b602002602001018181525050868181518110612260577f4e487b7100000000000000000000000000000000000000000000000000000000600052603260045260246000fd5b60200260200101516020015182600160068461227c91906134ad565b6122869190613457565b815181106122bd577f4e487b7100000000000000000000000000000000000000000000000000000000600052603260045260246000fd5b602002602001018181525050858181518110612302577f4e487b7100000000000000000000000000000000000000000000000000000000600052603260045260246000fd5b602002602001015160000151600060028110612347577f4e487b7100000000000000000000000000000000000000000000000000000000600052603260045260246000fd5b602002015182600260068461235c91906134ad565b6123669190613457565b8151811061239d577f4e487b7100000000000000000000000000000000000000000000000000000000600052603260045260246000fd5b6020026020010181815250508581815181106123e2577f4e487b7100000000000000000000000000000000000000000000000000000000600052603260045260246000fd5b602002602001015160000151600160028110612427577f4e487b7100000000000000000000000000000000000000000000000000000000600052603260045260246000fd5b602002015182600360068461243c91906134ad565b6124469190613457565b8151811061247d577f4e487b7100000000000000000000000000000000000000000000000000000000600052603260045260246000fd5b6020026020010181815250508581815181106124c2577f4e487b7100000000000000000000000000000000000000000000000000000000600052603260045260246000fd5b602002602001015160200151600060028110612507577f4e487b7100000000000000000000000000000000000000000000000000000000600052603260045260246000fd5b602002015182600460068461251c91906134ad565b6125269190613457565b8151811061255d577f4e487b7100000000000000000000000000000000000000000000000000000000600052603260045260246000fd5b6020026020010181815250508581815181106125a2577f4e487b7100000000000000000000000000000000000000000000000000000000600052603260045260246000fd5b6020026020010151602001516001600281106125e7577f4e487b7100000000000000000000000000000000000000000000000000000000600052603260045260246000fd5b60200201518260056006846125fc91906134ad565b6126069190613457565b8151811061263d577f4e487b7100000000000000000000000000000000000000000000000000000000600052603260045260246000fd5b6020026020010181815250508080612654906135d0565b91505061217d565b5061266561281b565b6000602082602086026020860160086107d05a03fa9050806000811461268a5761268c565bfe5b50806126cd576040517f08c379a00000000000000000000000000000000000000000000000000000000081526004016126c49061321e565b60405180910390fd5b600082600060018110612709577f4e487b7100000000000000000000000000000000000000000000000000000000600052603260045260246000fd5b602002015114159550505050505092915050565b6040518060600160405280612730612797565b815260200161273d6127f5565b815260200161274a612797565b81525090565b6040518060a00160405280612763612797565b81526020016127706127f5565b815260200161277d6127f5565b815260200161278a6127f5565b8152602001606081525090565b604051806040016040528060008152602001600081525090565b6040518060600160405280600390602082028036833780820191505090505090565b6040518060800160405280600490602082028036833780820191505090505090565b604051806040016040528061280861283d565b815260200161281561283d565b81525090565b6040518060200160405280600190602082028036833780820191505090505090565b6040518060400160405280600290602082028036833780820191505090505090565b600061287261286d84613379565b613354565b9050808285604086028201111561288857600080fd5b60005b858110156128b8578161289e88826129c4565b84526020840193506040830192505060018101905061288b565b5050509392505050565b60006128d56128d08461339f565b613354565b905080828560208602820111156128eb57600080fd5b60005b8581101561291b57816129018882612b0e565b8452602084019350602083019250506001810190506128ee565b5050509392505050565b6000612938612933846133c5565b613354565b9050808285602086028201111561294e57600080fd5b60005b8581101561297e57816129648882612b0e565b845260208401935060208301925050600181019050612951565b5050509392505050565b60008135905061299781613943565b92915050565b600082601f8301126129ae57600080fd5b60026129bb84828561285f565b91505092915050565b600082601f8301126129d557600080fd5b60026129e28482856128c2565b91505092915050565b600082601f8301126129fc57600080fd5b6004612a09848285612925565b91505092915050565b600081905082602060080282011115612a2a57600080fd5b92915050565b60008083601f840112612a4257600080fd5b8235905067ffffffffffffffff811115612a5b57600080fd5b602083019150836020820283011115612a7357600080fd5b9250929050565b60008083601f840112612a8c57600080fd5b8235905067ffffffffffffffff811115612aa557600080fd5b602083019150836020820283011115612abd57600080fd5b9250929050565b60008083601f840112612ad657600080fd5b8235905067ffffffffffffffff811115612aef57600080fd5b602083019150836001820283011115612b0757600080fd5b9250929050565b600081359050612b1d8161395a565b92915050565b600081359050612b3281613971565b92915050565b6000806000806101808587031215612b4f57600080fd5b6000612b5d878288016129c4565b9450506040612b6e8782880161299d565b93505060c0612b7f878288016129c4565b925050610100612b91878288016129eb565b91505092959194509250565b60008060008060006101608688031215612bb657600080fd5b600086013567ffffffffffffffff811115612bd057600080fd5b612bdc88828901612ac4565b95509550506020612bef88828901612b0e565b9350506040612c0088828901612b0e565b9250506060612c1188828901612a12565b9150509295509295909350565b600060208284031215612c3057600080fd5b6000612c3e84828501612b0e565b91505092915050565b600080600060608486031215612c5c57600080fd5b6000612c6a86828701612b0e565b9350506020612c7b86828701612988565b9250506040612c8c86828701612988565b9150509250925092565b60008060008060008060808789031215612caf57600080fd5b6000612cbd89828a01612b0e565b9650506020612cce89828a01612b0e565b955050604087013567ffffffffffffffff811115612ceb57600080fd5b612cf789828a01612a30565b9450945050606087013567ffffffffffffffff811115612d1657600080fd5b612d2289828a01612a7a565b92509250509295509295509295565b600080600060608486031215612d4657600080fd5b6000612d5486828701612b0e565b9350506020612d6586828701612b0e565b9250506040612d7686828701612b0e565b9150509250925092565b6000612d8c8383613054565b60208301905092915050565b612da18161353b565b82525050565b6000612db38385613402565b93507f07ffffffffffffffffffffffffffffffffffffffffffffffffffffffffffffff831115612de257600080fd5b602083029250612df3838584613590565b82840190509392505050565b6000612e0b8385613413565b9350612e16826133eb565b8060005b85811015612e4f57612e2c8284613440565b612e368882612d80565b9750612e41836133f5565b925050600181019050612e1a565b5085925050509392505050565b612e658161354d565b82525050565b6000612e778385613435565b9350612e84838584613590565b82840190509392505050565b6000612e9d603683613424565b9150612ea8826136e8565b604082019050919050565b6000612ec0602583613424565b9150612ecb82613737565b604082019050919050565b6000612ee3603183613424565b9150612eee82613786565b604082019050919050565b6000612f06601283613424565b9150612f11826137d5565b602082019050919050565b6000612f29601283613424565b9150612f34826137fe565b602082019050919050565b6000612f4c600983613435565b9150612f5782613827565b600982019050919050565b6000612f6f602583613424565b9150612f7a82613850565b604082019050919050565b6000612f92601f83613424565b9150612f9d8261389f565b602082019050919050565b6000612fb5601683613424565b9150612fc0826138c8565b602082019050919050565b6000612fd8601283613424565b9150612fe3826138f1565b602082019050919050565b6000612ffb601583613424565b91506130068261391a565b602082019050919050565b8082525050565b61302181613579565b82525050565b61303081613579565b82525050565b61303f81613583565b82525050565b61304e81613583565b82525050565b61305d81613583565b82525050565b6000613070828486612e6b565b91508190509392505050565b600061308782612f3f565b9150819050919050565b60006020820190506130a66000830184612d98565b92915050565b60006060820190506130c16000830186612d98565b6130ce6020830185612d98565b6130db6040830184613018565b949350505050565b60006020820190506130f86000830184612e5c565b92915050565b6000602082019050818103600083015261311781612e90565b9050919050565b6000602082019050818103600083015261313781612eb3565b9050919050565b6000602082019050818103600083015261315781612ed6565b9050919050565b6000602082019050818103600083015261317781612ef9565b9050919050565b6000602082019050818103600083015261319781612f1c565b9050919050565b600060208201905081810360008301526131b781612f62565b9050919050565b600060208201905081810360008301526131d781612f85565b9050919050565b600060208201905081810360008301526131f781612fa8565b9050919050565b6000602082019050818103600083015261321781612fcb565b9050919050565b6000602082019050818103600083015261323781612fee565b9050919050565b60006040820190506132536000830185613011565b6132606020830184613027565b9392505050565b600060808201905061327c6000830189613011565b6132896020830188613027565b818103604083015261329c818688612da7565b905081810360608301526132b1818486612dff565b9050979650505050505050565b60006060820190506132d36000830186613011565b6132e06020830185613045565b6132ed6040830184613027565b949350505050565b600060208201905061330a6000830184613018565b92915050565b60006040820190506133256000830185613018565b6133326020830184613018565b9392505050565b600060208201905061334e6000830184613036565b92915050565b600061335e61336f565b905061336a828261359f565b919050565b6000604051905090565b600067ffffffffffffffff821115613394576133936136a8565b5b602082029050919050565b600067ffffffffffffffff8211156133ba576133b96136a8565b5b602082029050919050565b600067ffffffffffffffff8211156133e0576133df6136a8565b5b602082029050919050565b6000819050919050565b6000602082019050919050565b600082825260208201905092915050565b600082825260208201905092915050565b600082825260208201905092915050565b600081905092915050565b600061344f6020840184612b23565b905092915050565b600061346282613579565b915061346d83613579565b9250827fffffffffffffffffffffffffffffffffffffffffffffffffffffffffffffffff038211156134a2576134a161364a565b5b828201905092915050565b60006134b882613579565b91506134c383613579565b9250817fffffffffffffffffffffffffffffffffffffffffffffffffffffffffffffffff04831182151516156134fc576134fb61364a565b5b828202905092915050565b600061351282613579565b915061351d83613579565b9250828210156135305761352f61364a565b5b828203905092915050565b600061354682613559565b9050919050565b60008115159050919050565b600073ffffffffffffffffffffffffffffffffffffffff82169050919050565b6000819050919050565b600060ff82169050919050565b82818337600083830152505050565b6135a8826136d7565b810181811067ffffffffffffffff821117156135c7576135c66136a8565b5b80604052505050565b60006135db82613579565b91507fffffffffffffffffffffffffffffffffffffffffffffffffffffffffffffffff82141561360e5761360d61364a565b5b600182019050919050565b600061362482613579565b915061362f83613579565b92508261363f5761363e613679565b5b828206905092915050565b7f4e487b7100000000000000000000000000000000000000000000000000000000600052601160045260246000fd5b7f4e487b7100000000000000000000000000000000000000000000000000000000600052601260045260246000fd5b7f4e487b7100000000000000000000000000000000000000000000000000000000600052604160045260246000fd5b6000601f19601f8301169050919050565b7f53656d6170686f7265436f72653a20796f752063616e6e6f742075736520746860008201527f652073616d65206e756c6c696669657220747769636500000000000000000000602082015250565b7f53656d6170686f726547726f7570733a2067726f757020616c7265616479206560008201527f7869737473000000000000000000000000000000000000000000000000000000602082015250565b7f53656d6170686f726557686973746c65626c6f77696e673a2063616c6c65722060008201527f6973206e6f742074686520656469746f72000000000000000000000000000000602082015250565b7f76657269666965722d6261642d696e7075740000000000000000000000000000600082015250565b7f70616972696e672d6d756c2d6661696c65640000000000000000000000000000600082015250565b7f53656d6170686f72650000000000000000000000000000000000000000000000600082015250565b7f53656d6170686f726547726f7570733a2067726f757020646f6573206e6f742060008201527f6578697374000000000000000000000000000000000000000000000000000000602082015250565b7f76657269666965722d6774652d736e61726b2d7363616c61722d6669656c6400600082015250565b7f70616972696e672d6c656e677468732d6661696c656400000000000000000000600082015250565b7f70616972696e672d6164642d6661696c65640000000000000000000000000000600082015250565b7f70616972696e672d6f70636f64652d6661696c65640000000000000000000000600082015250565b61394c8161353b565b811461395757600080fd5b50565b61396381613579565b811461396e57600080fd5b50565b61397a81613583565b811461398557600080fd5b5056fea264697066735822122028295ea8ede205ac99c4671d667901b2ec1fce22cb8c957d6c298d1c0e8bdae364736f6c63430008040033",
  "linkReferences": {
    "@zk-kit/incremental-merkle-tree.sol/contracts/IncrementalBinaryTree.sol": {
      "IncrementalBinaryTree": [
        {
          "length": 20,
          "start": 2654
        },
        {
          "length": 20,
          "start": 4421
        },
        {
          "length": 20,
          "start": 4730
        }
      ]
    }
  },
  "deployedLinkReferences": {
    "@zk-kit/incremental-merkle-tree.sol/contracts/IncrementalBinaryTree.sol": {
      "IncrementalBinaryTree": [
        {
          "length": 20,
          "start": 2622
        },
        {
          "length": 20,
          "start": 4389
        },
        {
          "length": 20,
          "start": 4698
        }
      ]
    }
  }
}