{
  "_format": "hh-sol-artifact-1",
  "contractName": "zkStake",
  "sourceName": "contracts/extensions/zkStake.sol",
  "abi": [
    {
      "inputs": [
        {
          "internalType": "address",
          "name": "v",
          "type": "address"
        }
      ],
      "stateMutability": "nonpayable",
      "type": "constructor"
    },
    {
      "anonymous": false,
      "inputs": [
        {
          "indexed": false,
          "internalType": "uint256",
          "name": "entityId",
          "type": "uint256"
        },
        {
          "indexed": true,
          "internalType": "address",
          "name": "editor",
          "type": "address"
        }
      ],
      "name": "EntityCreated",
      "type": "event"
    },
    {
      "anonymous": false,
      "inputs": [
        {
          "indexed": true,
          "internalType": "uint256",
          "name": "groupId",
          "type": "uint256"
        },
        {
          "indexed": false,
          "internalType": "uint8",
          "name": "depth",
          "type": "uint8"
        },
        {
          "indexed": false,
          "internalType": "uint256",
          "name": "zeroValue",
          "type": "uint256"
        }
      ],
      "name": "GroupCreated",
      "type": "event"
    },
    {
      "anonymous": false,
      "inputs": [
        {
          "indexed": true,
          "internalType": "uint256",
          "name": "groupId",
          "type": "uint256"
        },
        {
          "indexed": false,
          "internalType": "uint256",
          "name": "identityCommitment",
          "type": "uint256"
        },
        {
          "indexed": false,
          "internalType": "uint256",
          "name": "root",
          "type": "uint256"
        }
      ],
      "name": "MemberAdded",
      "type": "event"
    },
    {
      "anonymous": false,
      "inputs": [
        {
          "indexed": true,
          "internalType": "uint256",
          "name": "groupId",
          "type": "uint256"
        },
        {
          "indexed": false,
          "internalType": "uint256",
          "name": "identityCommitment",
          "type": "uint256"
        },
        {
          "indexed": false,
          "internalType": "uint256",
          "name": "root",
          "type": "uint256"
        }
      ],
      "name": "MemberRemoved",
      "type": "event"
    },
    {
      "anonymous": false,
      "inputs": [
        {
          "indexed": false,
          "internalType": "uint256",
          "name": "nullifierHash",
          "type": "uint256"
        }
      ],
      "name": "NullifierHashAdded",
      "type": "event"
    },
    {
      "inputs": [
        {
          "internalType": "uint256",
          "name": "entityId",
          "type": "uint256"
        },
        {
          "internalType": "uint256",
          "name": "identityCommitment",
          "type": "uint256"
        },
        {
          "internalType": "uint256",
          "name": "id",
          "type": "uint256"
        }
      ],
      "name": "addDAOIdentity",
      "outputs": [],
      "stateMutability": "nonpayable",
      "type": "function"
    },
    {
      "inputs": [
        {
          "internalType": "uint256",
          "name": "",
          "type": "uint256"
        }
      ],
      "name": "commitmentNFTs",
      "outputs": [
        {
          "internalType": "uint256",
          "name": "",
          "type": "uint256"
        }
      ],
      "stateMutability": "view",
      "type": "function"
    },
    {
      "inputs": [
        {
          "internalType": "uint256",
          "name": "",
          "type": "uint256"
        },
        {
          "internalType": "uint256",
          "name": "",
          "type": "uint256"
        }
      ],
      "name": "commitments",
      "outputs": [
        {
          "internalType": "uint256",
          "name": "",
          "type": "uint256"
        }
      ],
      "stateMutability": "view",
      "type": "function"
    },
    {
      "inputs": [
        {
          "internalType": "uint256",
          "name": "entityId",
          "type": "uint256"
        },
        {
          "internalType": "address",
          "name": "editor",
          "type": "address"
        },
        {
          "internalType": "address",
          "name": "token",
          "type": "address"
        }
      ],
      "name": "createEntity",
      "outputs": [],
      "stateMutability": "nonpayable",
      "type": "function"
    },
    {
      "inputs": [
        {
          "internalType": "uint256",
          "name": "groupId",
          "type": "uint256"
        }
      ],
      "name": "getDepth",
      "outputs": [
        {
          "internalType": "uint8",
          "name": "",
          "type": "uint8"
        }
      ],
      "stateMutability": "view",
      "type": "function"
    },
    {
      "inputs": [
        {
          "internalType": "uint256",
          "name": "groupId",
          "type": "uint256"
        }
      ],
      "name": "getNumberOfLeaves",
      "outputs": [
        {
          "internalType": "uint256",
          "name": "",
          "type": "uint256"
        }
      ],
      "stateMutability": "view",
      "type": "function"
    },
    {
      "inputs": [
        {
          "internalType": "uint256",
          "name": "groupId",
          "type": "uint256"
        }
      ],
      "name": "getRoot",
      "outputs": [
        {
          "internalType": "uint256",
          "name": "",
          "type": "uint256"
        }
      ],
      "stateMutability": "view",
      "type": "function"
    },
    {
      "inputs": [
        {
          "internalType": "uint256",
          "name": "",
          "type": "uint256"
        }
      ],
      "name": "membershipTokens",
      "outputs": [
        {
          "internalType": "address",
          "name": "",
          "type": "address"
        }
      ],
      "stateMutability": "view",
      "type": "function"
    },
    {
      "inputs": [
        {
          "internalType": "address",
          "name": "",
          "type": "address"
        },
        {
          "internalType": "address",
          "name": "",
          "type": "address"
        },
        {
          "internalType": "uint256",
          "name": "",
          "type": "uint256"
        },
        {
          "internalType": "bytes",
          "name": "",
          "type": "bytes"
        }
      ],
      "name": "onERC721Received",
      "outputs": [
        {
          "internalType": "bytes4",
          "name": "",
          "type": "bytes4"
        }
      ],
      "stateMutability": "nonpayable",
      "type": "function"
    },
    {
      "inputs": [
        {
          "internalType": "uint256",
          "name": "entityId",
          "type": "uint256"
        },
        {
          "internalType": "uint256",
          "name": "identityCommitment",
          "type": "uint256"
        },
        {
          "internalType": "uint256[]",
          "name": "proofSiblings",
          "type": "uint256[]"
        },
        {
          "internalType": "uint8[]",
          "name": "proofPathIndices",
          "type": "uint8[]"
        },
        {
          "internalType": "address",
          "name": "receiver",
          "type": "address"
        }
      ],
      "name": "removeDAOIdentity",
      "outputs": [],
      "stateMutability": "nonpayable",
      "type": "function"
    },
    {
      "inputs": [],
      "name": "verifier",
      "outputs": [
        {
          "internalType": "address",
          "name": "",
          "type": "address"
        }
      ],
      "stateMutability": "view",
      "type": "function"
    },
    {
      "inputs": [
        {
          "internalType": "bytes32",
          "name": "challenge",
          "type": "bytes32"
        },
        {
          "internalType": "uint256",
          "name": "nullifierHash",
          "type": "uint256"
        },
        {
          "internalType": "uint256",
          "name": "entityId",
          "type": "uint256"
        },
        {
          "internalType": "uint256[8]",
          "name": "proof",
          "type": "uint256[8]"
        }
      ],
      "name": "verifyIdentityChallenge",
      "outputs": [
        {
          "internalType": "bool",
          "name": "",
          "type": "bool"
        }
      ],
      "stateMutability": "view",
      "type": "function"
    }
  ],
  "bytecode": "0x60806040523480156200001157600080fd5b5060405162001ecf38038062001ecf833981810160405281019062000037919062000096565b80600660006101000a81548173ffffffffffffffffffffffffffffffffffffffff021916908373ffffffffffffffffffffffffffffffffffffffff1602179055505062000110565b6000815190506200009081620000f6565b92915050565b600060208284031215620000a957600080fd5b6000620000b9848285016200007f565b91505092915050565b6000620000cf82620000d6565b9050919050565b600073ffffffffffffffffffffffffffffffffffffffff82169050919050565b6200010181620000c2565b81146200010d57600080fd5b50565b611daf80620001206000396000f3fe608060405234801561001057600080fd5b50600436106100b45760003560e01c80638cdde82e116100715780638cdde82e1461019f5780639b24b3b0146101cf578063b9c78c2b146101ff578063d13e2e601461022f578063d5e712431461025f578063d868b1fd1461028f576100b4565b8063117ada32146100b9578063150b7a02146100d557806317101571146101055780632b7ac3f3146101215780634d56f27d1461013f57806375e618c91461016f575b600080fd5b6100d360048036038101906100ce91906111bf565b6102ab565b005b6100ef60048036038101906100ea919061102c565b610401565b6040516100fc919061173a565b60405180910390f35b61011f600480360381019061011a9190611134565b610415565b005b61012961050b565b6040516101369190611686565b60405180910390f35b6101596004803603810190610154919061110b565b610531565b6040516101669190611686565b60405180910390f35b6101896004803603810190610184919061110b565b610564565b60405161019691906118f0565b60405180910390f35b6101b960048036038101906101b4919061110b565b610591565b6040516101c691906118ac565b60405180910390f35b6101e960048036038101906101e4919061110b565b6105a9565b6040516101f691906118ac565b60405180910390f35b6102196004803603810190610214919061110b565b6105c9565b60405161022691906118ac565b60405180910390f35b61024960048036038101906102449190611183565b6105e9565b60405161025691906118ac565b60405180910390f35b610279600480360381019061027491906110a7565b61061a565b604051610286919061171f565b60405180910390f35b6102a960048036038101906102a4919061126f565b610671565b005b86600260006102b8610774565b73ffffffffffffffffffffffffffffffffffffffff1673ffffffffffffffffffffffffffffffffffffffff168152602001908152602001600020548114610334576040517f08c379a000000000000000000000000000000000000000000000000000000000815260040161032b90611795565b60405180910390fd5b61034288888888888861077c565b6003600089815260200190815260200160002060009054906101000a900473ffffffffffffffffffffffffffffffffffffffff1673ffffffffffffffffffffffffffffffffffffffff166342842e0e3084600460008d8152602001908152602001600020546040518463ffffffff1660e01b81526004016103c5939291906116a1565b600060405180830381600087803b1580156103df57600080fd5b505af11580156103f3573d6000803e3d6000fd5b505050505050505050505050565b600063150b7a0260e01b9050949350505050565b61042283600060146108a0565b82600260008473ffffffffffffffffffffffffffffffffffffffff1673ffffffffffffffffffffffffffffffffffffffff16815260200190815260200160002081905550806003600085815260200190815260200160002060006101000a81548173ffffffffffffffffffffffffffffffffffffffff021916908373ffffffffffffffffffffffffffffffffffffffff1602179055508173ffffffffffffffffffffffffffffffffffffffff167f5340f46ccfdbf46cea681e7481c711c8838cbcda1356cab6f31a2d0b2cd3525a846040516104fe91906118ac565b60405180910390a2505050565b600660009054906101000a900473ffffffffffffffffffffffffffffffffffffffff1681565b60036020528060005260406000206000915054906101000a900473ffffffffffffffffffffffffffffffffffffffff1681565b60006001600083815260200190815260200160002060000160009054906101000a900460ff169050919050565b60046020528060005260406000206000915090505481565b600060016000838152602001908152602001600020600101549050919050565b600060016000838152602001908152602001600020600201549050919050565b6005602052816000526040600020818154811061060557600080fd5b90600052602060002001600091509150505481565b600080610663866001600087815260200190815260200160002060010154878787600660009054906101000a900473ffffffffffffffffffffffffffffffffffffffff16610a0e565b905080915050949350505050565b6003600084815260200190815260200160002060009054906101000a900473ffffffffffffffffffffffffffffffffffffffff1673ffffffffffffffffffffffffffffffffffffffff166342842e0e3330846040518463ffffffff1660e01b81526004016106e1939291906116a1565b600060405180830381600087803b1580156106fb57600080fd5b505af115801561070f573d6000803e3d6000fd5b505050506005600084815260200190815260200160002082908060018154018082558091505060019003906000526020600020016000909190919091505580600460008581526020019081526020016000208190555061076f8383610d6f565b505050565b600033905090565b600061078787610564565b60ff1614156107cb576040517f08c379a00000000000000000000000000000000000000000000000000000000081526004016107c2906117b5565b60405180910390fd5b6001600087815260200190815260200160002073__$4c0484323457fe1a856f46a4759b553fe4$__630629596f909187878787876040518763ffffffff1660e01b81526004016108209695949392919061181e565b60006040518083038186803b15801561083857600080fd5b505af415801561084c573d6000803e3d6000fd5b50505050600061085b876105a9565b9050867fe270325ded177064d7bda473e6519ef40a291058c41286f71a6e4872f1e9ab5c878360405161088f9291906118c7565b60405180910390a250505050505050565b7f30644e72e131a029b85045b68181585d2833e84879b9709143e1f593f00000018310610902576040517f08c379a00000000000000000000000000000000000000000000000000000000081526004016108f9906117d5565b60405180910390fd5b600061090d84610564565b60ff1614610950576040517f08c379a000000000000000000000000000000000000000000000000000000000815260040161094790611775565b60405180910390fd5b6001600084815260200190815260200160002073__$4c0484323457fe1a856f46a4759b553fe4$__63b4bdd117909184846040518463ffffffff1660e01b815260040161099f93929190611875565b60006040518083038186803b1580156109b757600080fd5b505af41580156109cb573d6000803e3d6000fd5b50505050827fc3082aa494e9088c2c9f0fb62a0b6bd46e6699acb94cfba35be29b95a93f68c88383604051610a0192919061190b565b60405180910390a2505050565b600080600086815260200190815260200160002060009054906101000a900460ff1615610a70576040517f08c379a0000000000000000000000000000000000000000000000000000000008152600401610a6790611755565b60405180910390fd5b6000610a7b88610e87565b90508273ffffffffffffffffffffffffffffffffffffffff16635fe8c13b604051806040016040528087600060088110610ade577f4e487b7100000000000000000000000000000000000000000000000000000000600052603260045260246000fd5b6020020135815260200187600160088110610b22577f4e487b7100000000000000000000000000000000000000000000000000000000600052603260045260246000fd5b6020020135815250604051806040016040528060405180604001604052808a600260088110610b7a577f4e487b7100000000000000000000000000000000000000000000000000000000600052603260045260246000fd5b602002013581526020018a600360088110610bbe577f4e487b7100000000000000000000000000000000000000000000000000000000600052603260045260246000fd5b6020020135815250815260200160405180604001604052808a600460088110610c10577f4e487b7100000000000000000000000000000000000000000000000000000000600052603260045260246000fd5b602002013581526020018a600560088110610c54577f4e487b7100000000000000000000000000000000000000000000000000000000600052603260045260246000fd5b6020020135815250815250604051806040016040528089600660088110610ca4577f4e487b7100000000000000000000000000000000000000000000000000000000600052603260045260246000fd5b6020020135815260200189600760088110610ce8577f4e487b7100000000000000000000000000000000000000000000000000000000600052603260045260246000fd5b602002013581525060405180608001604052808d81526020018c81526020018781526020018b8152506040518563ffffffff1660e01b8152600401610d3094939291906116d8565b60006040518083038186803b158015610d4857600080fd5b505afa158015610d5c573d6000803e3d6000fd5b5050505060019150509695505050505050565b6000610d7a83610564565b60ff161415610dbe576040517f08c379a0000000000000000000000000000000000000000000000000000000008152600401610db5906117b5565b60405180910390fd5b6001600083815260200190815260200160002073__$4c0484323457fe1a856f46a4759b553fe4$__63168703fa9091836040518363ffffffff1660e01b8152600401610e0b9291906117f5565b60006040518083038186803b158015610e2357600080fd5b505af4158015610e37573d6000803e3d6000fd5b505050506000610e46836105a9565b9050827f03fd27265b7dd1f55558bedc22a58fa3b10afb1be776e614bd5a7ba7b94994068383604051610e7a9291906118c7565b60405180910390a2505050565b6000600882604051602001610e9c919061166b565b6040516020818303038152906040528051906020012060001c901c9050919050565b6000610ed1610ecc84611959565b611934565b905082815260208101848484011115610ee957600080fd5b610ef4848285611b08565b509392505050565b600081359050610f0b81611d1d565b92915050565b600081905082602060080282011115610f2957600080fd5b92915050565b60008083601f840112610f4157600080fd5b8235905067ffffffffffffffff811115610f5a57600080fd5b602083019150836020820283011115610f7257600080fd5b9250929050565b60008083601f840112610f8b57600080fd5b8235905067ffffffffffffffff811115610fa457600080fd5b602083019150836020820283011115610fbc57600080fd5b9250929050565b600081359050610fd281611d34565b92915050565b600082601f830112610fe957600080fd5b8135610ff9848260208601610ebe565b91505092915050565b60008135905061101181611d4b565b92915050565b60008135905061102681611d62565b92915050565b6000806000806080858703121561104257600080fd5b600061105087828801610efc565b945050602061106187828801610efc565b935050604061107287828801611002565b925050606085013567ffffffffffffffff81111561108f57600080fd5b61109b87828801610fd8565b91505092959194509250565b60008060008061016085870312156110be57600080fd5b60006110cc87828801610fc3565b94505060206110dd87828801611002565b93505060406110ee87828801611002565b92505060606110ff87828801610f11565b91505092959194509250565b60006020828403121561111d57600080fd5b600061112b84828501611002565b91505092915050565b60008060006060848603121561114957600080fd5b600061115786828701611002565b935050602061116886828701610efc565b925050604061117986828701610efc565b9150509250925092565b6000806040838503121561119657600080fd5b60006111a485828601611002565b92505060206111b585828601611002565b9150509250929050565b600080600080600080600060a0888a0312156111da57600080fd5b60006111e88a828b01611002565b97505060206111f98a828b01611002565b965050604088013567ffffffffffffffff81111561121657600080fd5b6112228a828b01610f2f565b9550955050606088013567ffffffffffffffff81111561124157600080fd5b61124d8a828b01610f79565b935093505060806112608a828b01610efc565b91505092959891949750929550565b60008060006060848603121561128457600080fd5b600061129286828701611002565b93505060206112a386828701611002565b92505060406112b486828701611002565b9150509250925092565b60006112ca838361136c565b60408301905092915050565b60006112e28383611611565b60208301905092915050565b60006112fa838361165c565b60208301905092915050565b61130f81611a7d565b82525050565b61131e816119b2565b6113288184611a07565b92506113338261198a565b8060005b8381101561136457815161134b87826112be565b9650611356836119d3565b925050600181019050611337565b505050505050565b611375816119bd565b61137f8184611a12565b925061138a82611994565b8060005b838110156113bb5781516113a287826112d6565b96506113ad836119e0565b92505060018101905061138e565b505050505050565b6113cc816119bd565b6113d68184611a1d565b92506113e182611994565b8060005b838110156114125781516113f987826112d6565b9650611404836119e0565b9250506001810190506113e5565b505050505050565b611423816119c8565b61142d8184611a28565b92506114388261199e565b8060005b8381101561146957815161145087826112d6565b965061145b836119ed565b92505060018101905061143c565b505050505050565b600061147d8385611a33565b93507f07ffffffffffffffffffffffffffffffffffffffffffffffffffffffffffffff8311156114ac57600080fd5b6020830292506114bd838584611b08565b82840190509392505050565b60006114d58385611a44565b93506114e0826119a8565b8060005b85811015611519576114f68284611a66565b61150088826112ee565b975061150b836119fa565b9250506001810190506114e4565b5085925050509392505050565b61152f81611a8f565b82525050565b61154661154182611a9b565b611b48565b82525050565b61155581611aa5565b82525050565b6000611568603683611a55565b915061157382611b92565b604082019050919050565b600061158b602583611a55565b915061159682611be1565b604082019050919050565b60006115ae603183611a55565b91506115b982611c30565b604082019050919050565b60006115d1602583611a55565b91506115dc82611c7f565b604082019050919050565b60006115f4603683611a55565b91506115ff82611cce565b604082019050919050565b8082525050565b61161a81611af1565b82525050565b61162981611af1565b82525050565b61163881611af1565b82525050565b61164781611afb565b82525050565b61165681611afb565b82525050565b61166581611afb565b82525050565b60006116778284611535565b60208201915081905092915050565b600060208201905061169b6000830184611306565b92915050565b60006060820190506116b66000830186611306565b6116c36020830185611306565b6116d06040830184611620565b949350505050565b6000610180820190506116ee60008301876113c3565b6116fb6040830186611315565b61170860c08301856113c3565b61171661010083018461141a565b95945050505050565b60006020820190506117346000830184611526565b92915050565b600060208201905061174f600083018461154c565b92915050565b6000602082019050818103600083015261176e8161155b565b9050919050565b6000602082019050818103600083015261178e8161157e565b9050919050565b600060208201905081810360008301526117ae816115a1565b9050919050565b600060208201905081810360008301526117ce816115c4565b9050919050565b600060208201905081810360008301526117ee816115e7565b9050919050565b600060408201905061180a600083018561160a565b611817602083018461162f565b9392505050565b6000608082019050611833600083018961160a565b611840602083018861162f565b8181036040830152611853818688611471565b905081810360608301526118688184866114c9565b9050979650505050505050565b600060608201905061188a600083018661160a565b611897602083018561164d565b6118a4604083018461162f565b949350505050565b60006020820190506118c16000830184611620565b92915050565b60006040820190506118dc6000830185611620565b6118e96020830184611620565b9392505050565b6000602082019050611905600083018461163e565b92915050565b6000604082019050611920600083018561163e565b61192d6020830184611620565b9392505050565b600061193e61194f565b905061194a8282611b17565b919050565b6000604051905090565b600067ffffffffffffffff82111561197457611973611b52565b5b61197d82611b81565b9050602081019050919050565b6000819050919050565b6000819050919050565b6000819050919050565b6000819050919050565b600060029050919050565b600060029050919050565b600060049050919050565b6000602082019050919050565b6000602082019050919050565b6000602082019050919050565b6000602082019050919050565b600081905092915050565b600081905092915050565b600081905092915050565b600081905092915050565b600082825260208201905092915050565b600082825260208201905092915050565b600082825260208201905092915050565b6000611a756020840184611017565b905092915050565b6000611a8882611ad1565b9050919050565b60008115159050919050565b6000819050919050565b60007fffffffff0000000000000000000000000000000000000000000000000000000082169050919050565b600073ffffffffffffffffffffffffffffffffffffffff82169050919050565b6000819050919050565b600060ff82169050919050565b82818337600083830152505050565b611b2082611b81565b810181811067ffffffffffffffff82111715611b3f57611b3e611b52565b5b80604052505050565b6000819050919050565b7f4e487b7100000000000000000000000000000000000000000000000000000000600052604160045260246000fd5b6000601f19601f8301169050919050565b7f53656d6170686f7265436f72653a20796f752063616e6e6f742075736520746860008201527f652073616d65206e756c6c696669657220747769636500000000000000000000602082015250565b7f53656d6170686f726547726f7570733a2067726f757020616c7265616479206560008201527f7869737473000000000000000000000000000000000000000000000000000000602082015250565b7f53656d6170686f726557686973746c65626c6f77696e673a2063616c6c65722060008201527f6973206e6f742074686520656469746f72000000000000000000000000000000602082015250565b7f53656d6170686f726547726f7570733a2067726f757020646f6573206e6f742060008201527f6578697374000000000000000000000000000000000000000000000000000000602082015250565b7f53656d6170686f726547726f7570733a2067726f7570206964206d757374206260008201527f65203c20534e41524b5f5343414c41525f4649454c4400000000000000000000602082015250565b611d2681611a7d565b8114611d3157600080fd5b50565b611d3d81611a9b565b8114611d4857600080fd5b50565b611d5481611af1565b8114611d5f57600080fd5b50565b611d6b81611afb565b8114611d7657600080fd5b5056fea2646970667358221220d77188a2e1ec5e0fa56e85e685a0bc8f73f8615612488774b9a082fbced696eb64736f6c63430008040033",
  "linkReferences": {
    "@zk-kit/incremental-merkle-tree.sol/contracts/IncrementalBinaryTree.sol": {
      "IncrementalBinaryTree": [
        {
          "length": 20,
          "start": 2304
        },
        {
          "length": 20,
          "start": 2693
        },
        {
          "length": 20,
          "start": 3827
        }
      ]
    }
  },
  "deployedLinkReferences": {
    "@zk-kit/incremental-merkle-tree.sol/contracts/IncrementalBinaryTree.sol": {
      "IncrementalBinaryTree": [
        {
          "length": 20,
          "start": 2016
        },
        {
          "length": 20,
          "start": 2405
        },
        {
          "length": 20,
          "start": 3539
        }
      ]
    }
  }
}