{
  "_format": "hh-sol-artifact-1",
  "contractName": "testStake",
  "sourceName": "contracts/extensions/testStake.sol",
  "abi": [
    {
      "inputs": [
        {
          "internalType": "address",
          "name": "v",
          "type": "address"
        }
      ],
      "stateMutability": "nonpayable",
      "type": "constructor"
    },
    {
      "anonymous": false,
      "inputs": [
        {
          "indexed": false,
          "internalType": "uint256",
          "name": "entityId",
          "type": "uint256"
        },
        {
          "indexed": true,
          "internalType": "address",
          "name": "editor",
          "type": "address"
        }
      ],
      "name": "EntityCreated",
      "type": "event"
    },
    {
      "anonymous": false,
      "inputs": [
        {
          "indexed": true,
          "internalType": "uint256",
          "name": "groupId",
          "type": "uint256"
        },
        {
          "indexed": false,
          "internalType": "uint8",
          "name": "depth",
          "type": "uint8"
        },
        {
          "indexed": false,
          "internalType": "uint256",
          "name": "zeroValue",
          "type": "uint256"
        }
      ],
      "name": "GroupCreated",
      "type": "event"
    },
    {
      "anonymous": false,
      "inputs": [
        {
          "indexed": true,
          "internalType": "uint256",
          "name": "groupId",
          "type": "uint256"
        },
        {
          "indexed": false,
          "internalType": "uint256",
          "name": "identityCommitment",
          "type": "uint256"
        },
        {
          "indexed": false,
          "internalType": "uint256",
          "name": "root",
          "type": "uint256"
        }
      ],
      "name": "MemberAdded",
      "type": "event"
    },
    {
      "anonymous": false,
      "inputs": [
        {
          "indexed": true,
          "internalType": "uint256",
          "name": "groupId",
          "type": "uint256"
        },
        {
          "indexed": false,
          "internalType": "uint256",
          "name": "identityCommitment",
          "type": "uint256"
        },
        {
          "indexed": false,
          "internalType": "uint256",
          "name": "root",
          "type": "uint256"
        }
      ],
      "name": "MemberRemoved",
      "type": "event"
    },
    {
      "anonymous": false,
      "inputs": [
        {
          "indexed": false,
          "internalType": "uint256",
          "name": "nullifierHash",
          "type": "uint256"
        }
      ],
      "name": "NullifierHashAdded",
      "type": "event"
    },
    {
      "inputs": [
        {
          "internalType": "uint256",
          "name": "entityId",
          "type": "uint256"
        },
        {
          "internalType": "uint256",
          "name": "identityCommitment",
          "type": "uint256"
        }
      ],
      "name": "addDAOIdentity",
      "outputs": [],
      "stateMutability": "nonpayable",
      "type": "function"
    },
    {
      "inputs": [
        {
          "internalType": "uint256",
          "name": "",
          "type": "uint256"
        },
        {
          "internalType": "uint256",
          "name": "",
          "type": "uint256"
        }
      ],
      "name": "commitments",
      "outputs": [
        {
          "internalType": "uint256",
          "name": "",
          "type": "uint256"
        }
      ],
      "stateMutability": "view",
      "type": "function"
    },
    {
      "inputs": [
        {
          "internalType": "uint256",
          "name": "entityId",
          "type": "uint256"
        },
        {
          "internalType": "address",
          "name": "editor",
          "type": "address"
        }
      ],
      "name": "createEntity",
      "outputs": [],
      "stateMutability": "nonpayable",
      "type": "function"
    },
    {
      "inputs": [
        {
          "internalType": "uint256",
          "name": "groupId",
          "type": "uint256"
        }
      ],
      "name": "getDepth",
      "outputs": [
        {
          "internalType": "uint8",
          "name": "",
          "type": "uint8"
        }
      ],
      "stateMutability": "view",
      "type": "function"
    },
    {
      "inputs": [
        {
          "internalType": "string",
          "name": "challenge",
          "type": "string"
        }
      ],
      "name": "getEncodedChallenge",
      "outputs": [
        {
          "internalType": "bytes32",
          "name": "",
          "type": "bytes32"
        }
      ],
      "stateMutability": "view",
      "type": "function"
    },
    {
      "inputs": [
        {
          "internalType": "uint256",
          "name": "g",
          "type": "uint256"
        }
      ],
      "name": "getGroupCommitments",
      "outputs": [
        {
          "internalType": "uint256[]",
          "name": "",
          "type": "uint256[]"
        }
      ],
      "stateMutability": "view",
      "type": "function"
    },
    {
      "inputs": [
        {
          "internalType": "uint256",
          "name": "groupId",
          "type": "uint256"
        }
      ],
      "name": "getNumberOfLeaves",
      "outputs": [
        {
          "internalType": "uint256",
          "name": "",
          "type": "uint256"
        }
      ],
      "stateMutability": "view",
      "type": "function"
    },
    {
      "inputs": [
        {
          "internalType": "uint256",
          "name": "groupId",
          "type": "uint256"
        }
      ],
      "name": "getRoot",
      "outputs": [
        {
          "internalType": "uint256",
          "name": "",
          "type": "uint256"
        }
      ],
      "stateMutability": "view",
      "type": "function"
    },
    {
      "inputs": [
        {
          "internalType": "uint256",
          "name": "entityId",
          "type": "uint256"
        },
        {
          "internalType": "uint256",
          "name": "identityCommitment",
          "type": "uint256"
        },
        {
          "internalType": "uint256[]",
          "name": "proofSiblings",
          "type": "uint256[]"
        },
        {
          "internalType": "uint8[]",
          "name": "proofPathIndices",
          "type": "uint8[]"
        }
      ],
      "name": "removeDAOIdentity",
      "outputs": [],
      "stateMutability": "nonpayable",
      "type": "function"
    },
    {
      "inputs": [
        {
          "internalType": "bytes32",
          "name": "challenge",
          "type": "bytes32"
        },
        {
          "internalType": "uint256",
          "name": "nullifierHash",
          "type": "uint256"
        },
        {
          "internalType": "uint256",
          "name": "entityId",
          "type": "uint256"
        },
        {
          "internalType": "uint256[8]",
          "name": "proof",
          "type": "uint256[8]"
        }
      ],
      "name": "verifyIdentityChallenge",
      "outputs": [
        {
          "internalType": "bool",
          "name": "",
          "type": "bool"
        }
      ],
      "stateMutability": "view",
      "type": "function"
    }
  ],
  "bytecode": "0x60806040523480156200001157600080fd5b5060405162001cd138038062001cd1833981810160405281019062000037919062000096565b80600460006101000a81548173ffffffffffffffffffffffffffffffffffffffff021916908373ffffffffffffffffffffffffffffffffffffffff1602179055505062000110565b6000815190506200009081620000f6565b92915050565b600060208284031215620000a957600080fd5b6000620000b9848285016200007f565b91505092915050565b6000620000cf82620000d6565b9050919050565b600073ffffffffffffffffffffffffffffffffffffffff82169050919050565b6200010181620000c2565b81146200010d57600080fd5b50565b611bb180620001206000396000f3fe608060405234801561001057600080fd5b506004361061009e5760003560e01c8063b9c78c2b11610066578063b9c78c2b1461017f578063bbad6128146101af578063d13e2e60146101cb578063d5e71243146101fb578063da3eea051461022b5761009e565b806305279f8e146100a357806313ccc8c0146100d35780632af75087146100ef57806375e618c91461011f5780639b24b3b01461014f575b600080fd5b6100bd60048036038101906100b89190610ebf565b610247565b6040516100ca9190611492565b60405180910390f35b6100ed60048036038101906100e89190610ee8565b6102b2565b005b61010960048036038101906101049190610e7e565b610355565b60405161011691906114cf565b60405180910390f35b61013960048036038101906101349190610ebf565b610385565b60405161014691906116a7565b60405180910390f35b61016960048036038101906101649190610ebf565b6103b2565b6040516101769190611663565b60405180910390f35b61019960048036038101906101949190610ebf565b6103d2565b6040516101a69190611663565b60405180910390f35b6101c960048036038101906101c49190610f24565b6103f2565b005b6101e560048036038101906101e09190610f24565b61043a565b6040516101f29190611663565b60405180910390f35b61021560048036038101906102109190610e1a565b61046b565b60405161022291906114b4565b60405180910390f35b61024560048036038101906102409190610f60565b6104c2565b005b6060600360008381526020019081526020016000208054806020026020016040519081016040528092919081815260200182805480156102a657602002820191906000526020600020905b815481526020019060010190808311610292575b50505050509050919050565b6102bf8260146000610562565b81600260008373ffffffffffffffffffffffffffffffffffffffff1673ffffffffffffffffffffffffffffffffffffffff168152602001908152602001600020819055508073ffffffffffffffffffffffffffffffffffffffff167f5340f46ccfdbf46cea681e7481c711c8838cbcda1356cab6f31a2d0b2cd3525a836040516103499190611663565b60405180910390a25050565b60008160405160200161036891906114ea565b604051602081830303815290604052805190602001209050919050565b60006001600083815260200190815260200160002060000160009054906101000a900460ff169050919050565b600060016000838152602001908152602001600020600101549050919050565b600060016000838152602001908152602001600020600201549050919050565b6103fc82826106d0565b600360008381526020019081526020016000208190806001815401808255809150506001900390600052602060002001600090919091909150555050565b6003602052816000526040600020818154811061045657600080fd5b90600052602060002001600091509150505481565b6000806104b4866001600087815260200190815260200160002060010154878787600460009054906101000a900473ffffffffffffffffffffffffffffffffffffffff166107e8565b905080915050949350505050565b85600260006104cf610b49565b73ffffffffffffffffffffffffffffffffffffffff1673ffffffffffffffffffffffffffffffffffffffff16815260200190815260200160002054811461054b576040517f08c379a00000000000000000000000000000000000000000000000000000000081526004016105429061154c565b60405180910390fd5b610559878787878787610b51565b50505050505050565b7f30644e72e131a029b85045b68181585d2833e84879b9709143e1f593f000000183106105c4576040517f08c379a00000000000000000000000000000000000000000000000000000000081526004016105bb9061158c565b60405180910390fd5b60006105cf84610385565b60ff1614610612576040517f08c379a00000000000000000000000000000000000000000000000000000000081526004016106099061152c565b60405180910390fd5b6001600084815260200190815260200160002073__$4c0484323457fe1a856f46a4759b553fe4$__63b4bdd117909184846040518463ffffffff1660e01b81526004016106619392919061162c565b60006040518083038186803b15801561067957600080fd5b505af415801561068d573d6000803e3d6000fd5b50505050827fc3082aa494e9088c2c9f0fb62a0b6bd46e6699acb94cfba35be29b95a93f68c883836040516106c39291906116c2565b60405180910390a2505050565b60006106db83610385565b60ff16141561071f576040517f08c379a00000000000000000000000000000000000000000000000000000000081526004016107169061156c565b60405180910390fd5b6001600083815260200190815260200160002073__$4c0484323457fe1a856f46a4759b553fe4$__63168703fa9091836040518363ffffffff1660e01b815260040161076c9291906115ac565b60006040518083038186803b15801561078457600080fd5b505af4158015610798573d6000803e3d6000fd5b5050505060006107a7836103b2565b9050827f03fd27265b7dd1f55558bedc22a58fa3b10afb1be776e614bd5a7ba7b949940683836040516107db92919061167e565b60405180910390a2505050565b600080600086815260200190815260200160002060009054906101000a900460ff161561084a576040517f08c379a00000000000000000000000000000000000000000000000000000000081526004016108419061150c565b60405180910390fd5b600061085588610c75565b90508273ffffffffffffffffffffffffffffffffffffffff16635fe8c13b6040518060400160405280876000600881106108b8577f4e487b7100000000000000000000000000000000000000000000000000000000600052603260045260246000fd5b60200201358152602001876001600881106108fc577f4e487b7100000000000000000000000000000000000000000000000000000000600052603260045260246000fd5b6020020135815250604051806040016040528060405180604001604052808a600260088110610954577f4e487b7100000000000000000000000000000000000000000000000000000000600052603260045260246000fd5b602002013581526020018a600360088110610998577f4e487b7100000000000000000000000000000000000000000000000000000000600052603260045260246000fd5b6020020135815250815260200160405180604001604052808a6004600881106109ea577f4e487b7100000000000000000000000000000000000000000000000000000000600052603260045260246000fd5b602002013581526020018a600560088110610a2e577f4e487b7100000000000000000000000000000000000000000000000000000000600052603260045260246000fd5b6020020135815250815250604051806040016040528089600660088110610a7e577f4e487b7100000000000000000000000000000000000000000000000000000000600052603260045260246000fd5b6020020135815260200189600760088110610ac2577f4e487b7100000000000000000000000000000000000000000000000000000000600052603260045260246000fd5b602002013581525060405180608001604052808d81526020018c81526020018781526020018b8152506040518563ffffffff1660e01b8152600401610b0a949392919061144b565b60006040518083038186803b158015610b2257600080fd5b505afa158015610b36573d6000803e3d6000fd5b5050505060019150509695505050505050565b600033905090565b6000610b5c87610385565b60ff161415610ba0576040517f08c379a0000000000000000000000000000000000000000000000000000000008152600401610b979061156c565b60405180910390fd5b6001600087815260200190815260200160002073__$4c0484323457fe1a856f46a4759b553fe4$__630629596f909187878787876040518763ffffffff1660e01b8152600401610bf5969594939291906115d5565b60006040518083038186803b158015610c0d57600080fd5b505af4158015610c21573d6000803e3d6000fd5b505050506000610c30876103b2565b9050867fe270325ded177064d7bda473e6519ef40a291058c41286f71a6e4872f1e9ab5c8783604051610c6492919061167e565b60405180910390a250505050505050565b6000600882604051602001610c8a9190611430565b6040516020818303038152906040528051906020012060001c901c9050919050565b6000610cbf610cba84611710565b6116eb565b905082815260208101848484011115610cd757600080fd5b610ce28482856118d7565b509392505050565b600081359050610cf981611b1f565b92915050565b600081905082602060080282011115610d1757600080fd5b92915050565b60008083601f840112610d2f57600080fd5b8235905067ffffffffffffffff811115610d4857600080fd5b602083019150836020820283011115610d6057600080fd5b9250929050565b60008083601f840112610d7957600080fd5b8235905067ffffffffffffffff811115610d9257600080fd5b602083019150836020820283011115610daa57600080fd5b9250929050565b600081359050610dc081611b36565b92915050565b600082601f830112610dd757600080fd5b8135610de7848260208601610cac565b91505092915050565b600081359050610dff81611b4d565b92915050565b600081359050610e1481611b64565b92915050565b6000806000806101608587031215610e3157600080fd5b6000610e3f87828801610db1565b9450506020610e5087828801610df0565b9350506040610e6187828801610df0565b9250506060610e7287828801610cff565b91505092959194509250565b600060208284031215610e9057600080fd5b600082013567ffffffffffffffff811115610eaa57600080fd5b610eb684828501610dc6565b91505092915050565b600060208284031215610ed157600080fd5b6000610edf84828501610df0565b91505092915050565b60008060408385031215610efb57600080fd5b6000610f0985828601610df0565b9250506020610f1a85828601610cea565b9150509250929050565b60008060408385031215610f3757600080fd5b6000610f4585828601610df0565b9250506020610f5685828601610df0565b9150509250929050565b60008060008060008060808789031215610f7957600080fd5b6000610f8789828a01610df0565b9650506020610f9889828a01610df0565b955050604087013567ffffffffffffffff811115610fb557600080fd5b610fc189828a01610d1d565b9450945050606087013567ffffffffffffffff811115610fe057600080fd5b610fec89828a01610d67565b92509250509295509295509295565b6000611007838361109a565b60408301905092915050565b600061101f83836113d6565b60208301905092915050565b60006110378383611421565b60208301905092915050565b61104c81611779565b61105681846117f1565b925061106182611741565b8060005b838110156110925781516110798782610ffb565b9650611084836117b0565b925050600181019050611065565b505050505050565b6110a381611784565b6110ad81846117fc565b92506110b88261174b565b8060005b838110156110e95781516110d08782611013565b96506110db836117bd565b9250506001810190506110bc565b505050505050565b6110fa81611784565b6111048184611807565b925061110f8261174b565b8060005b838110156111405781516111278782611013565b9650611132836117bd565b925050600181019050611113565b505050505050565b6111518161178f565b61115b8184611812565b925061116682611755565b8060005b8381101561119757815161117e8782611013565b9650611189836117ca565b92505060018101905061116a565b505050505050565b60006111ab838561182e565b93507f07ffffffffffffffffffffffffffffffffffffffffffffffffffffffffffffff8311156111da57600080fd5b6020830292506111eb8385846118d7565b82840190509392505050565b60006112028261179a565b61120c818561181d565b93506112178361175f565b8060005b8381101561124857815161122f8882611013565b975061123a836117d7565b92505060018101905061121b565b5085935050505092915050565b6000611261838561183f565b935061126c8261176f565b8060005b858110156112a5576112828284611861565b61128c888261102b565b9750611297836117e4565b925050600181019050611270565b5085925050509392505050565b6112bb8161188a565b82525050565b6112ca81611896565b82525050565b6112e16112dc82611896565b61194a565b82525050565b60006112f2826117a5565b6112fc8185611850565b935061130c8185602086016118e6565b61131581611983565b840191505092915050565b600061132d603683611850565b915061133882611994565b604082019050919050565b6000611350602583611850565b915061135b826119e3565b604082019050919050565b6000611373603183611850565b915061137e82611a32565b604082019050919050565b6000611396602583611850565b91506113a182611a81565b604082019050919050565b60006113b9603683611850565b91506113c482611ad0565b604082019050919050565b8082525050565b6113df816118c0565b82525050565b6113ee816118c0565b82525050565b6113fd816118c0565b82525050565b61140c816118ca565b82525050565b61141b816118ca565b82525050565b61142a816118ca565b82525050565b600061143c82846112d0565b60208201915081905092915050565b60006101808201905061146160008301876110f1565b61146e6040830186611043565b61147b60c08301856110f1565b611489610100830184611148565b95945050505050565b600060208201905081810360008301526114ac81846111f7565b905092915050565b60006020820190506114c960008301846112b2565b92915050565b60006020820190506114e460008301846112c1565b92915050565b6000602082019050818103600083015261150481846112e7565b905092915050565b6000602082019050818103600083015261152581611320565b9050919050565b6000602082019050818103600083015261154581611343565b9050919050565b6000602082019050818103600083015261156581611366565b9050919050565b6000602082019050818103600083015261158581611389565b9050919050565b600060208201905081810360008301526115a5816113ac565b9050919050565b60006040820190506115c160008301856113cf565b6115ce60208301846113f4565b9392505050565b60006080820190506115ea60008301896113cf565b6115f760208301886113f4565b818103604083015261160a81868861119f565b9050818103606083015261161f818486611255565b9050979650505050505050565b600060608201905061164160008301866113cf565b61164e6020830185611412565b61165b60408301846113f4565b949350505050565b600060208201905061167860008301846113e5565b92915050565b600060408201905061169360008301856113e5565b6116a060208301846113e5565b9392505050565b60006020820190506116bc6000830184611403565b92915050565b60006040820190506116d76000830185611403565b6116e460208301846113e5565b9392505050565b60006116f5611706565b90506117018282611919565b919050565b6000604051905090565b600067ffffffffffffffff82111561172b5761172a611954565b5b61173482611983565b9050602081019050919050565b6000819050919050565b6000819050919050565b6000819050919050565b6000819050602082019050919050565b6000819050919050565b600060029050919050565b600060029050919050565b600060049050919050565b600081519050919050565b600081519050919050565b6000602082019050919050565b6000602082019050919050565b6000602082019050919050565b6000602082019050919050565b6000602082019050919050565b600081905092915050565b600081905092915050565b600081905092915050565b600081905092915050565b600082825260208201905092915050565b600082825260208201905092915050565b600082825260208201905092915050565b600082825260208201905092915050565b60006118706020840184610e05565b905092915050565b6000611883826118a0565b9050919050565b60008115159050919050565b6000819050919050565b600073ffffffffffffffffffffffffffffffffffffffff82169050919050565b6000819050919050565b600060ff82169050919050565b82818337600083830152505050565b60005b838110156119045780820151818401526020810190506118e9565b83811115611913576000848401525b50505050565b61192282611983565b810181811067ffffffffffffffff8211171561194157611940611954565b5b80604052505050565b6000819050919050565b7f4e487b7100000000000000000000000000000000000000000000000000000000600052604160045260246000fd5b6000601f19601f8301169050919050565b7f53656d6170686f7265436f72653a20796f752063616e6e6f742075736520746860008201527f652073616d65206e756c6c696669657220747769636500000000000000000000602082015250565b7f53656d6170686f726547726f7570733a2067726f757020616c7265616479206560008201527f7869737473000000000000000000000000000000000000000000000000000000602082015250565b7f53656d6170686f726557686973746c65626c6f77696e673a2063616c6c65722060008201527f6973206e6f742074686520656469746f72000000000000000000000000000000602082015250565b7f53656d6170686f726547726f7570733a2067726f757020646f6573206e6f742060008201527f6578697374000000000000000000000000000000000000000000000000000000602082015250565b7f53656d6170686f726547726f7570733a2067726f7570206964206d757374206260008201527f65203c20534e41524b5f5343414c41525f4649454c4400000000000000000000602082015250565b611b2881611878565b8114611b3357600080fd5b50565b611b3f81611896565b8114611b4a57600080fd5b50565b611b56816118c0565b8114611b6157600080fd5b50565b611b6d816118ca565b8114611b7857600080fd5b5056fea2646970667358221220ddbf3aaa2c5a1fff7b97beccfe1ea30a702d6e193fda5ad7044f4348a8336f1e64736f6c63430008040033",
  "linkReferences": {
    "@zk-kit/incremental-merkle-tree.sol/contracts/IncrementalBinaryTree.sol": {
      "IncrementalBinaryTree": [
        {
          "length": 20,
          "start": 1863
        },
        {
          "length": 20,
          "start": 2132
        },
        {
          "length": 20,
          "start": 3285
        }
      ]
    }
  },
  "deployedLinkReferences": {
    "@zk-kit/incremental-merkle-tree.sol/contracts/IncrementalBinaryTree.sol": {
      "IncrementalBinaryTree": [
        {
          "length": 20,
          "start": 1575
        },
        {
          "length": 20,
          "start": 1844
        },
        {
          "length": 20,
          "start": 2997
        }
      ]
    }
  }
}