{
  "_format": "hh-sol-artifact-1",
  "contractName": "testStake",
  "sourceName": "contracts/extensions/testStake.sol",
  "abi": [
    {
      "anonymous": false,
      "inputs": [
        {
          "indexed": false,
          "internalType": "uint256",
          "name": "entityId",
          "type": "uint256"
        },
        {
          "indexed": true,
          "internalType": "address",
          "name": "editor",
          "type": "address"
        }
      ],
      "name": "EntityCreated",
      "type": "event"
    },
    {
      "anonymous": false,
      "inputs": [
        {
          "indexed": true,
          "internalType": "uint256",
          "name": "groupId",
          "type": "uint256"
        },
        {
          "indexed": false,
          "internalType": "uint8",
          "name": "depth",
          "type": "uint8"
        }
      ],
      "name": "GroupAdded",
      "type": "event"
    },
    {
      "anonymous": false,
      "inputs": [
        {
          "indexed": true,
          "internalType": "uint256",
          "name": "groupId",
          "type": "uint256"
        },
        {
          "indexed": false,
          "internalType": "uint256",
          "name": "identityCommitment",
          "type": "uint256"
        },
        {
          "indexed": false,
          "internalType": "uint256",
          "name": "root",
          "type": "uint256"
        }
      ],
      "name": "MemberAdded",
      "type": "event"
    },
    {
      "anonymous": false,
      "inputs": [
        {
          "indexed": true,
          "internalType": "uint256",
          "name": "groupId",
          "type": "uint256"
        },
        {
          "indexed": false,
          "internalType": "uint256",
          "name": "identityCommitment",
          "type": "uint256"
        },
        {
          "indexed": false,
          "internalType": "uint256",
          "name": "root",
          "type": "uint256"
        }
      ],
      "name": "MemberRemoved",
      "type": "event"
    },
    {
      "anonymous": false,
      "inputs": [
        {
          "indexed": false,
          "internalType": "uint256",
          "name": "nullifierHash",
          "type": "uint256"
        }
      ],
      "name": "NullifierHashAdded",
      "type": "event"
    },
    {
      "inputs": [
        {
          "internalType": "uint256",
          "name": "entityId",
          "type": "uint256"
        },
        {
          "internalType": "uint256",
          "name": "identityCommitment",
          "type": "uint256"
        }
      ],
      "name": "addDAOIdentity",
      "outputs": [],
      "stateMutability": "nonpayable",
      "type": "function"
    },
    {
      "inputs": [
        {
          "internalType": "uint256",
          "name": "",
          "type": "uint256"
        },
        {
          "internalType": "uint256",
          "name": "",
          "type": "uint256"
        }
      ],
      "name": "commitments",
      "outputs": [
        {
          "internalType": "uint256",
          "name": "",
          "type": "uint256"
        }
      ],
      "stateMutability": "view",
      "type": "function"
    },
    {
      "inputs": [
        {
          "internalType": "uint256",
          "name": "entityId",
          "type": "uint256"
        },
        {
          "internalType": "address",
          "name": "editor",
          "type": "address"
        }
      ],
      "name": "createEntity",
      "outputs": [],
      "stateMutability": "nonpayable",
      "type": "function"
    },
    {
      "inputs": [
        {
          "internalType": "uint256",
          "name": "groupId",
          "type": "uint256"
        }
      ],
      "name": "getDepth",
      "outputs": [
        {
          "internalType": "uint256",
          "name": "",
          "type": "uint256"
        }
      ],
      "stateMutability": "view",
      "type": "function"
    },
    {
      "inputs": [
        {
          "internalType": "uint256",
          "name": "g",
          "type": "uint256"
        }
      ],
      "name": "getGroupCommitments",
      "outputs": [
        {
          "internalType": "uint256[]",
          "name": "",
          "type": "uint256[]"
        }
      ],
      "stateMutability": "view",
      "type": "function"
    },
    {
      "inputs": [
        {
          "internalType": "uint256",
          "name": "groupId",
          "type": "uint256"
        }
      ],
      "name": "getRoot",
      "outputs": [
        {
          "internalType": "uint256",
          "name": "",
          "type": "uint256"
        }
      ],
      "stateMutability": "view",
      "type": "function"
    },
    {
      "inputs": [
        {
          "internalType": "uint256",
          "name": "groupId",
          "type": "uint256"
        }
      ],
      "name": "getSize",
      "outputs": [
        {
          "internalType": "uint256",
          "name": "",
          "type": "uint256"
        }
      ],
      "stateMutability": "view",
      "type": "function"
    },
    {
      "inputs": [
        {
          "internalType": "address",
          "name": "",
          "type": "address"
        },
        {
          "internalType": "address",
          "name": "",
          "type": "address"
        },
        {
          "internalType": "uint256",
          "name": "",
          "type": "uint256"
        },
        {
          "internalType": "bytes",
          "name": "",
          "type": "bytes"
        }
      ],
      "name": "onERC721Received",
      "outputs": [
        {
          "internalType": "bytes4",
          "name": "",
          "type": "bytes4"
        }
      ],
      "stateMutability": "nonpayable",
      "type": "function"
    },
    {
      "inputs": [
        {
          "internalType": "uint256",
          "name": "entityId",
          "type": "uint256"
        },
        {
          "internalType": "uint256",
          "name": "identityCommitment",
          "type": "uint256"
        },
        {
          "internalType": "uint256[]",
          "name": "proofSiblings",
          "type": "uint256[]"
        },
        {
          "internalType": "uint8[]",
          "name": "proofPathIndices",
          "type": "uint8[]"
        }
      ],
      "name": "removeDAOIdentity",
      "outputs": [],
      "stateMutability": "nonpayable",
      "type": "function"
    },
    {
      "inputs": [
        {
          "internalType": "string",
          "name": "challenge",
          "type": "string"
        },
        {
          "internalType": "uint256",
          "name": "nullifierHash",
          "type": "uint256"
        },
        {
          "internalType": "uint256",
          "name": "entityId",
          "type": "uint256"
        },
        {
          "internalType": "uint256[8]",
          "name": "proof",
          "type": "uint256[8]"
        }
      ],
      "name": "verifyIdentityChallenge",
      "outputs": [
        {
          "internalType": "bool",
          "name": "",
          "type": "bool"
        }
      ],
      "stateMutability": "view",
      "type": "function"
    },
    {
      "inputs": [
        {
          "internalType": "uint256[2]",
          "name": "a",
          "type": "uint256[2]"
        },
        {
          "internalType": "uint256[2][2]",
          "name": "b",
          "type": "uint256[2][2]"
        },
        {
          "internalType": "uint256[2]",
          "name": "c",
          "type": "uint256[2]"
        },
        {
          "internalType": "uint256[4]",
          "name": "input",
          "type": "uint256[4]"
        }
      ],
      "name": "verifyProof",
      "outputs": [
        {
          "internalType": "bool",
          "name": "r",
          "type": "bool"
        }
      ],
      "stateMutability": "view",
      "type": "function"
    }
  ],
  "bytecode": "0x608060405234801561001057600080fd5b50613bb8806100206000396000f3fe608060405234801561001057600080fd5b50600436106100a95760003560e01c806375e618c91161007157806375e618c91461018a5780639b24b3b0146101ba578063ad9a2f72146101ea578063bbad61281461021a578063d13e2e6014610236578063da3eea0514610266576100a9565b8063023c23db146100ae57806305279f8e146100de57806313ccc8c01461010e578063150b7a021461012a5780635fe8c13b1461015a575b600080fd5b6100c860048036038101906100c39190612d38565b610282565b6040516100d59190613459565b60405180910390f35b6100f860048036038101906100f39190612d38565b6102a2565b604051610105919061320a565b60405180910390f35b61012860048036038101906101239190612d61565b61030d565b005b610144600480360381019061013f9190612bd7565b6103ae565b6040516101519190613247565b60405180910390f35b610174600480360381019061016f9190612c52565b6103c2565b604051610181919061322c565b60405180910390f35b6101a4600480360381019061019f9190612d38565b610876565b6040516101b19190613459565b60405180910390f35b6101d460048036038101906101cf9190612d38565b6108a6565b6040516101e19190613459565b60405180910390f35b61020460048036038101906101ff9190612cb7565b6108c6565b604051610211919061322c565b60405180910390f35b610234600480360381019061022f9190612d9d565b6108fc565b005b610250600480360381019061024b9190612d9d565b610944565b60405161025d9190613459565b60405180910390f35b610280600480360381019061027b9190612dd9565b610975565b005b600060016000838152602001908152602001600020600201549050919050565b60606004600083815260200190815260200160002080548060200260200160405190810160405280929190818152602001828054801561030157602002820191906000526020600020905b8154815260200190600101908083116102ed575b50505050509050919050565b610318826014610a15565b81600360008373ffffffffffffffffffffffffffffffffffffffff1673ffffffffffffffffffffffffffffffffffffffff168152602001908152602001600020819055508073ffffffffffffffffffffffffffffffffffffffff167f5340f46ccfdbf46cea681e7481c711c8838cbcda1356cab6f31a2d0b2cd3525a836040516103a29190613459565b60405180910390a25050565b600063150b7a0260e01b9050949350505050565b60006103cc612754565b604051806040016040528087600060028110610411577f4e487b7100000000000000000000000000000000000000000000000000000000600052603260045260246000fd5b6020020151815260200187600160028110610455577f4e487b7100000000000000000000000000000000000000000000000000000000600052603260045260246000fd5b6020020151815250816000018190525060405180604001604052806040518060400160405280886000600281106104b5577f4e487b7100000000000000000000000000000000000000000000000000000000600052603260045260246000fd5b60200201516000600281106104f3577f4e487b7100000000000000000000000000000000000000000000000000000000600052603260045260246000fd5b6020020151815260200188600060028110610537577f4e487b7100000000000000000000000000000000000000000000000000000000600052603260045260246000fd5b6020020151600160028110610575577f4e487b7100000000000000000000000000000000000000000000000000000000600052603260045260246000fd5b602002015181525081526020016040518060400160405280886001600281106105c7577f4e487b7100000000000000000000000000000000000000000000000000000000600052603260045260246000fd5b6020020151600060028110610605577f4e487b7100000000000000000000000000000000000000000000000000000000600052603260045260246000fd5b6020020151815260200188600160028110610649577f4e487b7100000000000000000000000000000000000000000000000000000000600052603260045260246000fd5b6020020151600160028110610687577f4e487b7100000000000000000000000000000000000000000000000000000000600052603260045260246000fd5b602002015181525081525081602001819052506040518060400160405280856000600281106106df577f4e487b7100000000000000000000000000000000000000000000000000000000600052603260045260246000fd5b6020020151815260200185600160028110610723577f4e487b7100000000000000000000000000000000000000000000000000000000600052603260045260246000fd5b602002015181525081604001819052506000600467ffffffffffffffff811115610776577f4e487b7100000000000000000000000000000000000000000000000000000000600052604160045260246000fd5b6040519080825280602002602001820160405280156107a45781602001602082028036833780820191505090505b50905060005b6004811015610849578481600481106107ec577f4e487b7100000000000000000000000000000000000000000000000000000000600052603260045260246000fd5b602002015182828151811061082a577f4e487b7100000000000000000000000000000000000000000000000000000000600052603260045260246000fd5b6020026020010181815250508080610841906137ca565b9150506107aa565b5060006108568284610b6d565b14156108675760019250505061086e565b6000925050505b949350505050565b60006001600083815260200190815260200160002060000160009054906101000a900460ff1660ff169050919050565b600060016000838152602001908152602001600020600101549050919050565b6000806108ed87876001600088815260200190815260200160002060010154888888610df8565b90508091505095945050505050565b61090682826110fb565b600460008381526020019081526020016000208190806001815401808255809150506001900390600052602060002001600090919091909150555050565b6004602052816000526040600020818154811061096057600080fd5b90600052602060002001600091509150505481565b8560036000610982611228565b73ffffffffffffffffffffffffffffffffffffffff1673ffffffffffffffffffffffffffffffffffffffff1681526020019081526020016000205481146109fe576040517f08c379a00000000000000000000000000000000000000000000000000000000081526004016109f5906132a2565b60405180910390fd5b610a0c878787878787611230565b50505050505050565b6000610a2083610876565b14610a60576040517f08c379a0000000000000000000000000000000000000000000000000000000008152600401610a5790613282565b60405180910390fd5b6001600083815260200190815260200160002073__$4c0484323457fe1a856f46a4759b553fe4$__63b4bdd1179091837f30644e72e131a029b85045b68181585d2833e84879b9709143e1f593f0000001604051602001610ac0906131f5565b6040516020818303038152906040528051906020012060001c610ae39190613813565b6040518463ffffffff1660e01b8152600401610b0193929190613422565b60006040518083038186803b158015610b1957600080fd5b505af4158015610b2d573d6000803e3d6000fd5b50505050817f6e41c6ac154b547a2112d36281cc5de1cdfa7d7f260d4edf74f3ef59f9df0c5982604051610b61919061349d565b60405180910390a25050565b6000807f30644e72e131a029b85045b68181585d2833e84879b9709143e1f593f000000190506000610b9d61137f565b905080608001515160018651610bb39190613625565b14610bf3576040517f08c379a0000000000000000000000000000000000000000000000000000000008152600401610bea906132c2565b60405180910390fd5b60006040518060400160405280600081526020016000815250905060005b8651811015610d545783878281518110610c54577f4e487b7100000000000000000000000000000000000000000000000000000000600052603260045260246000fd5b602002602001015110610c9c576040517f08c379a0000000000000000000000000000000000000000000000000000000008152600401610c9390613322565b60405180910390fd5b610d3f82610d3a8560800151600185610cb59190613625565b81518110610cec577f4e487b7100000000000000000000000000000000000000000000000000000000600052603260045260246000fd5b60200260200101518a8581518110610d2d577f4e487b7100000000000000000000000000000000000000000000000000000000600052603260045260246000fd5b60200260200101516119cf565b611b1e565b91508080610d4c906137ca565b915050610c11565b50610da4818360800151600081518110610d97577f4e487b7100000000000000000000000000000000000000000000000000000000600052603260045260246000fd5b6020026020010151611b1e565b9050610dda610db68660000151611cb9565b8660200151846000015185602001518587604001518b604001518960600151611d5e565b610dea5760019350505050610df2565b600093505050505b92915050565b600080600085815260200190815260200160002060009054906101000a900460ff1615610e5a576040517f08c379a0000000000000000000000000000000000000000000000000000000008152600401610e5190613262565b60405180910390fd5b6000610e6688886120a7565b9050600060405180608001604052808881526020018781526020018381526020018681525090506110ed604051806040016040528086600060088110610ed5577f4e487b7100000000000000000000000000000000000000000000000000000000600052603260045260246000fd5b6020020135815260200186600160088110610f19577f4e487b7100000000000000000000000000000000000000000000000000000000600052603260045260246000fd5b60200201358152506040518060400160405280604051806040016040528089600260088110610f71577f4e487b7100000000000000000000000000000000000000000000000000000000600052603260045260246000fd5b6020020135815260200189600360088110610fb5577f4e487b7100000000000000000000000000000000000000000000000000000000600052603260045260246000fd5b60200201358152508152602001604051806040016040528089600460088110611007577f4e487b7100000000000000000000000000000000000000000000000000000000600052603260045260246000fd5b602002013581526020018960056008811061104b577f4e487b7100000000000000000000000000000000000000000000000000000000600052603260045260246000fd5b602002013581525081525060405180604001604052808860066008811061109b577f4e487b7100000000000000000000000000000000000000000000000000000000600052603260045260246000fd5b60200201358152602001886007600881106110df577f4e487b7100000000000000000000000000000000000000000000000000000000600052603260045260246000fd5b6020020135815250846103c2565b925050509695505050505050565b600061110683610876565b1415611147576040517f08c379a000000000000000000000000000000000000000000000000000000000815260040161113e90613302565b60405180910390fd5b6001600083815260200190815260200160002073__$4c0484323457fe1a856f46a4759b553fe4$__63168703fa9091836040518363ffffffff1660e01b81526004016111949291906133a2565b60006040518083038186803b1580156111ac57600080fd5b505af41580156111c0573d6000803e3d6000fd5b5050505060006111cf836108a6565b9050826002600083815260200190815260200160002081905550827f03fd27265b7dd1f55558bedc22a58fa3b10afb1be776e614bd5a7ba7b9499406838360405161121b929190613474565b60405180910390a2505050565b600033905090565b600061123b87610876565b141561127c576040517f08c379a000000000000000000000000000000000000000000000000000000000815260040161127390613302565b60405180910390fd5b6001600087815260200190815260200160002073__$4c0484323457fe1a856f46a4759b553fe4$__630629596f909187878787876040518763ffffffff1660e01b81526004016112d1969594939291906133cb565b60006040518083038186803b1580156112e957600080fd5b505af41580156112fd573d6000803e3d6000fd5b50505050600061130c876108a6565b9050866002600083815260200190815260200160002081905550867fe270325ded177064d7bda473e6519ef40a291058c41286f71a6e4872f1e9ab5c87600160008b81526020019081526020016000206001015460405161136e929190613474565b60405180910390a250505050505050565b611387612787565b60405180604001604052807f2d4d9aa7e302d9df41749d5507949d05dbea33fbb16c643b22f599a2be6df2e281526020017f14bedd503c37ceb061d8ec60209fe345ce89830a19230301f076caff004d19268152508160000181905250604051806040016040528060405180604001604052807f0967032fcbf776d1afc985f88877f182d38480a653f2decaa9794cbc3bf3060c81526020017f0e187847ad4c798374d0d6732bf501847dd68bc0e071241e0213bc7fc13db7ab815250815260200160405180604001604052807f304cfbd1e08a704a99f5e847d93f8c3caafddec46b7a0d379da69a4d112346a781526020017f1739c1b1a457a8c7313123d24d2f9192f896b7c63eea05a9d57f06547ad0cec88152508152508160200181905250604051806040016040528060405180604001604052807f198e9393920d483a7260bfb731fb5d25f1aa493335a9e71297e485b7aef312c281526020017f1800deef121f1e76426a00665e5c4479674322d4f75edadd46debd5cd992f6ed815250815260200160405180604001604052807f090689d0585ff075ec9e99ad690c3395bc4b313370b38ef355acdadcd122975b81526020017f12c85ea5db8c6deb4aab71808dcb408fe3d1e7690c43d37b4ce6cc0166fa7daa8152508152508160400181905250604051806040016040528060405180604001604052807f1bdb443ce61ebcf93daed4215a57e1cec90ca64973023e31197a112e8cee72f681526020017f117e26c4235f42625b3404f2973059814ff260dba7176d7aae910f493a8e1fb5815250815260200160405180604001604052807f196e247a12f580e36894f256f0c122393489b4c213b3e913250feee806ca45ff81526020017f2fedff4e4bbcbf9f1c56e28a060d50eef5f54e2aab897f6b465acd2ed005ae918152508152508160600181905250600567ffffffffffffffff811115611674577f4e487b7100000000000000000000000000000000000000000000000000000000600052604160045260246000fd5b6040519080825280602002602001820160405280156116ad57816020015b61169a6127ce565b8152602001906001900390816116925790505b50816080018190525060405180604001604052807f2c097b31a897227a6f64c9fc31d9a8fc421b0d8b8207f92532b464e431e61db881526020017f0fcf6d89d77d5123a43dfb23efb9c929c28c148ca82c794057864b8e66903c548152508160800151600081518110611749577f4e487b7100000000000000000000000000000000000000000000000000000000600052603260045260246000fd5b602002602001018190525060405180604001604052807f0186dae5999acfe2cda6fa7a157ae726afda7c6f57b00ea0aa6c2c23bf83838881526020017f2f078608f710c45b60d23716c58e106d8c7a1c6db28119defffc413e074f871681525081608001516001815181106117e7577f4e487b7100000000000000000000000000000000000000000000000000000000600052603260045260246000fd5b602002602001018190525060405180604001604052807f2464c1784bda2cbfb51e5ab87cf7eb2764ad81f7038152bdbbb07d404b49aa3781526020017f0638b273e4ee33e03e42ca6c7de1ea7043dbdcaa48661864de644d91c6b4821f8152508160800151600281518110611885577f4e487b7100000000000000000000000000000000000000000000000000000000600052603260045260246000fd5b602002602001018190525060405180604001604052807f098ce8b5289ef791db34b68b9e0043ab7bf25306d83a9f0ce74396b8a69c57bb81526020017f1ec6f7a81748f3d2c2b87610d747ca72045ac1530e226f00710630d41aad7e268152508160800151600381518110611923577f4e487b7100000000000000000000000000000000000000000000000000000000600052603260045260246000fd5b602002602001018190525060405180604001604052807f07dbf682cc528d3ff763fa576d05db50e023921728119ef66f880b6adae01cbe81526020017f0d287dcd9318207576eaa871e7b3308f613d9df7865059cdbc9f66fdef342dc681525081608001516004815181106119c1577f4e487b7100000000000000000000000000000000000000000000000000000000600052603260045260246000fd5b602002602001018190525090565b6119d76127ce565b6119df6127e8565b836000015181600060038110611a1e577f4e487b7100000000000000000000000000000000000000000000000000000000600052603260045260246000fd5b602002018181525050836020015181600160038110611a66577f4e487b7100000000000000000000000000000000000000000000000000000000600052603260045260246000fd5b6020020181815250508281600260038110611aaa577f4e487b7100000000000000000000000000000000000000000000000000000000600052603260045260246000fd5b602002018181525050600060608360808460076107d05a03fa90508060008114611ad357611ad5565bfe5b5080611b16576040517f08c379a0000000000000000000000000000000000000000000000000000000008152600401611b0d906132e2565b60405180910390fd5b505092915050565b611b266127ce565b611b2e61280a565b836000015181600060048110611b6d577f4e487b7100000000000000000000000000000000000000000000000000000000600052603260045260246000fd5b602002018181525050836020015181600160048110611bb5577f4e487b7100000000000000000000000000000000000000000000000000000000600052603260045260246000fd5b602002018181525050826000015181600260048110611bfd577f4e487b7100000000000000000000000000000000000000000000000000000000600052603260045260246000fd5b602002018181525050826020015181600360048110611c45577f4e487b7100000000000000000000000000000000000000000000000000000000600052603260045260246000fd5b602002018181525050600060608360c08460066107d05a03fa90508060008114611c6e57611c70565bfe5b5080611cb1576040517f08c379a0000000000000000000000000000000000000000000000000000000008152600401611ca890613362565b60405180910390fd5b505092915050565b611cc16127ce565b60007f30644e72e131a029b85045b68181585d97816a916871ca8d3c208c16d87cfd47905060008360000151148015611cfe575060008360200151145b15611d22576040518060400160405280600081526020016000815250915050611d59565b604051806040016040528084600001518152602001828560200151611d479190613813565b83611d5291906136d5565b8152509150505b919050565b600080600467ffffffffffffffff811115611da2577f4e487b7100000000000000000000000000000000000000000000000000000000600052604160045260246000fd5b604051908082528060200260200182016040528015611ddb57816020015b611dc86127ce565b815260200190600190039081611dc05790505b5090506000600467ffffffffffffffff811115611e21577f4e487b7100000000000000000000000000000000000000000000000000000000600052604160045260246000fd5b604051908082528060200260200182016040528015611e5a57816020015b611e4761282c565b815260200190600190039081611e3f5790505b5090508a82600081518110611e98577f4e487b7100000000000000000000000000000000000000000000000000000000600052603260045260246000fd5b60200260200101819052508882600181518110611ede577f4e487b7100000000000000000000000000000000000000000000000000000000600052603260045260246000fd5b60200260200101819052508682600281518110611f24577f4e487b7100000000000000000000000000000000000000000000000000000000600052603260045260246000fd5b60200260200101819052508482600381518110611f6a577f4e487b7100000000000000000000000000000000000000000000000000000000600052603260045260246000fd5b60200260200101819052508981600081518110611fb0577f4e487b7100000000000000000000000000000000000000000000000000000000600052603260045260246000fd5b60200260200101819052508781600181518110611ff6577f4e487b7100000000000000000000000000000000000000000000000000000000600052603260045260246000fd5b6020026020010181905250858160028151811061203c577f4e487b7100000000000000000000000000000000000000000000000000000000600052603260045260246000fd5b60200260200101819052508381600381518110612082577f4e487b7100000000000000000000000000000000000000000000000000000000600052603260045260246000fd5b602002602001018190525061209782826120e1565b9250505098975050505050505050565b6000600883836040516020016120be9291906131dc565b6040516020818303038152906040528051906020012060001c901c905092915050565b60008151835114612127576040517f08c379a000000000000000000000000000000000000000000000000000000000815260040161211e90613342565b60405180910390fd5b600083519050600060068261213c919061367b565b905060008167ffffffffffffffff811115612180577f4e487b7100000000000000000000000000000000000000000000000000000000600052604160045260246000fd5b6040519080825280602002602001820160405280156121ae5781602001602082028036833780820191505090505b50905060005b83811015612693578681815181106121f5577f4e487b7100000000000000000000000000000000000000000000000000000000600052603260045260246000fd5b602002602001015160000151826000600684612211919061367b565b61221b9190613625565b81518110612252577f4e487b7100000000000000000000000000000000000000000000000000000000600052603260045260246000fd5b602002602001018181525050868181518110612297577f4e487b7100000000000000000000000000000000000000000000000000000000600052603260045260246000fd5b6020026020010151602001518260016006846122b3919061367b565b6122bd9190613625565b815181106122f4577f4e487b7100000000000000000000000000000000000000000000000000000000600052603260045260246000fd5b602002602001018181525050858181518110612339577f4e487b7100000000000000000000000000000000000000000000000000000000600052603260045260246000fd5b60200260200101516000015160006002811061237e577f4e487b7100000000000000000000000000000000000000000000000000000000600052603260045260246000fd5b6020020151826002600684612393919061367b565b61239d9190613625565b815181106123d4577f4e487b7100000000000000000000000000000000000000000000000000000000600052603260045260246000fd5b602002602001018181525050858181518110612419577f4e487b7100000000000000000000000000000000000000000000000000000000600052603260045260246000fd5b60200260200101516000015160016002811061245e577f4e487b7100000000000000000000000000000000000000000000000000000000600052603260045260246000fd5b6020020151826003600684612473919061367b565b61247d9190613625565b815181106124b4577f4e487b7100000000000000000000000000000000000000000000000000000000600052603260045260246000fd5b6020026020010181815250508581815181106124f9577f4e487b7100000000000000000000000000000000000000000000000000000000600052603260045260246000fd5b60200260200101516020015160006002811061253e577f4e487b7100000000000000000000000000000000000000000000000000000000600052603260045260246000fd5b6020020151826004600684612553919061367b565b61255d9190613625565b81518110612594577f4e487b7100000000000000000000000000000000000000000000000000000000600052603260045260246000fd5b6020026020010181815250508581815181106125d9577f4e487b7100000000000000000000000000000000000000000000000000000000600052603260045260246000fd5b60200260200101516020015160016002811061261e577f4e487b7100000000000000000000000000000000000000000000000000000000600052603260045260246000fd5b6020020151826005600684612633919061367b565b61263d9190613625565b81518110612674577f4e487b7100000000000000000000000000000000000000000000000000000000600052603260045260246000fd5b602002602001018181525050808061268b906137ca565b9150506121b4565b5061269c612852565b6000602082602086026020860160086107d05a03fa905080600081146126c1576126c3565bfe5b5080612704576040517f08c379a00000000000000000000000000000000000000000000000000000000081526004016126fb90613382565b60405180910390fd5b600082600060018110612740577f4e487b7100000000000000000000000000000000000000000000000000000000600052603260045260246000fd5b602002015114159550505050505092915050565b60405180606001604052806127676127ce565b815260200161277461282c565b81526020016127816127ce565b81525090565b6040518060a0016040528061279a6127ce565b81526020016127a761282c565b81526020016127b461282c565b81526020016127c161282c565b8152602001606081525090565b604051806040016040528060008152602001600081525090565b6040518060600160405280600390602082028036833780820191505090505090565b6040518060800160405280600490602082028036833780820191505090505090565b604051806040016040528061283f612874565b815260200161284c612874565b81525090565b6040518060200160405280600190602082028036833780820191505090505090565b6040518060400160405280600290602082028036833780820191505090505090565b60006128a96128a4846134dd565b6134b8565b905080828560408602820111156128bf57600080fd5b60005b858110156128ef57816128d58882612a39565b8452602084019350604083019250506001810190506128c2565b5050509392505050565b600061290c61290784613503565b6134b8565b9050808285602086028201111561292257600080fd5b60005b8581101561295257816129388882612bad565b845260208401935060208301925050600181019050612925565b5050509392505050565b600061296f61296a84613529565b6134b8565b9050808285602086028201111561298557600080fd5b60005b858110156129b5578161299b8882612bad565b845260208401935060208301925050600181019050612988565b5050509392505050565b60006129d26129cd8461354f565b6134b8565b9050828152602081018484840111156129ea57600080fd5b6129f584828561378a565b509392505050565b600081359050612a0c81613b3d565b92915050565b600082601f830112612a2357600080fd5b6002612a30848285612896565b91505092915050565b600082601f830112612a4a57600080fd5b6002612a578482856128f9565b91505092915050565b600082601f830112612a7157600080fd5b6004612a7e84828561295c565b91505092915050565b600081905082602060080282011115612a9f57600080fd5b92915050565b60008083601f840112612ab757600080fd5b8235905067ffffffffffffffff811115612ad057600080fd5b602083019150836020820283011115612ae857600080fd5b9250929050565b60008083601f840112612b0157600080fd5b8235905067ffffffffffffffff811115612b1a57600080fd5b602083019150836020820283011115612b3257600080fd5b9250929050565b600082601f830112612b4a57600080fd5b8135612b5a8482602086016129bf565b91505092915050565b60008083601f840112612b7557600080fd5b8235905067ffffffffffffffff811115612b8e57600080fd5b602083019150836001820283011115612ba657600080fd5b9250929050565b600081359050612bbc81613b54565b92915050565b600081359050612bd181613b6b565b92915050565b60008060008060808587031215612bed57600080fd5b6000612bfb878288016129fd565b9450506020612c0c878288016129fd565b9350506040612c1d87828801612bad565b925050606085013567ffffffffffffffff811115612c3a57600080fd5b612c4687828801612b39565b91505092959194509250565b6000806000806101808587031215612c6957600080fd5b6000612c7787828801612a39565b9450506040612c8887828801612a12565b93505060c0612c9987828801612a39565b925050610100612cab87828801612a60565b91505092959194509250565b60008060008060006101608688031215612cd057600080fd5b600086013567ffffffffffffffff811115612cea57600080fd5b612cf688828901612b63565b95509550506020612d0988828901612bad565b9350506040612d1a88828901612bad565b9250506060612d2b88828901612a87565b9150509295509295909350565b600060208284031215612d4a57600080fd5b6000612d5884828501612bad565b91505092915050565b60008060408385031215612d7457600080fd5b6000612d8285828601612bad565b9250506020612d93858286016129fd565b9150509250929050565b60008060408385031215612db057600080fd5b6000612dbe85828601612bad565b9250506020612dcf85828601612bad565b9150509250929050565b60008060008060008060808789031215612df257600080fd5b6000612e0089828a01612bad565b9650506020612e1189828a01612bad565b955050604087013567ffffffffffffffff811115612e2e57600080fd5b612e3a89828a01612aa5565b9450945050606087013567ffffffffffffffff811115612e5957600080fd5b612e6589828a01612aef565b92509250509295509295509295565b6000612e808383613182565b60208301905092915050565b6000612e9883836131cd565b60208301905092915050565b6000612eb083856135d0565b93507f07ffffffffffffffffffffffffffffffffffffffffffffffffffffffffffffff831115612edf57600080fd5b602083029250612ef083858461378a565b82840190509392505050565b6000612f078261359a565b612f1181856135bf565b9350612f1c83613580565b8060005b83811015612f4d578151612f348882612e74565b9750612f3f836135a5565b925050600181019050612f20565b5085935050505092915050565b6000612f6683856135e1565b9350612f7182613590565b8060005b85811015612faa57612f87828461360e565b612f918882612e8c565b9750612f9c836135b2565b925050600181019050612f75565b5085925050509392505050565b612fc08161371b565b82525050565b612fcf81613727565b82525050565b6000612fe18385613603565b9350612fee83858461378a565b82840190509392505050565b60006130076036836135f2565b9150613012826138e2565b604082019050919050565b600061302a6025836135f2565b915061303582613931565b604082019050919050565b600061304d6031836135f2565b915061305882613980565b604082019050919050565b60006130706012836135f2565b915061307b826139cf565b602082019050919050565b60006130936012836135f2565b915061309e826139f8565b602082019050919050565b60006130b6600983613603565b91506130c182613a21565b600982019050919050565b60006130d96025836135f2565b91506130e482613a4a565b604082019050919050565b60006130fc601f836135f2565b915061310782613a99565b602082019050919050565b600061311f6016836135f2565b915061312a82613ac2565b602082019050919050565b60006131426012836135f2565b915061314d82613aeb565b602082019050919050565b60006131656015836135f2565b915061317082613b14565b602082019050919050565b8082525050565b61318b81613773565b82525050565b61319a81613773565b82525050565b6131a981613773565b82525050565b6131b88161377d565b82525050565b6131c78161377d565b82525050565b6131d68161377d565b82525050565b60006131e9828486612fd5565b91508190509392505050565b6000613200826130a9565b9150819050919050565b600060208201905081810360008301526132248184612efc565b905092915050565b60006020820190506132416000830184612fb7565b92915050565b600060208201905061325c6000830184612fc6565b92915050565b6000602082019050818103600083015261327b81612ffa565b9050919050565b6000602082019050818103600083015261329b8161301d565b9050919050565b600060208201905081810360008301526132bb81613040565b9050919050565b600060208201905081810360008301526132db81613063565b9050919050565b600060208201905081810360008301526132fb81613086565b9050919050565b6000602082019050818103600083015261331b816130cc565b9050919050565b6000602082019050818103600083015261333b816130ef565b9050919050565b6000602082019050818103600083015261335b81613112565b9050919050565b6000602082019050818103600083015261337b81613135565b9050919050565b6000602082019050818103600083015261339b81613158565b9050919050565b60006040820190506133b7600083018561317b565b6133c460208301846131a0565b9392505050565b60006080820190506133e0600083018961317b565b6133ed60208301886131a0565b8181036040830152613400818688612ea4565b90508181036060830152613415818486612f5a565b9050979650505050505050565b6000606082019050613437600083018661317b565b61344460208301856131be565b61345160408301846131a0565b949350505050565b600060208201905061346e6000830184613191565b92915050565b60006040820190506134896000830185613191565b6134966020830184613191565b9392505050565b60006020820190506134b260008301846131af565b92915050565b60006134c26134d3565b90506134ce8282613799565b919050565b6000604051905090565b600067ffffffffffffffff8211156134f8576134f76138a2565b5b602082029050919050565b600067ffffffffffffffff82111561351e5761351d6138a2565b5b602082029050919050565b600067ffffffffffffffff821115613544576135436138a2565b5b602082029050919050565b600067ffffffffffffffff82111561356a576135696138a2565b5b613573826138d1565b9050602081019050919050565b6000819050602082019050919050565b6000819050919050565b600081519050919050565b6000602082019050919050565b6000602082019050919050565b600082825260208201905092915050565b600082825260208201905092915050565b600082825260208201905092915050565b600082825260208201905092915050565b600081905092915050565b600061361d6020840184612bc2565b905092915050565b600061363082613773565b915061363b83613773565b9250827fffffffffffffffffffffffffffffffffffffffffffffffffffffffffffffffff038211156136705761366f613844565b5b828201905092915050565b600061368682613773565b915061369183613773565b9250817fffffffffffffffffffffffffffffffffffffffffffffffffffffffffffffffff04831182151516156136ca576136c9613844565b5b828202905092915050565b60006136e082613773565b91506136eb83613773565b9250828210156136fe576136fd613844565b5b828203905092915050565b600061371482613753565b9050919050565b60008115159050919050565b60007fffffffff0000000000000000000000000000000000000000000000000000000082169050919050565b600073ffffffffffffffffffffffffffffffffffffffff82169050919050565b6000819050919050565b600060ff82169050919050565b82818337600083830152505050565b6137a2826138d1565b810181811067ffffffffffffffff821117156137c1576137c06138a2565b5b80604052505050565b60006137d582613773565b91507fffffffffffffffffffffffffffffffffffffffffffffffffffffffffffffffff82141561380857613807613844565b5b600182019050919050565b600061381e82613773565b915061382983613773565b92508261383957613838613873565b5b828206905092915050565b7f4e487b7100000000000000000000000000000000000000000000000000000000600052601160045260246000fd5b7f4e487b7100000000000000000000000000000000000000000000000000000000600052601260045260246000fd5b7f4e487b7100000000000000000000000000000000000000000000000000000000600052604160045260246000fd5b6000601f19601f8301169050919050565b7f53656d6170686f7265436f72653a20796f752063616e6e6f742075736520746860008201527f652073616d65206e756c6c696669657220747769636500000000000000000000602082015250565b7f53656d6170686f726547726f7570733a2067726f757020616c7265616479206560008201527f7869737473000000000000000000000000000000000000000000000000000000602082015250565b7f53656d6170686f726557686973746c65626c6f77696e673a2063616c6c65722060008201527f6973206e6f742074686520656469746f72000000000000000000000000000000602082015250565b7f76657269666965722d6261642d696e7075740000000000000000000000000000600082015250565b7f70616972696e672d6d756c2d6661696c65640000000000000000000000000000600082015250565b7f53656d6170686f72650000000000000000000000000000000000000000000000600082015250565b7f53656d6170686f726547726f7570733a2067726f757020646f6573206e6f742060008201527f6578697374000000000000000000000000000000000000000000000000000000602082015250565b7f76657269666965722d6774652d736e61726b2d7363616c61722d6669656c6400600082015250565b7f70616972696e672d6c656e677468732d6661696c656400000000000000000000600082015250565b7f70616972696e672d6164642d6661696c65640000000000000000000000000000600082015250565b7f70616972696e672d6f70636f64652d6661696c65640000000000000000000000600082015250565b613b4681613709565b8114613b5157600080fd5b50565b613b5d81613773565b8114613b6857600080fd5b50565b613b748161377d565b8114613b7f57600080fd5b5056fea2646970667358221220ec80865e4a7479d20de476d66404139452d20b5d294dfcb499491b95e2b0189d64736f6c63430008040033",
  "linkReferences": {
    "@zk-kit/incremental-merkle-tree.sol/contracts/IncrementalBinaryTree.sol": {
      "IncrementalBinaryTree": [
        {
          "length": 20,
          "start": 2709
        },
        {
          "length": 20,
          "start": 4476
        },
        {
          "length": 20,
          "start": 4785
        }
      ]
    }
  },
  "deployedLinkReferences": {
    "@zk-kit/incremental-merkle-tree.sol/contracts/IncrementalBinaryTree.sol": {
      "IncrementalBinaryTree": [
        {
          "length": 20,
          "start": 2677
        },
        {
          "length": 20,
          "start": 4444
        },
        {
          "length": 20,
          "start": 4753
        }
      ]
    }
  }
}