{
  "_format": "hh-sol-artifact-1",
  "contractName": "SemaphoreWhistleblowing",
  "sourceName": "contracts/extensions/SemaphoreWhistleblowing.sol",
  "abi": [
    {
      "inputs": [
        {
          "internalType": "uint8[]",
          "name": "depths",
          "type": "uint8[]"
        },
        {
          "internalType": "address[]",
          "name": "verifierAddresses",
          "type": "address[]"
        }
      ],
      "stateMutability": "nonpayable",
      "type": "constructor"
    },
    {
      "anonymous": false,
      "inputs": [
        {
          "indexed": false,
          "internalType": "uint256",
          "name": "entityId",
          "type": "uint256"
        },
        {
          "indexed": true,
          "internalType": "address",
          "name": "editor",
          "type": "address"
        }
      ],
      "name": "EntityCreated",
      "type": "event"
    },
    {
      "anonymous": false,
      "inputs": [
        {
          "indexed": true,
          "internalType": "uint256",
          "name": "groupId",
          "type": "uint256"
        },
        {
          "indexed": false,
          "internalType": "uint8",
          "name": "depth",
          "type": "uint8"
        },
        {
          "indexed": false,
          "internalType": "uint256",
          "name": "zeroValue",
          "type": "uint256"
        }
      ],
      "name": "GroupCreated",
      "type": "event"
    },
    {
      "anonymous": false,
      "inputs": [
        {
          "indexed": true,
          "internalType": "uint256",
          "name": "entityId",
          "type": "uint256"
        },
        {
          "indexed": false,
          "internalType": "bytes32",
          "name": "leak",
          "type": "bytes32"
        }
      ],
      "name": "LeakPublished",
      "type": "event"
    },
    {
      "anonymous": false,
      "inputs": [
        {
          "indexed": true,
          "internalType": "uint256",
          "name": "groupId",
          "type": "uint256"
        },
        {
          "indexed": false,
          "internalType": "uint256",
          "name": "identityCommitment",
          "type": "uint256"
        },
        {
          "indexed": false,
          "internalType": "uint256",
          "name": "root",
          "type": "uint256"
        }
      ],
      "name": "MemberAdded",
      "type": "event"
    },
    {
      "anonymous": false,
      "inputs": [
        {
          "indexed": true,
          "internalType": "uint256",
          "name": "groupId",
          "type": "uint256"
        },
        {
          "indexed": false,
          "internalType": "uint256",
          "name": "identityCommitment",
          "type": "uint256"
        },
        {
          "indexed": false,
          "internalType": "uint256",
          "name": "root",
          "type": "uint256"
        }
      ],
      "name": "MemberRemoved",
      "type": "event"
    },
    {
      "anonymous": false,
      "inputs": [
        {
          "indexed": false,
          "internalType": "uint256",
          "name": "nullifierHash",
          "type": "uint256"
        }
      ],
      "name": "NullifierHashAdded",
      "type": "event"
    },
    {
      "inputs": [
        {
          "internalType": "uint256",
          "name": "entityId",
          "type": "uint256"
        },
        {
          "internalType": "uint256",
          "name": "identityCommitment",
          "type": "uint256"
        }
      ],
      "name": "addWhistleblower",
      "outputs": [],
      "stateMutability": "nonpayable",
      "type": "function"
    },
    {
      "inputs": [
        {
          "internalType": "uint256",
          "name": "entityId",
          "type": "uint256"
        },
        {
          "internalType": "address",
          "name": "editor",
          "type": "address"
        },
        {
          "internalType": "uint8",
          "name": "depth",
          "type": "uint8"
        }
      ],
      "name": "createEntity",
      "outputs": [],
      "stateMutability": "nonpayable",
      "type": "function"
    },
    {
      "inputs": [
        {
          "internalType": "uint256",
          "name": "groupId",
          "type": "uint256"
        }
      ],
      "name": "getDepth",
      "outputs": [
        {
          "internalType": "uint8",
          "name": "",
          "type": "uint8"
        }
      ],
      "stateMutability": "view",
      "type": "function"
    },
    {
      "inputs": [
        {
          "internalType": "uint256",
          "name": "groupId",
          "type": "uint256"
        }
      ],
      "name": "getNumberOfLeaves",
      "outputs": [
        {
          "internalType": "uint256",
          "name": "",
          "type": "uint256"
        }
      ],
      "stateMutability": "view",
      "type": "function"
    },
    {
      "inputs": [
        {
          "internalType": "uint256",
          "name": "groupId",
          "type": "uint256"
        }
      ],
      "name": "getRoot",
      "outputs": [
        {
          "internalType": "uint256",
          "name": "",
          "type": "uint256"
        }
      ],
      "stateMutability": "view",
      "type": "function"
    },
    {
      "inputs": [
        {
          "internalType": "bytes32",
          "name": "leak",
          "type": "bytes32"
        },
        {
          "internalType": "uint256",
          "name": "nullifierHash",
          "type": "uint256"
        },
        {
          "internalType": "uint256",
          "name": "entityId",
          "type": "uint256"
        },
        {
          "internalType": "uint256[8]",
          "name": "proof",
          "type": "uint256[8]"
        }
      ],
      "name": "publishLeak",
      "outputs": [],
      "stateMutability": "nonpayable",
      "type": "function"
    },
    {
      "inputs": [
        {
          "internalType": "uint256",
          "name": "entityId",
          "type": "uint256"
        },
        {
          "internalType": "uint256",
          "name": "identityCommitment",
          "type": "uint256"
        },
        {
          "internalType": "uint256[]",
          "name": "proofSiblings",
          "type": "uint256[]"
        },
        {
          "internalType": "uint8[]",
          "name": "proofPathIndices",
          "type": "uint8[]"
        }
      ],
      "name": "removeWhistleblower",
      "outputs": [],
      "stateMutability": "nonpayable",
      "type": "function"
    }
  ],
  "bytecode": "0x60806040523480156200001157600080fd5b5060405162001fb938038062001fb98339818101604052810190620000379190620002ff565b80518251146200007e576040517f08c379a0000000000000000000000000000000000000000000000000000000008152600401620000759062000399565b60405180910390fd5b60005b82518160ff1610156200018457818160ff1681518110620000cb577f4e487b7100000000000000000000000000000000000000000000000000000000600052603260045260246000fd5b602002602001015160026000858460ff168151811062000114577f4e487b7100000000000000000000000000000000000000000000000000000000600052603260045260246000fd5b602002602001015160ff1660ff16815260200190815260200160002060006101000a81548173ffffffffffffffffffffffffffffffffffffffff021916908373ffffffffffffffffffffffffffffffffffffffff16021790555080806200017b90620004ca565b91505062000081565b50505062000611565b6000620001a46200019e84620003e4565b620003bb565b90508083825260208201905082856020860282011115620001c457600080fd5b60005b85811015620001f85781620001dd888262000277565b845260208401935060208301925050600181019050620001c7565b5050509392505050565b600062000219620002138462000413565b620003bb565b905080838252602082019050828560208602820111156200023957600080fd5b60005b858110156200026d5781620002528882620002e8565b8452602084019350602083019250506001810190506200023c565b5050509392505050565b6000815190506200028881620005dd565b92915050565b600082601f830112620002a057600080fd5b8151620002b28482602086016200018d565b91505092915050565b600082601f830112620002cd57600080fd5b8151620002df84826020860162000202565b91505092915050565b600081519050620002f981620005f7565b92915050565b600080604083850312156200031357600080fd5b600083015167ffffffffffffffff8111156200032e57600080fd5b6200033c85828601620002bb565b925050602083015167ffffffffffffffff8111156200035a57600080fd5b62000368858286016200028e565b9150509250929050565b60006200038160478362000442565b91506200038e8262000568565b606082019050919050565b60006020820190508181036000830152620003b48162000372565b9050919050565b6000620003c7620003da565b9050620003d5828262000494565b919050565b6000604051905090565b600067ffffffffffffffff82111562000402576200040162000528565b5b602082029050602081019050919050565b600067ffffffffffffffff82111562000431576200043062000528565b5b602082029050602081019050919050565b600082825260208201905092915050565b6000620004608262000467565b9050919050565b600073ffffffffffffffffffffffffffffffffffffffff82169050919050565b600060ff82169050919050565b6200049f8262000557565b810181811067ffffffffffffffff82111715620004c157620004c062000528565b5b80604052505050565b6000620004d78262000487565b915060ff821415620004ee57620004ed620004f9565b5b600182019050919050565b7f4e487b7100000000000000000000000000000000000000000000000000000000600052601160045260246000fd5b7f4e487b7100000000000000000000000000000000000000000000000000000000600052604160045260246000fd5b6000601f19601f8301169050919050565b7f53656d6170686f726557686973746c65626c6f77696e673a20706172616d657460008201527f657273206c6973747320646f6573206e6f742068617665207468652073616d6560208201527f206c656e67746800000000000000000000000000000000000000000000000000604082015250565b620005e88162000453565b8114620005f457600080fd5b50565b620006028162000487565b81146200060e57600080fd5b50565b61199880620006216000396000f3fe608060405234801561001057600080fd5b506004361061007d5760003560e01c80638fe035871161005b5780638fe03587146100ea5780639b24b3b014610106578063b9c78c2b14610136578063ca7e534c146101665761007d565b8063337ee54b146100825780635027000d1461009e57806375e618c9146100ba575b600080fd5b61009c60048036038101906100979190610e79565b610182565b005b6100b860048036038101906100b39190610f04565b6102ce565b005b6100d460048036038101906100cf9190610e50565b61036e565b6040516100e19190611589565b60405180910390f35b61010460048036038101906100ff9190610ec8565b61039b565b005b610120600480360381019061011b9190610e50565b610433565b60405161012d9190611545565b60405180910390f35b610150600480360381019061014b9190610e50565b610453565b60405161015d9190611545565b60405180910390f35b610180600480360381019061017b9190610dec565b610473565b005b600073ffffffffffffffffffffffffffffffffffffffff16600260008360ff1660ff16815260200190815260200160002060009054906101000a900473ffffffffffffffffffffffffffffffffffffffff1673ffffffffffffffffffffffffffffffffffffffff16141561022b576040517f08c379a00000000000000000000000000000000000000000000000000000000081526004016102229061140e565b60405180910390fd5b610237838260006105a4565b82600360008473ffffffffffffffffffffffffffffffffffffffff1673ffffffffffffffffffffffffffffffffffffffff168152602001908152602001600020819055508173ffffffffffffffffffffffffffffffffffffffff167f5340f46ccfdbf46cea681e7481c711c8838cbcda1356cab6f31a2d0b2cd3525a846040516102c19190611545565b60405180910390a2505050565b85600360006102db610712565b73ffffffffffffffffffffffffffffffffffffffff1673ffffffffffffffffffffffffffffffffffffffff168152602001908152602001600020548114610357576040517f08c379a000000000000000000000000000000000000000000000000000000000815260040161034e9061142e565b60405180910390fd5b61036587878787878761071a565b50505050505050565b60006001600083815260200190815260200160002060000160009054906101000a900460ff169050919050565b81600360006103a8610712565b73ffffffffffffffffffffffffffffffffffffffff1673ffffffffffffffffffffffffffffffffffffffff168152602001908152602001600020548114610424576040517f08c379a000000000000000000000000000000000000000000000000000000000815260040161041b9061142e565b60405180910390fd5b61042e838361083e565b505050565b600060016000838152602001908152602001600020600101549050919050565b600060016000838152602001908152602001600020600201549050919050565b8160036000610480610712565b73ffffffffffffffffffffffffffffffffffffffff1673ffffffffffffffffffffffffffffffffffffffff1681526020019081526020016000205481146104fc576040517f08c379a00000000000000000000000000000000000000000000000000000000081526004016104f39061142e565b60405180910390fd5b60006105078461036e565b9050600061051485610433565b90506000600260008460ff1660ff16815260200190815260200160002060009054906101000a900473ffffffffffffffffffffffffffffffffffffffff169050610562888389898986610956565b857ff3fa3ff7a3348de75b04ecec5ac199157e2b877c68518dd37b48751b986ad7898960405161059291906113b3565b60405180910390a25050505050505050565b7f30644e72e131a029b85045b68181585d2833e84879b9709143e1f593f00000018310610606576040517f08c379a00000000000000000000000000000000000000000000000000000000081526004016105fd9061146e565b60405180910390fd5b60006106118461036e565b60ff1614610654576040517f08c379a000000000000000000000000000000000000000000000000000000000815260040161064b906113ee565b60405180910390fd5b6001600084815260200190815260200160002073__$4c0484323457fe1a856f46a4759b553fe4$__63b4bdd117909184846040518463ffffffff1660e01b81526004016106a39392919061150e565b60006040518083038186803b1580156106bb57600080fd5b505af41580156106cf573d6000803e3d6000fd5b50505050827fc3082aa494e9088c2c9f0fb62a0b6bd46e6699acb94cfba35be29b95a93f68c883836040516107059291906115a4565b60405180910390a2505050565b600033905090565b60006107258761036e565b60ff161415610769576040517f08c379a00000000000000000000000000000000000000000000000000000000081526004016107609061144e565b60405180910390fd5b6001600087815260200190815260200160002073__$4c0484323457fe1a856f46a4759b553fe4$__630629596f909187878787876040518763ffffffff1660e01b81526004016107be969594939291906114b7565b60006040518083038186803b1580156107d657600080fd5b505af41580156107ea573d6000803e3d6000fd5b5050505060006107f987610433565b9050867fe270325ded177064d7bda473e6519ef40a291058c41286f71a6e4872f1e9ab5c878360405161082d929190611560565b60405180910390a250505050505050565b60006108498361036e565b60ff16141561088d576040517f08c379a00000000000000000000000000000000000000000000000000000000081526004016108849061144e565b60405180910390fd5b6001600083815260200190815260200160002073__$4c0484323457fe1a856f46a4759b553fe4$__63168703fa9091836040518363ffffffff1660e01b81526004016108da92919061148e565b60006040518083038186803b1580156108f257600080fd5b505af4158015610906573d6000803e3d6000fd5b50505050600061091583610433565b9050827f03fd27265b7dd1f55558bedc22a58fa3b10afb1be776e614bd5a7ba7b94994068383604051610949929190611560565b60405180910390a2505050565b60008085815260200190815260200160002060009054906101000a900460ff16156109b6576040517f08c379a00000000000000000000000000000000000000000000000000000000081526004016109ad906113ce565b60405180910390fd5b60006109c187610caf565b90508173ffffffffffffffffffffffffffffffffffffffff16635fe8c13b604051806040016040528086600060088110610a24577f4e487b7100000000000000000000000000000000000000000000000000000000600052603260045260246000fd5b6020020135815260200186600160088110610a68577f4e487b7100000000000000000000000000000000000000000000000000000000600052603260045260246000fd5b60200201358152506040518060400160405280604051806040016040528089600260088110610ac0577f4e487b7100000000000000000000000000000000000000000000000000000000600052603260045260246000fd5b6020020135815260200189600360088110610b04577f4e487b7100000000000000000000000000000000000000000000000000000000600052603260045260246000fd5b60200201358152508152602001604051806040016040528089600460088110610b56577f4e487b7100000000000000000000000000000000000000000000000000000000600052603260045260246000fd5b6020020135815260200189600560088110610b9a577f4e487b7100000000000000000000000000000000000000000000000000000000600052603260045260246000fd5b6020020135815250815250604051806040016040528088600660088110610bea577f4e487b7100000000000000000000000000000000000000000000000000000000600052603260045260246000fd5b6020020135815260200188600760088110610c2e577f4e487b7100000000000000000000000000000000000000000000000000000000600052603260045260246000fd5b602002013581525060405180608001604052808c81526020018b81526020018781526020018a8152506040518563ffffffff1660e01b8152600401610c76949392919061136c565b60006040518083038186803b158015610c8e57600080fd5b505afa158015610ca2573d6000803e3d6000fd5b5050505050505050505050565b6000600882604051602001610cc49190611351565b6040516020818303038152906040528051906020012060001c901c9050919050565b600081359050610cf581611906565b92915050565b600081905082602060080282011115610d1357600080fd5b92915050565b60008083601f840112610d2b57600080fd5b8235905067ffffffffffffffff811115610d4457600080fd5b602083019150836020820283011115610d5c57600080fd5b9250929050565b60008083601f840112610d7557600080fd5b8235905067ffffffffffffffff811115610d8e57600080fd5b602083019150836020820283011115610da657600080fd5b9250929050565b600081359050610dbc8161191d565b92915050565b600081359050610dd181611934565b92915050565b600081359050610de68161194b565b92915050565b6000806000806101608587031215610e0357600080fd5b6000610e1187828801610dad565b9450506020610e2287828801610dc2565b9350506040610e3387828801610dc2565b9250506060610e4487828801610cfb565b91505092959194509250565b600060208284031215610e6257600080fd5b6000610e7084828501610dc2565b91505092915050565b600080600060608486031215610e8e57600080fd5b6000610e9c86828701610dc2565b9350506020610ead86828701610ce6565b9250506040610ebe86828701610dd7565b9150509250925092565b60008060408385031215610edb57600080fd5b6000610ee985828601610dc2565b9250506020610efa85828601610dc2565b9150509250929050565b60008060008060008060808789031215610f1d57600080fd5b6000610f2b89828a01610dc2565b9650506020610f3c89828a01610dc2565b955050604087013567ffffffffffffffff811115610f5957600080fd5b610f6589828a01610d19565b9450945050606087013567ffffffffffffffff811115610f8457600080fd5b610f9089828a01610d63565b92509250509295509295509295565b6000610fab838361103e565b60408301905092915050565b6000610fc383836112f7565b60208301905092915050565b6000610fdb8383611342565b60208301905092915050565b610ff0816115f5565b610ffa818461164a565b9250611005826115cd565b8060005b8381101561103657815161101d8782610f9f565b965061102883611616565b925050600181019050611009565b505050505050565b61104781611600565b6110518184611655565b925061105c826115d7565b8060005b8381101561108d5781516110748782610fb7565b965061107f83611623565b925050600181019050611060565b505050505050565b61109e81611600565b6110a88184611660565b92506110b3826115d7565b8060005b838110156110e45781516110cb8782610fb7565b96506110d683611623565b9250506001810190506110b7565b505050505050565b6110f58161160b565b6110ff818461166b565b925061110a826115e1565b8060005b8381101561113b5781516111228782610fb7565b965061112d83611630565b92505060018101905061110e565b505050505050565b600061114f8385611676565b93507f07ffffffffffffffffffffffffffffffffffffffffffffffffffffffffffffff83111561117e57600080fd5b60208302925061118f838584611713565b82840190509392505050565b60006111a78385611687565b93506111b2826115eb565b8060005b858110156111eb576111c882846116a9565b6111d28882610fcf565b97506111dd8361163d565b9250506001810190506111b6565b5085925050509392505050565b611201816116d2565b82525050565b611218611213826116d2565b611722565b82525050565b600061122b603683611698565b91506112368261172c565b604082019050919050565b600061124e602583611698565b91506112598261177b565b604082019050919050565b6000611271603583611698565b915061127c826117ca565b604082019050919050565b6000611294603183611698565b915061129f82611819565b604082019050919050565b60006112b7602583611698565b91506112c282611868565b604082019050919050565b60006112da603683611698565b91506112e5826118b7565b604082019050919050565b8082525050565b611300816116fc565b82525050565b61130f816116fc565b82525050565b61131e816116fc565b82525050565b61132d81611706565b82525050565b61133c81611706565b82525050565b61134b81611706565b82525050565b600061135d8284611207565b60208201915081905092915050565b6000610180820190506113826000830187611095565b61138f6040830186610fe7565b61139c60c0830185611095565b6113aa6101008301846110ec565b95945050505050565b60006020820190506113c860008301846111f8565b92915050565b600060208201905081810360008301526113e78161121e565b9050919050565b6000602082019050818103600083015261140781611241565b9050919050565b6000602082019050818103600083015261142781611264565b9050919050565b6000602082019050818103600083015261144781611287565b9050919050565b60006020820190508181036000830152611467816112aa565b9050919050565b60006020820190508181036000830152611487816112cd565b9050919050565b60006040820190506114a360008301856112f0565b6114b06020830184611315565b9392505050565b60006080820190506114cc60008301896112f0565b6114d96020830188611315565b81810360408301526114ec818688611143565b9050818103606083015261150181848661119b565b9050979650505050505050565b600060608201905061152360008301866112f0565b6115306020830185611333565b61153d6040830184611315565b949350505050565b600060208201905061155a6000830184611306565b92915050565b60006040820190506115756000830185611306565b6115826020830184611306565b9392505050565b600060208201905061159e6000830184611324565b92915050565b60006040820190506115b96000830185611324565b6115c66020830184611306565b9392505050565b6000819050919050565b6000819050919050565b6000819050919050565b6000819050919050565b600060029050919050565b600060029050919050565b600060049050919050565b6000602082019050919050565b6000602082019050919050565b6000602082019050919050565b6000602082019050919050565b600081905092915050565b600081905092915050565b600081905092915050565b600081905092915050565b600082825260208201905092915050565b600082825260208201905092915050565b600082825260208201905092915050565b60006116b86020840184610dd7565b905092915050565b60006116cb826116dc565b9050919050565b6000819050919050565b600073ffffffffffffffffffffffffffffffffffffffff82169050919050565b6000819050919050565b600060ff82169050919050565b82818337600083830152505050565b6000819050919050565b7f53656d6170686f7265436f72653a20796f752063616e6e6f742075736520746860008201527f652073616d65206e756c6c696669657220747769636500000000000000000000602082015250565b7f53656d6170686f726547726f7570733a2067726f757020616c7265616479206560008201527f7869737473000000000000000000000000000000000000000000000000000000602082015250565b7f53656d6170686f726557686973746c65626c6f77696e673a206465707468207660008201527f616c7565206973206e6f7420737570706f727465640000000000000000000000602082015250565b7f53656d6170686f726557686973746c65626c6f77696e673a2063616c6c65722060008201527f6973206e6f742074686520656469746f72000000000000000000000000000000602082015250565b7f53656d6170686f726547726f7570733a2067726f757020646f6573206e6f742060008201527f6578697374000000000000000000000000000000000000000000000000000000602082015250565b7f53656d6170686f726547726f7570733a2067726f7570206964206d757374206260008201527f65203c20534e41524b5f5343414c41525f4649454c4400000000000000000000602082015250565b61190f816116c0565b811461191a57600080fd5b50565b611926816116d2565b811461193157600080fd5b50565b61193d816116fc565b811461194857600080fd5b50565b61195481611706565b811461195f57600080fd5b5056fea2646970667358221220b19a35977542fe354d504d4f60c2d620343ac63370a100c15acacd641b7a85a464736f6c63430008040033",
  "linkReferences": {
    "@zk-kit/incremental-merkle-tree.sol/contracts/IncrementalBinaryTree.sol": {
      "IncrementalBinaryTree": [
        {
          "length": 20,
          "start": 3210
        },
        {
          "length": 20,
          "start": 3487
        },
        {
          "length": 20,
          "start": 3779
        }
      ]
    }
  },
  "deployedLinkReferences": {
    "@zk-kit/incremental-merkle-tree.sol/contracts/IncrementalBinaryTree.sol": {
      "IncrementalBinaryTree": [
        {
          "length": 20,
          "start": 1641
        },
        {
          "length": 20,
          "start": 1918
        },
        {
          "length": 20,
          "start": 2210
        }
      ]
    }
  }
}