{
  "_format": "hh-sol-artifact-1",
  "contractName": "zkStakeV2",
  "sourceName": "contracts/extensions/zkStakeV2.sol",
  "abi": [
    {
      "inputs": [
        {
          "internalType": "address",
          "name": "v",
          "type": "address"
        }
      ],
      "stateMutability": "nonpayable",
      "type": "constructor"
    },
    {
      "anonymous": false,
      "inputs": [
        {
          "indexed": false,
          "internalType": "uint256",
          "name": "entityId",
          "type": "uint256"
        },
        {
          "indexed": true,
          "internalType": "address",
          "name": "editor",
          "type": "address"
        }
      ],
      "name": "EntityCreated",
      "type": "event"
    },
    {
      "anonymous": false,
      "inputs": [
        {
          "indexed": true,
          "internalType": "uint256",
          "name": "groupId",
          "type": "uint256"
        },
        {
          "indexed": false,
          "internalType": "uint8",
          "name": "depth",
          "type": "uint8"
        },
        {
          "indexed": false,
          "internalType": "uint256",
          "name": "zeroValue",
          "type": "uint256"
        }
      ],
      "name": "GroupCreated",
      "type": "event"
    },
    {
      "anonymous": false,
      "inputs": [
        {
          "indexed": true,
          "internalType": "uint256",
          "name": "groupId",
          "type": "uint256"
        },
        {
          "indexed": false,
          "internalType": "uint256",
          "name": "identityCommitment",
          "type": "uint256"
        },
        {
          "indexed": false,
          "internalType": "uint256",
          "name": "root",
          "type": "uint256"
        }
      ],
      "name": "MemberAdded",
      "type": "event"
    },
    {
      "anonymous": false,
      "inputs": [
        {
          "indexed": true,
          "internalType": "uint256",
          "name": "groupId",
          "type": "uint256"
        },
        {
          "indexed": false,
          "internalType": "uint256",
          "name": "identityCommitment",
          "type": "uint256"
        },
        {
          "indexed": false,
          "internalType": "uint256",
          "name": "root",
          "type": "uint256"
        }
      ],
      "name": "MemberRemoved",
      "type": "event"
    },
    {
      "anonymous": false,
      "inputs": [
        {
          "indexed": false,
          "internalType": "uint256",
          "name": "nullifierHash",
          "type": "uint256"
        }
      ],
      "name": "NullifierHashAdded",
      "type": "event"
    },
    {
      "inputs": [
        {
          "internalType": "uint256",
          "name": "entityId",
          "type": "uint256"
        },
        {
          "internalType": "uint256",
          "name": "identityCommitment",
          "type": "uint256"
        },
        {
          "internalType": "uint256",
          "name": "id",
          "type": "uint256"
        }
      ],
      "name": "addDAOIdentity",
      "outputs": [],
      "stateMutability": "nonpayable",
      "type": "function"
    },
    {
      "inputs": [
        {
          "internalType": "uint256",
          "name": "",
          "type": "uint256"
        },
        {
          "internalType": "uint256",
          "name": "",
          "type": "uint256"
        }
      ],
      "name": "commitIndex",
      "outputs": [
        {
          "internalType": "uint256",
          "name": "",
          "type": "uint256"
        }
      ],
      "stateMutability": "view",
      "type": "function"
    },
    {
      "inputs": [
        {
          "internalType": "uint256",
          "name": "",
          "type": "uint256"
        }
      ],
      "name": "commitmentNFTs",
      "outputs": [
        {
          "internalType": "uint256",
          "name": "",
          "type": "uint256"
        }
      ],
      "stateMutability": "view",
      "type": "function"
    },
    {
      "inputs": [
        {
          "internalType": "uint256",
          "name": "",
          "type": "uint256"
        },
        {
          "internalType": "uint256",
          "name": "",
          "type": "uint256"
        }
      ],
      "name": "commitments",
      "outputs": [
        {
          "internalType": "uint256",
          "name": "",
          "type": "uint256"
        }
      ],
      "stateMutability": "view",
      "type": "function"
    },
    {
      "inputs": [
        {
          "internalType": "uint256",
          "name": "entityId",
          "type": "uint256"
        },
        {
          "internalType": "address",
          "name": "editor",
          "type": "address"
        },
        {
          "internalType": "address",
          "name": "token",
          "type": "address"
        },
        {
          "internalType": "enum zkStakeV2.STAKE_TYPE",
          "name": "option",
          "type": "uint8"
        },
        {
          "internalType": "uint256",
          "name": "value",
          "type": "uint256"
        }
      ],
      "name": "createEntity",
      "outputs": [],
      "stateMutability": "nonpayable",
      "type": "function"
    },
    {
      "inputs": [
        {
          "internalType": "uint256",
          "name": "",
          "type": "uint256"
        }
      ],
      "name": "entityTokenInterface",
      "outputs": [
        {
          "internalType": "enum zkStakeV2.STAKE_TYPE",
          "name": "",
          "type": "uint8"
        }
      ],
      "stateMutability": "view",
      "type": "function"
    },
    {
      "inputs": [
        {
          "internalType": "uint256",
          "name": "groupId",
          "type": "uint256"
        }
      ],
      "name": "getDepth",
      "outputs": [
        {
          "internalType": "uint8",
          "name": "",
          "type": "uint8"
        }
      ],
      "stateMutability": "view",
      "type": "function"
    },
    {
      "inputs": [
        {
          "internalType": "uint256",
          "name": "g",
          "type": "uint256"
        }
      ],
      "name": "getGroupCommitments",
      "outputs": [
        {
          "internalType": "uint256[]",
          "name": "",
          "type": "uint256[]"
        }
      ],
      "stateMutability": "view",
      "type": "function"
    },
    {
      "inputs": [
        {
          "internalType": "uint256",
          "name": "groupId",
          "type": "uint256"
        }
      ],
      "name": "getNumberOfLeaves",
      "outputs": [
        {
          "internalType": "uint256",
          "name": "",
          "type": "uint256"
        }
      ],
      "stateMutability": "view",
      "type": "function"
    },
    {
      "inputs": [
        {
          "internalType": "uint256",
          "name": "groupId",
          "type": "uint256"
        }
      ],
      "name": "getRoot",
      "outputs": [
        {
          "internalType": "uint256",
          "name": "",
          "type": "uint256"
        }
      ],
      "stateMutability": "view",
      "type": "function"
    },
    {
      "inputs": [
        {
          "internalType": "uint256",
          "name": "",
          "type": "uint256"
        }
      ],
      "name": "membershipTokens",
      "outputs": [
        {
          "internalType": "address",
          "name": "",
          "type": "address"
        }
      ],
      "stateMutability": "view",
      "type": "function"
    },
    {
      "inputs": [
        {
          "internalType": "address",
          "name": "",
          "type": "address"
        },
        {
          "internalType": "address",
          "name": "",
          "type": "address"
        },
        {
          "internalType": "uint256[]",
          "name": "",
          "type": "uint256[]"
        },
        {
          "internalType": "uint256[]",
          "name": "",
          "type": "uint256[]"
        },
        {
          "internalType": "bytes",
          "name": "",
          "type": "bytes"
        }
      ],
      "name": "onERC1155BatchReceived",
      "outputs": [
        {
          "internalType": "bytes4",
          "name": "",
          "type": "bytes4"
        }
      ],
      "stateMutability": "nonpayable",
      "type": "function"
    },
    {
      "inputs": [
        {
          "internalType": "address",
          "name": "",
          "type": "address"
        },
        {
          "internalType": "address",
          "name": "",
          "type": "address"
        },
        {
          "internalType": "uint256",
          "name": "",
          "type": "uint256"
        },
        {
          "internalType": "uint256",
          "name": "",
          "type": "uint256"
        },
        {
          "internalType": "bytes",
          "name": "",
          "type": "bytes"
        }
      ],
      "name": "onERC1155Received",
      "outputs": [
        {
          "internalType": "bytes4",
          "name": "",
          "type": "bytes4"
        }
      ],
      "stateMutability": "nonpayable",
      "type": "function"
    },
    {
      "inputs": [
        {
          "internalType": "address",
          "name": "",
          "type": "address"
        },
        {
          "internalType": "address",
          "name": "",
          "type": "address"
        },
        {
          "internalType": "uint256",
          "name": "",
          "type": "uint256"
        },
        {
          "internalType": "bytes",
          "name": "",
          "type": "bytes"
        }
      ],
      "name": "onERC721Received",
      "outputs": [
        {
          "internalType": "bytes4",
          "name": "",
          "type": "bytes4"
        }
      ],
      "stateMutability": "nonpayable",
      "type": "function"
    },
    {
      "inputs": [
        {
          "internalType": "uint256",
          "name": "entityId",
          "type": "uint256"
        },
        {
          "internalType": "uint256",
          "name": "identityCommitment",
          "type": "uint256"
        },
        {
          "internalType": "uint256[]",
          "name": "proofSiblings",
          "type": "uint256[]"
        },
        {
          "internalType": "uint8[]",
          "name": "proofPathIndices",
          "type": "uint8[]"
        },
        {
          "internalType": "address",
          "name": "receiver",
          "type": "address"
        }
      ],
      "name": "removeDAOIdentity",
      "outputs": [],
      "stateMutability": "nonpayable",
      "type": "function"
    },
    {
      "inputs": [
        {
          "internalType": "uint256",
          "name": "",
          "type": "uint256"
        }
      ],
      "name": "stakeAmounts",
      "outputs": [
        {
          "internalType": "uint256",
          "name": "",
          "type": "uint256"
        }
      ],
      "stateMutability": "view",
      "type": "function"
    },
    {
      "inputs": [
        {
          "internalType": "bytes4",
          "name": "interfaceId",
          "type": "bytes4"
        }
      ],
      "name": "supportsInterface",
      "outputs": [
        {
          "internalType": "bool",
          "name": "",
          "type": "bool"
        }
      ],
      "stateMutability": "view",
      "type": "function"
    },
    {
      "inputs": [],
      "name": "verifier",
      "outputs": [
        {
          "internalType": "address",
          "name": "",
          "type": "address"
        }
      ],
      "stateMutability": "view",
      "type": "function"
    },
    {
      "inputs": [
        {
          "internalType": "bytes32",
          "name": "challenge",
          "type": "bytes32"
        },
        {
          "internalType": "uint256",
          "name": "nullifierHash",
          "type": "uint256"
        },
        {
          "internalType": "uint256",
          "name": "entityId",
          "type": "uint256"
        },
        {
          "internalType": "uint256[8]",
          "name": "proof",
          "type": "uint256[8]"
        }
      ],
      "name": "verifyIdentityChallenge",
      "outputs": [
        {
          "internalType": "bool",
          "name": "",
          "type": "bool"
        }
      ],
      "stateMutability": "view",
      "type": "function"
    }
  ],
  "bytecode": "0x60806040523480156200001157600080fd5b506040516200345338038062003453833981810160405281019062000037919062000096565b80600960006101000a81548173ffffffffffffffffffffffffffffffffffffffff021916908373ffffffffffffffffffffffffffffffffffffffff1602179055505062000110565b6000815190506200009081620000f6565b92915050565b600060208284031215620000a957600080fd5b6000620000b9848285016200007f565b91505092915050565b6000620000cf82620000d6565b9050919050565b600073ffffffffffffffffffffffffffffffffffffffff82169050919050565b6200010181620000c2565b81146200010d57600080fd5b50565b61333380620001206000396000f3fe608060405234801561001057600080fd5b50600436106101215760003560e01c80639b24b3b0116100ad578063bc197c8111610071578063bc197c811461038c578063d13e2e60146103bc578063d5e71243146103ec578063d868b1fd1461041c578063f23a6e611461043857610121565b80639b24b3b0146102b0578063a57f8f79146102e0578063a98fc76114610310578063b07ba17c1461032c578063b9c78c2b1461035c57610121565b80631c1b4f3a116100f45780631c1b4f3a146101d25780632b7ac3f3146102025780634d56f27d1461022057806375e618c9146102505780638cdde82e1461028057610121565b806301ffc9a71461012657806305279f8e14610156578063117ada3214610186578063150b7a02146101a2575b600080fd5b610140600480360381019061013b919061214d565b610468565b60405161014d91906129a6565b60405180910390f35b610170600480360381019061016b9190612176565b6104e2565b60405161017d9190612984565b60405180910390f35b6101a0600480360381019061019b9190612252565b61054d565b005b6101bc60048036038101906101b79190611fb6565b6109b7565b6040516101c991906129c1565b60405180910390f35b6101ec60048036038101906101e79190612176565b6109cb565b6040516101f99190612bd0565b60405180910390f35b61020a6109e3565b6040516102179190612893565b60405180910390f35b61023a60048036038101906102359190612176565b610a09565b6040516102479190612893565b60405180910390f35b61026a60048036038101906102659190612176565b610a3c565b6040516102779190612c14565b60405180910390f35b61029a60048036038101906102959190612176565b610a69565b6040516102a79190612bd0565b60405180910390f35b6102ca60048036038101906102c59190612176565b610a81565b6040516102d79190612bd0565b60405180910390f35b6102fa60048036038101906102f59190612216565b610aa1565b6040516103079190612bd0565b60405180910390f35b61032a6004803603810190610325919061219f565b610ac6565b005b61034660048036038101906103419190612176565b610ccf565b60405161035391906129dc565b60405180910390f35b61037660048036038101906103719190612176565b610cef565b6040516103839190612bd0565b60405180910390f35b6103a660048036038101906103a19190611ef7565b610d0f565b6040516103b391906129c1565b60405180910390f35b6103d660048036038101906103d19190612216565b610d24565b6040516103e39190612bd0565b60405180910390f35b610406600480360381019061040191906120e9565b610d55565b60405161041391906129a6565b60405180910390f35b61043660048036038101906104319190612302565b610dac565b005b610452600480360381019061044d9190612031565b6111f5565b60405161045f91906129c1565b60405180910390f35b60007f4e2312e0000000000000000000000000000000000000000000000000000000007bffffffffffffffffffffffffffffffffffffffffffffffffffffffff1916827bffffffffffffffffffffffffffffffffffffffffffffffffffffffff191614806104db57506104da8261120a565b5b9050919050565b60606003600083815260200190815260200160002080548060200260200160405190810160405280929190818152602001828054801561054157602002820191906000526020600020905b81548152602001906001019080831161052d575b50505050509050919050565b866002600061055a611274565b73ffffffffffffffffffffffffffffffffffffffff1673ffffffffffffffffffffffffffffffffffffffff1681526020019081526020016000205481146105d6576040517f08c379a00000000000000000000000000000000000000000000000000000000081526004016105cd90612a59565b60405180910390fd5b6105e488888888888861127c565b6000600281111561061e577f4e487b7100000000000000000000000000000000000000000000000000000000600052602160045260246000fd5b600760008a815260200190815260200160002060009054906101000a900460ff166002811115610677577f4e487b7100000000000000000000000000000000000000000000000000000000600052602160045260246000fd5b1415610737576005600089815260200190815260200160002060009054906101000a900473ffffffffffffffffffffffffffffffffffffffff1673ffffffffffffffffffffffffffffffffffffffff166342842e0e3084600660008d8152602001908152602001600020546040518463ffffffff1660e01b8152600401610700939291906128ae565b600060405180830381600087803b15801561071a57600080fd5b505af115801561072e573d6000803e3d6000fd5b505050506109ad565b60016002811115610771577f4e487b7100000000000000000000000000000000000000000000000000000000600052602160045260246000fd5b600760008a815260200190815260200160002060009054906101000a900460ff1660028111156107ca577f4e487b7100000000000000000000000000000000000000000000000000000000600052602160045260246000fd5b141561089f576005600089815260200190815260200160002060009054906101000a900473ffffffffffffffffffffffffffffffffffffffff1673ffffffffffffffffffffffffffffffffffffffff1663f242432a3084600660008d815260200190815260200160002054600860008e8152602001908152602001600020546040518563ffffffff1660e01b815260040161086894939291906128e5565b600060405180830381600087803b15801561088257600080fd5b505af1158015610896573d6000803e3d6000fd5b505050506109ac565b6002808111156108d8577f4e487b7100000000000000000000000000000000000000000000000000000000600052602160045260246000fd5b600760008a815260200190815260200160002060009054906101000a900460ff166002811115610931577f4e487b7100000000000000000000000000000000000000000000000000000000600052602160045260246000fd5b14156109ab576109aa8230600860008c815260200190815260200160002054600560008d815260200190815260200160002060009054906101000a900473ffffffffffffffffffffffffffffffffffffffff1673ffffffffffffffffffffffffffffffffffffffff166113a0909392919063ffffffff16565b5b5b5b5050505050505050565b600063150b7a0260e01b9050949350505050565b60086020528060005260406000206000915090505481565b600960009054906101000a900473ffffffffffffffffffffffffffffffffffffffff1681565b60056020528060005260406000206000915054906101000a900473ffffffffffffffffffffffffffffffffffffffff1681565b60006001600083815260200190815260200160002060000160009054906101000a900460ff169050919050565b60066020528060005260406000206000915090505481565b600060016000838152602001908152602001600020600101549050919050565b6004602052816000526040600020602052806000526040600020600091509150505481565b610ad38560006014611429565b816007600087815260200190815260200160002060006101000a81548160ff02191690836002811115610b2f577f4e487b7100000000000000000000000000000000000000000000000000000000600052602160045260246000fd5b021790555060006002811115610b6e577f4e487b7100000000000000000000000000000000000000000000000000000000600052602160045260246000fd5b826002811115610ba7577f4e487b7100000000000000000000000000000000000000000000000000000000600052602160045260246000fd5b1415610bcb5760016008600087815260200190815260200160002081905550610be4565b8060086000878152602001908152602001600020819055505b84600260008673ffffffffffffffffffffffffffffffffffffffff1673ffffffffffffffffffffffffffffffffffffffff16815260200190815260200160002081905550826005600087815260200190815260200160002060006101000a81548173ffffffffffffffffffffffffffffffffffffffff021916908373ffffffffffffffffffffffffffffffffffffffff1602179055508373ffffffffffffffffffffffffffffffffffffffff167f5340f46ccfdbf46cea681e7481c711c8838cbcda1356cab6f31a2d0b2cd3525a86604051610cc09190612bd0565b60405180910390a25050505050565b60076020528060005260406000206000915054906101000a900460ff1681565b600060016000838152602001908152602001600020600201549050919050565b600063bc197c8160e01b905095945050505050565b60036020528160005260406000208181548110610d4057600080fd5b90600052602060002001600091509150505481565b600080610d9e866001600087815260200190815260200160002060010154878787600960009054906101000a900473ffffffffffffffffffffffffffffffffffffffff16611597565b905080915050949350505050565b60006002811115610de6577f4e487b7100000000000000000000000000000000000000000000000000000000600052602160045260246000fd5b6007600085815260200190815260200160002060009054906101000a900460ff166002811115610e3f577f4e487b7100000000000000000000000000000000000000000000000000000000600052602160045260246000fd5b1415610eec576005600084815260200190815260200160002060009054906101000a900473ffffffffffffffffffffffffffffffffffffffff1673ffffffffffffffffffffffffffffffffffffffff166342842e0e3330846040518463ffffffff1660e01b8152600401610eb5939291906128ae565b600060405180830381600087803b158015610ecf57600080fd5b505af1158015610ee3573d6000803e3d6000fd5b5050505061114f565b60016002811115610f26577f4e487b7100000000000000000000000000000000000000000000000000000000600052602160045260246000fd5b6007600085815260200190815260200160002060009054906101000a900460ff166002811115610f7f577f4e487b7100000000000000000000000000000000000000000000000000000000600052602160045260246000fd5b1415611041576005600084815260200190815260200160002060009054906101000a900473ffffffffffffffffffffffffffffffffffffffff1673ffffffffffffffffffffffffffffffffffffffff1663f242432a33308460086000898152602001908152602001600020546040518563ffffffff1660e01b815260040161100a94939291906128e5565b600060405180830381600087803b15801561102457600080fd5b505af1158015611038573d6000803e3d6000fd5b5050505061114e565b60028081111561107a577f4e487b7100000000000000000000000000000000000000000000000000000000600052602160045260246000fd5b6007600085815260200190815260200160002060009054906101000a900460ff1660028111156110d3577f4e487b7100000000000000000000000000000000000000000000000000000000600052602160045260246000fd5b141561114d5761114c333060086000878152602001908152602001600020546005600088815260200190815260200160002060009054906101000a900473ffffffffffffffffffffffffffffffffffffffff1673ffffffffffffffffffffffffffffffffffffffff166113a0909392919063ffffffff16565b5b5b5b6000600360008581526020019081526020016000208054905090506003600085815260200190815260200160002083908060018154018082558091505060019003906000526020600020016000909190919091505580600460008681526020019081526020016000206000858152602001908152602001600020819055508160066000868152602001908152602001600020819055506111ef84846118f8565b50505050565b600063f23a6e6160e01b905095945050505050565b60007f01ffc9a7000000000000000000000000000000000000000000000000000000007bffffffffffffffffffffffffffffffffffffffffffffffffffffffff1916827bffffffffffffffffffffffffffffffffffffffffffffffffffffffff1916149050919050565b600033905090565b600061128787610a3c565b60ff1614156112cb576040517f08c379a00000000000000000000000000000000000000000000000000000000081526004016112c290612a99565b60405180910390fd5b6001600087815260200190815260200160002073__$4c0484323457fe1a856f46a4759b553fe4$__630629596f909187878787876040518763ffffffff1660e01b815260040161132096959493929190612b42565b60006040518083038186803b15801561133857600080fd5b505af415801561134c573d6000803e3d6000fd5b50505050600061135b87610a81565b9050867fe270325ded177064d7bda473e6519ef40a291058c41286f71a6e4872f1e9ab5c878360405161138f929190612beb565b60405180910390a250505050505050565b611423846323b872dd60e01b8585856040516024016113c1939291906128ae565b604051602081830303815290604052907bffffffffffffffffffffffffffffffffffffffffffffffffffffffff19166020820180517bffffffffffffffffffffffffffffffffffffffffffffffffffffffff8381831617835250505050611a10565b50505050565b7f30644e72e131a029b85045b68181585d2833e84879b9709143e1f593f0000001831061148b576040517f08c379a000000000000000000000000000000000000000000000000000000000815260040161148290612af9565b60405180910390fd5b600061149684610a3c565b60ff16146114d9576040517f08c379a00000000000000000000000000000000000000000000000000000000081526004016114d090612a39565b60405180910390fd5b6001600084815260200190815260200160002073__$4c0484323457fe1a856f46a4759b553fe4$__63b4bdd117909184846040518463ffffffff1660e01b815260040161152893929190612b99565b60006040518083038186803b15801561154057600080fd5b505af4158015611554573d6000803e3d6000fd5b50505050827fc3082aa494e9088c2c9f0fb62a0b6bd46e6699acb94cfba35be29b95a93f68c8838360405161158a929190612c2f565b60405180910390a2505050565b600080600086815260200190815260200160002060009054906101000a900460ff16156115f9576040517f08c379a00000000000000000000000000000000000000000000000000000000081526004016115f090612a19565b60405180910390fd5b600061160488611ad7565b90508273ffffffffffffffffffffffffffffffffffffffff16635fe8c13b604051806040016040528087600060088110611667577f4e487b7100000000000000000000000000000000000000000000000000000000600052603260045260246000fd5b60200201358152602001876001600881106116ab577f4e487b7100000000000000000000000000000000000000000000000000000000600052603260045260246000fd5b6020020135815250604051806040016040528060405180604001604052808a600260088110611703577f4e487b7100000000000000000000000000000000000000000000000000000000600052603260045260246000fd5b602002013581526020018a600360088110611747577f4e487b7100000000000000000000000000000000000000000000000000000000600052603260045260246000fd5b6020020135815250815260200160405180604001604052808a600460088110611799577f4e487b7100000000000000000000000000000000000000000000000000000000600052603260045260246000fd5b602002013581526020018a6005600881106117dd577f4e487b7100000000000000000000000000000000000000000000000000000000600052603260045260246000fd5b602002013581525081525060405180604001604052808960066008811061182d577f4e487b7100000000000000000000000000000000000000000000000000000000600052603260045260246000fd5b6020020135815260200189600760088110611871577f4e487b7100000000000000000000000000000000000000000000000000000000600052603260045260246000fd5b602002013581525060405180608001604052808d81526020018c81526020018781526020018b8152506040518563ffffffff1660e01b81526004016118b9949392919061293d565b60006040518083038186803b1580156118d157600080fd5b505afa1580156118e5573d6000803e3d6000fd5b5050505060019150509695505050505050565b600061190383610a3c565b60ff161415611947576040517f08c379a000000000000000000000000000000000000000000000000000000000815260040161193e90612a99565b60405180910390fd5b6001600083815260200190815260200160002073__$4c0484323457fe1a856f46a4759b553fe4$__63168703fa9091836040518363ffffffff1660e01b8152600401611994929190612b19565b60006040518083038186803b1580156119ac57600080fd5b505af41580156119c0573d6000803e3d6000fd5b5050505060006119cf83610a81565b9050827f03fd27265b7dd1f55558bedc22a58fa3b10afb1be776e614bd5a7ba7b94994068383604051611a03929190612beb565b60405180910390a2505050565b6000611a72826040518060400160405280602081526020017f5361666545524332303a206c6f772d6c6576656c2063616c6c206661696c65648152508573ffffffffffffffffffffffffffffffffffffffff16611b0e9092919063ffffffff16565b9050600081511115611ad25780806020019051810190611a9291906120c0565b611ad1576040517f08c379a0000000000000000000000000000000000000000000000000000000008152600401611ac890612ad9565b60405180910390fd5b5b505050565b6000600882604051602001611aec9190612861565b6040516020818303038152906040528051906020012060001c901c9050919050565b6060611b1d8484600085611b26565b90509392505050565b606082471015611b6b576040517f08c379a0000000000000000000000000000000000000000000000000000000008152600401611b6290612a79565b60405180910390fd5b611b7485611c3a565b611bb3576040517f08c379a0000000000000000000000000000000000000000000000000000000008152600401611baa90612ab9565b60405180910390fd5b6000808673ffffffffffffffffffffffffffffffffffffffff168587604051611bdc919061287c565b60006040518083038185875af1925050503d8060008114611c19576040519150601f19603f3d011682016040523d82523d6000602084013e611c1e565b606091505b5091509150611c2e828286611c4d565b92505050949350505050565b600080823b905060008111915050919050565b60608315611c5d57829050611cad565b600083511115611c705782518084602001fd5b816040517f08c379a0000000000000000000000000000000000000000000000000000000008152600401611ca491906129f7565b60405180910390fd5b9392505050565b6000611cc7611cc284612c7d565b612c58565b90508083825260208201905082856020860282011115611ce657600080fd5b60005b85811015611d165781611cfc8882611ecd565b845260208401935060208301925050600181019050611ce9565b5050509392505050565b6000611d33611d2e84612ca9565b612c58565b905082815260208101848484011115611d4b57600080fd5b611d56848285612ee8565b509392505050565b600081359050611d6d81613263565b92915050565b600081905082602060080282011115611d8b57600080fd5b92915050565b60008083601f840112611da357600080fd5b8235905067ffffffffffffffff811115611dbc57600080fd5b602083019150836020820283011115611dd457600080fd5b9250929050565b600082601f830112611dec57600080fd5b8135611dfc848260208601611cb4565b91505092915050565b60008083601f840112611e1757600080fd5b8235905067ffffffffffffffff811115611e3057600080fd5b602083019150836020820283011115611e4857600080fd5b9250929050565b600081519050611e5e8161327a565b92915050565b600081359050611e7381613291565b92915050565b600081359050611e88816132a8565b92915050565b600082601f830112611e9f57600080fd5b8135611eaf848260208601611d20565b91505092915050565b600081359050611ec7816132bf565b92915050565b600081359050611edc816132cf565b92915050565b600081359050611ef1816132e6565b92915050565b600080600080600060a08688031215611f0f57600080fd5b6000611f1d88828901611d5e565b9550506020611f2e88828901611d5e565b945050604086013567ffffffffffffffff811115611f4b57600080fd5b611f5788828901611ddb565b935050606086013567ffffffffffffffff811115611f7457600080fd5b611f8088828901611ddb565b925050608086013567ffffffffffffffff811115611f9d57600080fd5b611fa988828901611e8e565b9150509295509295909350565b60008060008060808587031215611fcc57600080fd5b6000611fda87828801611d5e565b9450506020611feb87828801611d5e565b9350506040611ffc87828801611ecd565b925050606085013567ffffffffffffffff81111561201957600080fd5b61202587828801611e8e565b91505092959194509250565b600080600080600060a0868803121561204957600080fd5b600061205788828901611d5e565b955050602061206888828901611d5e565b945050604061207988828901611ecd565b935050606061208a88828901611ecd565b925050608086013567ffffffffffffffff8111156120a757600080fd5b6120b388828901611e8e565b9150509295509295909350565b6000602082840312156120d257600080fd5b60006120e084828501611e4f565b91505092915050565b600080600080610160858703121561210057600080fd5b600061210e87828801611e64565b945050602061211f87828801611ecd565b935050604061213087828801611ecd565b925050606061214187828801611d73565b91505092959194509250565b60006020828403121561215f57600080fd5b600061216d84828501611e79565b91505092915050565b60006020828403121561218857600080fd5b600061219684828501611ecd565b91505092915050565b600080600080600060a086880312156121b757600080fd5b60006121c588828901611ecd565b95505060206121d688828901611d5e565b94505060406121e788828901611d5e565b93505060606121f888828901611eb8565b925050608061220988828901611ecd565b9150509295509295909350565b6000806040838503121561222957600080fd5b600061223785828601611ecd565b925050602061224885828601611ecd565b9150509250929050565b600080600080600080600060a0888a03121561226d57600080fd5b600061227b8a828b01611ecd565b975050602061228c8a828b01611ecd565b965050604088013567ffffffffffffffff8111156122a957600080fd5b6122b58a828b01611d91565b9550955050606088013567ffffffffffffffff8111156122d457600080fd5b6122e08a828b01611e05565b935093505060806122f38a828b01611d5e565b91505092959891949750929550565b60008060006060848603121561231757600080fd5b600061232586828701611ecd565b935050602061233686828701611ecd565b925050604061234786828701611ecd565b9150509250925092565b600061235d83836123ff565b60408301905092915050565b60006123758383612807565b60208301905092915050565b600061238d8383612852565b60208301905092915050565b6123a281612e38565b82525050565b6123b181612d12565b6123bb8184612d95565b92506123c682612cda565b8060005b838110156123f75781516123de8782612351565b96506123e983612d54565b9250506001810190506123ca565b505050505050565b61240881612d1d565b6124128184612da0565b925061241d82612ce4565b8060005b8381101561244e5781516124358782612369565b965061244083612d61565b925050600181019050612421565b505050505050565b61245f81612d1d565b6124698184612dab565b925061247482612ce4565b8060005b838110156124a557815161248c8782612369565b965061249783612d61565b925050600181019050612478565b505050505050565b6124b681612d28565b6124c08184612db6565b92506124cb82612cee565b8060005b838110156124fc5781516124e38782612369565b96506124ee83612d6e565b9250506001810190506124cf565b505050505050565b60006125108385612dd2565b93507f07ffffffffffffffffffffffffffffffffffffffffffffffffffffffffffffff83111561253f57600080fd5b602083029250612550838584612ee8565b82840190509392505050565b600061256782612d33565b6125718185612dc1565b935061257c83612cf8565b8060005b838110156125ad5781516125948882612369565b975061259f83612d7b565b925050600181019050612580565b5085935050505092915050565b60006125c68385612de3565b93506125d182612d08565b8060005b8581101561260a576125e78284612e21565b6125f18882612381565b97506125fc83612d88565b9250506001810190506125d5565b5085925050509392505050565b61262081612e4a565b82525050565b61263761263282612e56565b612f5b565b82525050565b61264681612e60565b82525050565b600061265782612d3e565b6126618185612e05565b9350612671818560208601612ef7565b80840191505092915050565b61268681612ed6565b82525050565b600061269782612d49565b6126a18185612e10565b93506126b1818560208601612ef7565b6126ba81612fc3565b840191505092915050565b60006126d2603683612e10565b91506126dd82612fd4565b604082019050919050565b60006126f5600483612df4565b915061270082613023565b602082019050919050565b6000612718602583612e10565b91506127238261304c565b604082019050919050565b600061273b603183612e10565b91506127468261309b565b604082019050919050565b600061275e602683612e10565b9150612769826130ea565b604082019050919050565b6000612781602583612e10565b915061278c82613139565b604082019050919050565b60006127a4601d83612e10565b91506127af82613188565b602082019050919050565b60006127c7602a83612e10565b91506127d2826131b1565b604082019050919050565b60006127ea603683612e10565b91506127f582613200565b604082019050919050565b8082525050565b61281081612ebf565b82525050565b61281f81612ebf565b82525050565b61282e81612ebf565b82525050565b61283d81612ec9565b82525050565b61284c81612ec9565b82525050565b61285b81612ec9565b82525050565b600061286d8284612626565b60208201915081905092915050565b6000612888828461264c565b915081905092915050565b60006020820190506128a86000830184612399565b92915050565b60006060820190506128c36000830186612399565b6128d06020830185612399565b6128dd6040830184612816565b949350505050565b600060a0820190506128fa6000830187612399565b6129076020830186612399565b6129146040830185612816565b6129216060830184612816565b8181036080830152612932816126e8565b905095945050505050565b6000610180820190506129536000830187612456565b61296060408301866123a8565b61296d60c0830185612456565b61297b6101008301846124ad565b95945050505050565b6000602082019050818103600083015261299e818461255c565b905092915050565b60006020820190506129bb6000830184612617565b92915050565b60006020820190506129d6600083018461263d565b92915050565b60006020820190506129f1600083018461267d565b92915050565b60006020820190508181036000830152612a11818461268c565b905092915050565b60006020820190508181036000830152612a32816126c5565b9050919050565b60006020820190508181036000830152612a528161270b565b9050919050565b60006020820190508181036000830152612a728161272e565b9050919050565b60006020820190508181036000830152612a9281612751565b9050919050565b60006020820190508181036000830152612ab281612774565b9050919050565b60006020820190508181036000830152612ad281612797565b9050919050565b60006020820190508181036000830152612af2816127ba565b9050919050565b60006020820190508181036000830152612b12816127dd565b9050919050565b6000604082019050612b2e6000830185612800565b612b3b6020830184612825565b9392505050565b6000608082019050612b576000830189612800565b612b646020830188612825565b8181036040830152612b77818688612504565b90508181036060830152612b8c8184866125ba565b9050979650505050505050565b6000606082019050612bae6000830186612800565b612bbb6020830185612843565b612bc86040830184612825565b949350505050565b6000602082019050612be56000830184612816565b92915050565b6000604082019050612c006000830185612816565b612c0d6020830184612816565b9392505050565b6000602082019050612c296000830184612834565b92915050565b6000604082019050612c446000830185612834565b612c516020830184612816565b9392505050565b6000612c62612c73565b9050612c6e8282612f2a565b919050565b6000604051905090565b600067ffffffffffffffff821115612c9857612c97612f94565b5b602082029050602081019050919050565b600067ffffffffffffffff821115612cc457612cc3612f94565b5b612ccd82612fc3565b9050602081019050919050565b6000819050919050565b6000819050919050565b6000819050919050565b6000819050602082019050919050565b6000819050919050565b600060029050919050565b600060029050919050565b600060049050919050565b600081519050919050565b600081519050919050565b600081519050919050565b6000602082019050919050565b6000602082019050919050565b6000602082019050919050565b6000602082019050919050565b6000602082019050919050565b600081905092915050565b600081905092915050565b600081905092915050565b600081905092915050565b600082825260208201905092915050565b600082825260208201905092915050565b600082825260208201905092915050565b600082825260208201905092915050565b600081905092915050565b600082825260208201905092915050565b6000612e306020840184611ee2565b905092915050565b6000612e4382612e9f565b9050919050565b60008115159050919050565b6000819050919050565b60007fffffffff0000000000000000000000000000000000000000000000000000000082169050919050565b6000819050612e9a8261324f565b919050565b600073ffffffffffffffffffffffffffffffffffffffff82169050919050565b6000819050919050565b600060ff82169050919050565b6000612ee182612e8c565b9050919050565b82818337600083830152505050565b60005b83811015612f15578082015181840152602081019050612efa565b83811115612f24576000848401525b50505050565b612f3382612fc3565b810181811067ffffffffffffffff82111715612f5257612f51612f94565b5b80604052505050565b6000819050919050565b7f4e487b7100000000000000000000000000000000000000000000000000000000600052602160045260246000fd5b7f4e487b7100000000000000000000000000000000000000000000000000000000600052604160045260246000fd5b6000601f19601f8301169050919050565b7f53656d6170686f7265436f72653a20796f752063616e6e6f742075736520746860008201527f652073616d65206e756c6c696669657220747769636500000000000000000000602082015250565b7f3078303000000000000000000000000000000000000000000000000000000000600082015250565b7f53656d6170686f726547726f7570733a2067726f757020616c7265616479206560008201527f7869737473000000000000000000000000000000000000000000000000000000602082015250565b7f53656d6170686f726557686973746c65626c6f77696e673a2063616c6c65722060008201527f6973206e6f742074686520656469746f72000000000000000000000000000000602082015250565b7f416464726573733a20696e73756666696369656e742062616c616e636520666f60008201527f722063616c6c0000000000000000000000000000000000000000000000000000602082015250565b7f53656d6170686f726547726f7570733a2067726f757020646f6573206e6f742060008201527f6578697374000000000000000000000000000000000000000000000000000000602082015250565b7f416464726573733a2063616c6c20746f206e6f6e2d636f6e7472616374000000600082015250565b7f5361666545524332303a204552433230206f7065726174696f6e20646964206e60008201527f6f74207375636365656400000000000000000000000000000000000000000000602082015250565b7f53656d6170686f726547726f7570733a2067726f7570206964206d757374206260008201527f65203c20534e41524b5f5343414c41525f4649454c4400000000000000000000602082015250565b600381106132605761325f612f65565b5b50565b61326c81612e38565b811461327757600080fd5b50565b61328381612e4a565b811461328e57600080fd5b50565b61329a81612e56565b81146132a557600080fd5b50565b6132b181612e60565b81146132bc57600080fd5b50565b600381106132cc57600080fd5b50565b6132d881612ebf565b81146132e357600080fd5b50565b6132ef81612ec9565b81146132fa57600080fd5b5056fea2646970667358221220a57b842a0eff654871526f4081ea1605e42eeb9653cc3699ac30b3abb192552564736f6c63430008040033",
  "linkReferences": {
    "@zk-kit/incremental-merkle-tree.sol/contracts/IncrementalBinaryTree.sol": {
      "IncrementalBinaryTree": [
        {
          "length": 20,
          "start": 5120
        },
        {
          "length": 20,
          "start": 5646
        },
        {
          "length": 20,
          "start": 6780
        }
      ]
    }
  },
  "deployedLinkReferences": {
    "@zk-kit/incremental-merkle-tree.sol/contracts/IncrementalBinaryTree.sol": {
      "IncrementalBinaryTree": [
        {
          "length": 20,
          "start": 4832
        },
        {
          "length": 20,
          "start": 5358
        },
        {
          "length": 20,
          "start": 6492
        }
      ]
    }
  }
}