{
  "_format": "hh-sol-artifact-1",
  "contractName": "zkStakeV2",
  "sourceName": "contracts/extensions/zkStakeV2.sol",
  "abi": [
    {
      "anonymous": false,
      "inputs": [
        {
          "indexed": false,
          "internalType": "uint256",
          "name": "entityId",
          "type": "uint256"
        },
        {
          "indexed": true,
          "internalType": "address",
          "name": "editor",
          "type": "address"
        }
      ],
      "name": "EntityCreated",
      "type": "event"
    },
    {
      "anonymous": false,
      "inputs": [
        {
          "indexed": true,
          "internalType": "uint256",
          "name": "groupId",
          "type": "uint256"
        },
        {
          "indexed": false,
          "internalType": "uint8",
          "name": "depth",
          "type": "uint8"
        }
      ],
      "name": "GroupAdded",
      "type": "event"
    },
    {
      "anonymous": false,
      "inputs": [
        {
          "indexed": true,
          "internalType": "uint256",
          "name": "groupId",
          "type": "uint256"
        },
        {
          "indexed": false,
          "internalType": "uint256",
          "name": "identityCommitment",
          "type": "uint256"
        },
        {
          "indexed": false,
          "internalType": "uint256",
          "name": "root",
          "type": "uint256"
        }
      ],
      "name": "MemberAdded",
      "type": "event"
    },
    {
      "anonymous": false,
      "inputs": [
        {
          "indexed": true,
          "internalType": "uint256",
          "name": "groupId",
          "type": "uint256"
        },
        {
          "indexed": false,
          "internalType": "uint256",
          "name": "identityCommitment",
          "type": "uint256"
        },
        {
          "indexed": false,
          "internalType": "uint256",
          "name": "root",
          "type": "uint256"
        }
      ],
      "name": "MemberRemoved",
      "type": "event"
    },
    {
      "anonymous": false,
      "inputs": [
        {
          "indexed": false,
          "internalType": "uint256",
          "name": "nullifierHash",
          "type": "uint256"
        }
      ],
      "name": "NullifierHashAdded",
      "type": "event"
    },
    {
      "inputs": [
        {
          "internalType": "uint256",
          "name": "entityId",
          "type": "uint256"
        },
        {
          "internalType": "uint256",
          "name": "identityCommitment",
          "type": "uint256"
        },
        {
          "internalType": "uint256",
          "name": "id",
          "type": "uint256"
        }
      ],
      "name": "addDAOIdentity",
      "outputs": [],
      "stateMutability": "nonpayable",
      "type": "function"
    },
    {
      "inputs": [
        {
          "internalType": "uint256",
          "name": "",
          "type": "uint256"
        },
        {
          "internalType": "uint256",
          "name": "",
          "type": "uint256"
        }
      ],
      "name": "commitIndex",
      "outputs": [
        {
          "internalType": "uint256",
          "name": "",
          "type": "uint256"
        }
      ],
      "stateMutability": "view",
      "type": "function"
    },
    {
      "inputs": [
        {
          "internalType": "uint256",
          "name": "",
          "type": "uint256"
        }
      ],
      "name": "commitmentNFTs",
      "outputs": [
        {
          "internalType": "uint256",
          "name": "",
          "type": "uint256"
        }
      ],
      "stateMutability": "view",
      "type": "function"
    },
    {
      "inputs": [
        {
          "internalType": "uint256",
          "name": "",
          "type": "uint256"
        },
        {
          "internalType": "uint256",
          "name": "",
          "type": "uint256"
        }
      ],
      "name": "commitments",
      "outputs": [
        {
          "internalType": "uint256",
          "name": "",
          "type": "uint256"
        }
      ],
      "stateMutability": "view",
      "type": "function"
    },
    {
      "inputs": [
        {
          "internalType": "uint256",
          "name": "entityId",
          "type": "uint256"
        },
        {
          "internalType": "address",
          "name": "editor",
          "type": "address"
        },
        {
          "internalType": "address",
          "name": "token",
          "type": "address"
        },
        {
          "internalType": "enum zkStakeV2.STAKE_TYPE",
          "name": "option",
          "type": "uint8"
        },
        {
          "internalType": "uint256",
          "name": "value",
          "type": "uint256"
        }
      ],
      "name": "createEntity",
      "outputs": [],
      "stateMutability": "nonpayable",
      "type": "function"
    },
    {
      "inputs": [
        {
          "internalType": "uint256",
          "name": "",
          "type": "uint256"
        }
      ],
      "name": "entityTokenInterface",
      "outputs": [
        {
          "internalType": "enum zkStakeV2.STAKE_TYPE",
          "name": "",
          "type": "uint8"
        }
      ],
      "stateMutability": "view",
      "type": "function"
    },
    {
      "inputs": [
        {
          "internalType": "uint256",
          "name": "groupId",
          "type": "uint256"
        }
      ],
      "name": "getDepth",
      "outputs": [
        {
          "internalType": "uint256",
          "name": "",
          "type": "uint256"
        }
      ],
      "stateMutability": "view",
      "type": "function"
    },
    {
      "inputs": [
        {
          "internalType": "uint256",
          "name": "g",
          "type": "uint256"
        }
      ],
      "name": "getGroupCommitments",
      "outputs": [
        {
          "internalType": "uint256[]",
          "name": "",
          "type": "uint256[]"
        }
      ],
      "stateMutability": "view",
      "type": "function"
    },
    {
      "inputs": [
        {
          "internalType": "uint256",
          "name": "groupId",
          "type": "uint256"
        }
      ],
      "name": "getRoot",
      "outputs": [
        {
          "internalType": "uint256",
          "name": "",
          "type": "uint256"
        }
      ],
      "stateMutability": "view",
      "type": "function"
    },
    {
      "inputs": [
        {
          "internalType": "uint256",
          "name": "groupId",
          "type": "uint256"
        }
      ],
      "name": "getSize",
      "outputs": [
        {
          "internalType": "uint256",
          "name": "",
          "type": "uint256"
        }
      ],
      "stateMutability": "view",
      "type": "function"
    },
    {
      "inputs": [
        {
          "internalType": "uint256",
          "name": "",
          "type": "uint256"
        }
      ],
      "name": "membershipTokens",
      "outputs": [
        {
          "internalType": "address",
          "name": "",
          "type": "address"
        }
      ],
      "stateMutability": "view",
      "type": "function"
    },
    {
      "inputs": [
        {
          "internalType": "address",
          "name": "",
          "type": "address"
        },
        {
          "internalType": "address",
          "name": "",
          "type": "address"
        },
        {
          "internalType": "uint256[]",
          "name": "",
          "type": "uint256[]"
        },
        {
          "internalType": "uint256[]",
          "name": "",
          "type": "uint256[]"
        },
        {
          "internalType": "bytes",
          "name": "",
          "type": "bytes"
        }
      ],
      "name": "onERC1155BatchReceived",
      "outputs": [
        {
          "internalType": "bytes4",
          "name": "",
          "type": "bytes4"
        }
      ],
      "stateMutability": "nonpayable",
      "type": "function"
    },
    {
      "inputs": [
        {
          "internalType": "address",
          "name": "",
          "type": "address"
        },
        {
          "internalType": "address",
          "name": "",
          "type": "address"
        },
        {
          "internalType": "uint256",
          "name": "",
          "type": "uint256"
        },
        {
          "internalType": "uint256",
          "name": "",
          "type": "uint256"
        },
        {
          "internalType": "bytes",
          "name": "",
          "type": "bytes"
        }
      ],
      "name": "onERC1155Received",
      "outputs": [
        {
          "internalType": "bytes4",
          "name": "",
          "type": "bytes4"
        }
      ],
      "stateMutability": "nonpayable",
      "type": "function"
    },
    {
      "inputs": [
        {
          "internalType": "address",
          "name": "",
          "type": "address"
        },
        {
          "internalType": "address",
          "name": "",
          "type": "address"
        },
        {
          "internalType": "uint256",
          "name": "",
          "type": "uint256"
        },
        {
          "internalType": "bytes",
          "name": "",
          "type": "bytes"
        }
      ],
      "name": "onERC721Received",
      "outputs": [
        {
          "internalType": "bytes4",
          "name": "",
          "type": "bytes4"
        }
      ],
      "stateMutability": "nonpayable",
      "type": "function"
    },
    {
      "inputs": [
        {
          "internalType": "uint256",
          "name": "entityId",
          "type": "uint256"
        },
        {
          "internalType": "uint256",
          "name": "identityCommitment",
          "type": "uint256"
        },
        {
          "internalType": "uint256[]",
          "name": "proofSiblings",
          "type": "uint256[]"
        },
        {
          "internalType": "uint8[]",
          "name": "proofPathIndices",
          "type": "uint8[]"
        },
        {
          "internalType": "address",
          "name": "receiver",
          "type": "address"
        }
      ],
      "name": "removeDAOIdentity",
      "outputs": [],
      "stateMutability": "nonpayable",
      "type": "function"
    },
    {
      "inputs": [
        {
          "internalType": "uint256",
          "name": "",
          "type": "uint256"
        }
      ],
      "name": "stakeAmounts",
      "outputs": [
        {
          "internalType": "uint256",
          "name": "",
          "type": "uint256"
        }
      ],
      "stateMutability": "view",
      "type": "function"
    },
    {
      "inputs": [
        {
          "internalType": "bytes4",
          "name": "interfaceId",
          "type": "bytes4"
        }
      ],
      "name": "supportsInterface",
      "outputs": [
        {
          "internalType": "bool",
          "name": "",
          "type": "bool"
        }
      ],
      "stateMutability": "view",
      "type": "function"
    },
    {
      "inputs": [
        {
          "internalType": "string",
          "name": "challenge",
          "type": "string"
        },
        {
          "internalType": "uint256",
          "name": "nullifierHash",
          "type": "uint256"
        },
        {
          "internalType": "uint256",
          "name": "entityId",
          "type": "uint256"
        },
        {
          "internalType": "uint256[8]",
          "name": "proof",
          "type": "uint256[8]"
        }
      ],
      "name": "verifyIdentityChallenge",
      "outputs": [
        {
          "internalType": "bool",
          "name": "",
          "type": "bool"
        }
      ],
      "stateMutability": "view",
      "type": "function"
    },
    {
      "inputs": [
        {
          "internalType": "uint256[2]",
          "name": "a",
          "type": "uint256[2]"
        },
        {
          "internalType": "uint256[2][2]",
          "name": "b",
          "type": "uint256[2][2]"
        },
        {
          "internalType": "uint256[2]",
          "name": "c",
          "type": "uint256[2]"
        },
        {
          "internalType": "uint256[4]",
          "name": "input",
          "type": "uint256[4]"
        }
      ],
      "name": "verifyProof",
      "outputs": [
        {
          "internalType": "bool",
          "name": "r",
          "type": "bool"
        }
      ],
      "stateMutability": "view",
      "type": "function"
    }
  ],
  "bytecode": "0x608060405234801561001057600080fd5b5061533a806100206000396000f3fe608060405234801561001057600080fd5b50600436106101215760003560e01c80638cdde82e116100ad578063b07ba17c11610071578063b07ba17c1461039e578063bc197c81146103ce578063d13e2e60146103fe578063d868b1fd1461042e578063f23a6e611461044a57610121565b80638cdde82e146102c25780639b24b3b0146102f2578063a57f8f7914610322578063a98fc76114610352578063ad9a2f721461036e57610121565b8063150b7a02116100f4578063150b7a02146101d25780631c1b4f3a146102025780634d56f27d146102325780635fe8c13b1461026257806375e618c91461029257610121565b806301ffc9a714610126578063023c23db1461015657806305279f8e14610186578063117ada32146101b6575b600080fd5b610140600480360381019061013b9190613ed8565b61047a565b60405161014d91906146ea565b60405180910390f35b610170600480360381019061016b9190613f82565b6104f4565b60405161017d91906149b4565b60405180910390f35b6101a0600480360381019061019b9190613f82565b610514565b6040516101ad91906146c8565b60405180910390f35b6101d060048036038101906101cb919061405e565b61057f565b005b6101ec60048036038101906101e79190613d40565b6109e9565b6040516101f99190614705565b60405180910390f35b61021c60048036038101906102179190613f82565b6109fd565b60405161022991906149b4565b60405180910390f35b61024c60048036038101906102479190613f82565b610a15565b604051610259919061461e565b60405180910390f35b61027c60048036038101906102779190613e4a565b610a48565b60405161028991906146ea565b60405180910390f35b6102ac60048036038101906102a79190613f82565b610efc565b6040516102b991906149b4565b60405180910390f35b6102dc60048036038101906102d79190613f82565b610f2c565b6040516102e991906149b4565b60405180910390f35b61030c60048036038101906103079190613f82565b610f44565b60405161031991906149b4565b60405180910390f35b61033c60048036038101906103379190614022565b610f64565b60405161034991906149b4565b60405180910390f35b61036c60048036038101906103679190613fab565b610f89565b005b61038860048036038101906103839190613f01565b611190565b60405161039591906146ea565b60405180910390f35b6103b860048036038101906103b39190613f82565b6111c6565b6040516103c59190614720565b60405180910390f35b6103e860048036038101906103e39190613c81565b6111e6565b6040516103f59190614705565b60405180910390f35b61041860048036038101906104139190614022565b6111fb565b60405161042591906149b4565b60405180910390f35b6104486004803603810190610443919061410e565b61122c565b005b610464600480360381019061045f9190613dbb565b611675565b6040516104719190614705565b60405180910390f35b60007f4e2312e0000000000000000000000000000000000000000000000000000000007bffffffffffffffffffffffffffffffffffffffffffffffffffffffff1916827bffffffffffffffffffffffffffffffffffffffffffffffffffffffff191614806104ed57506104ec8261168a565b5b9050919050565b600060016000838152602001908152602001600020600201549050919050565b60606004600083815260200190815260200160002080548060200260200160405190810160405280929190818152602001828054801561057357602002820191906000526020600020905b81548152602001906001019080831161055f575b50505050509050919050565b866003600061058c6116f4565b73ffffffffffffffffffffffffffffffffffffffff1673ffffffffffffffffffffffffffffffffffffffff168152602001908152602001600020548114610608576040517f08c379a00000000000000000000000000000000000000000000000000000000081526004016105ff9061479d565b60405180910390fd5b6106168888888888886116fc565b60006002811115610650577f4e487b7100000000000000000000000000000000000000000000000000000000600052602160045260246000fd5b600860008a815260200190815260200160002060009054906101000a900460ff1660028111156106a9577f4e487b7100000000000000000000000000000000000000000000000000000000600052602160045260246000fd5b1415610769576006600089815260200190815260200160002060009054906101000a900473ffffffffffffffffffffffffffffffffffffffff1673ffffffffffffffffffffffffffffffffffffffff166342842e0e3084600760008d8152602001908152602001600020546040518463ffffffff1660e01b815260040161073293929190614639565b600060405180830381600087803b15801561074c57600080fd5b505af1158015610760573d6000803e3d6000fd5b505050506109df565b600160028111156107a3577f4e487b7100000000000000000000000000000000000000000000000000000000600052602160045260246000fd5b600860008a815260200190815260200160002060009054906101000a900460ff1660028111156107fc577f4e487b7100000000000000000000000000000000000000000000000000000000600052602160045260246000fd5b14156108d1576006600089815260200190815260200160002060009054906101000a900473ffffffffffffffffffffffffffffffffffffffff1673ffffffffffffffffffffffffffffffffffffffff1663f242432a3084600760008d815260200190815260200160002054600960008e8152602001908152602001600020546040518563ffffffff1660e01b815260040161089a9493929190614670565b600060405180830381600087803b1580156108b457600080fd5b505af11580156108c8573d6000803e3d6000fd5b505050506109de565b60028081111561090a577f4e487b7100000000000000000000000000000000000000000000000000000000600052602160045260246000fd5b600860008a815260200190815260200160002060009054906101000a900460ff166002811115610963577f4e487b7100000000000000000000000000000000000000000000000000000000600052602160045260246000fd5b14156109dd576109dc8230600960008c815260200190815260200160002054600660008d815260200190815260200160002060009054906101000a900473ffffffffffffffffffffffffffffffffffffffff1673ffffffffffffffffffffffffffffffffffffffff1661184b909392919063ffffffff16565b5b5b5b5050505050505050565b600063150b7a0260e01b9050949350505050565b60096020528060005260406000206000915090505481565b60066020528060005260406000206000915054906101000a900473ffffffffffffffffffffffffffffffffffffffff1681565b6000610a52613729565b604051806040016040528087600060028110610a97577f4e487b7100000000000000000000000000000000000000000000000000000000600052603260045260246000fd5b6020020151815260200187600160028110610adb577f4e487b7100000000000000000000000000000000000000000000000000000000600052603260045260246000fd5b602002015181525081600001819052506040518060400160405280604051806040016040528088600060028110610b3b577f4e487b7100000000000000000000000000000000000000000000000000000000600052603260045260246000fd5b6020020151600060028110610b79577f4e487b7100000000000000000000000000000000000000000000000000000000600052603260045260246000fd5b6020020151815260200188600060028110610bbd577f4e487b7100000000000000000000000000000000000000000000000000000000600052603260045260246000fd5b6020020151600160028110610bfb577f4e487b7100000000000000000000000000000000000000000000000000000000600052603260045260246000fd5b60200201518152508152602001604051806040016040528088600160028110610c4d577f4e487b7100000000000000000000000000000000000000000000000000000000600052603260045260246000fd5b6020020151600060028110610c8b577f4e487b7100000000000000000000000000000000000000000000000000000000600052603260045260246000fd5b6020020151815260200188600160028110610ccf577f4e487b7100000000000000000000000000000000000000000000000000000000600052603260045260246000fd5b6020020151600160028110610d0d577f4e487b7100000000000000000000000000000000000000000000000000000000600052603260045260246000fd5b60200201518152508152508160200181905250604051806040016040528085600060028110610d65577f4e487b7100000000000000000000000000000000000000000000000000000000600052603260045260246000fd5b6020020151815260200185600160028110610da9577f4e487b7100000000000000000000000000000000000000000000000000000000600052603260045260246000fd5b602002015181525081604001819052506000600467ffffffffffffffff811115610dfc577f4e487b7100000000000000000000000000000000000000000000000000000000600052604160045260246000fd5b604051908082528060200260200182016040528015610e2a5781602001602082028036833780820191505090505b50905060005b6004811015610ecf57848160048110610e72577f4e487b7100000000000000000000000000000000000000000000000000000000600052603260045260246000fd5b6020020151828281518110610eb0577f4e487b7100000000000000000000000000000000000000000000000000000000600052603260045260246000fd5b6020026020010181815250508080610ec790614ddb565b915050610e30565b506000610edc82846118d4565b1415610eed57600192505050610ef4565b6000925050505b949350505050565b60006001600083815260200190815260200160002060000160009054906101000a900460ff1660ff169050919050565b60076020528060005260406000206000915090505481565b600060016000838152602001908152602001600020600101549050919050565b6005602052816000526040600020602052806000526040600020600091509150505481565b610f94856014611b5f565b816008600087815260200190815260200160002060006101000a81548160ff02191690836002811115610ff0577f4e487b7100000000000000000000000000000000000000000000000000000000600052602160045260246000fd5b02179055506000600281111561102f577f4e487b7100000000000000000000000000000000000000000000000000000000600052602160045260246000fd5b826002811115611068577f4e487b7100000000000000000000000000000000000000000000000000000000600052602160045260246000fd5b141561108c57600160096000878152602001908152602001600020819055506110a5565b8060096000878152602001908152602001600020819055505b84600360008673ffffffffffffffffffffffffffffffffffffffff1673ffffffffffffffffffffffffffffffffffffffff16815260200190815260200160002081905550826006600087815260200190815260200160002060006101000a81548173ffffffffffffffffffffffffffffffffffffffff021916908373ffffffffffffffffffffffffffffffffffffffff1602179055508373ffffffffffffffffffffffffffffffffffffffff167f5340f46ccfdbf46cea681e7481c711c8838cbcda1356cab6f31a2d0b2cd3525a8660405161118191906149b4565b60405180910390a25050505050565b6000806111b787876001600088815260200190815260200160002060010154888888611cb7565b90508091505095945050505050565b60086020528060005260406000206000915054906101000a900460ff1681565b600063bc197c8160e01b905095945050505050565b6004602052816000526040600020818154811061121757600080fd5b90600052602060002001600091509150505481565b60006002811115611266577f4e487b7100000000000000000000000000000000000000000000000000000000600052602160045260246000fd5b6008600085815260200190815260200160002060009054906101000a900460ff1660028111156112bf577f4e487b7100000000000000000000000000000000000000000000000000000000600052602160045260246000fd5b141561136c576006600084815260200190815260200160002060009054906101000a900473ffffffffffffffffffffffffffffffffffffffff1673ffffffffffffffffffffffffffffffffffffffff166342842e0e3330846040518463ffffffff1660e01b815260040161133593929190614639565b600060405180830381600087803b15801561134f57600080fd5b505af1158015611363573d6000803e3d6000fd5b505050506115cf565b600160028111156113a6577f4e487b7100000000000000000000000000000000000000000000000000000000600052602160045260246000fd5b6008600085815260200190815260200160002060009054906101000a900460ff1660028111156113ff577f4e487b7100000000000000000000000000000000000000000000000000000000600052602160045260246000fd5b14156114c1576006600084815260200190815260200160002060009054906101000a900473ffffffffffffffffffffffffffffffffffffffff1673ffffffffffffffffffffffffffffffffffffffff1663f242432a33308460096000898152602001908152602001600020546040518563ffffffff1660e01b815260040161148a9493929190614670565b600060405180830381600087803b1580156114a457600080fd5b505af11580156114b8573d6000803e3d6000fd5b505050506115ce565b6002808111156114fa577f4e487b7100000000000000000000000000000000000000000000000000000000600052602160045260246000fd5b6008600085815260200190815260200160002060009054906101000a900460ff166002811115611553577f4e487b7100000000000000000000000000000000000000000000000000000000600052602160045260246000fd5b14156115cd576115cc333060096000878152602001908152602001600020546006600088815260200190815260200160002060009054906101000a900473ffffffffffffffffffffffffffffffffffffffff1673ffffffffffffffffffffffffffffffffffffffff1661184b909392919063ffffffff16565b5b5b5b60006004600085815260200190815260200160002080549050905060046000858152602001908152602001600020839080600181540180825580915050600190039060005260206000200160009091909190915055806005600086815260200190815260200160002060008581526020019081526020016000208190555081600760008681526020019081526020016000208190555061166f8484611fba565b50505050565b600063f23a6e6160e01b905095945050505050565b60007f01ffc9a7000000000000000000000000000000000000000000000000000000007bffffffffffffffffffffffffffffffffffffffffffffffffffffffff1916827bffffffffffffffffffffffffffffffffffffffffffffffffffffffff1916149050919050565b600033905090565b600061170787610efc565b1415611748576040517f08c379a000000000000000000000000000000000000000000000000000000000815260040161173f9061481d565b60405180910390fd5b6001600087815260200190815260200160002073__$4c0484323457fe1a856f46a4759b553fe4$__630629596f909187878787876040518763ffffffff1660e01b815260040161179d96959493929190614926565b60006040518083038186803b1580156117b557600080fd5b505af41580156117c9573d6000803e3d6000fd5b5050505060006117d887610f44565b9050866002600083815260200190815260200160002081905550867fe270325ded177064d7bda473e6519ef40a291058c41286f71a6e4872f1e9ab5c87600160008b81526020019081526020016000206001015460405161183a9291906149cf565b60405180910390a250505050505050565b6118ce846323b872dd60e01b85858560405160240161186c93929190614639565b604051602081830303815290604052907bffffffffffffffffffffffffffffffffffffffffffffffffffffffff19166020820180517bffffffffffffffffffffffffffffffffffffffffffffffffffffffff83818316178352505050506120e7565b50505050565b6000807f30644e72e131a029b85045b68181585d2833e84879b9709143e1f593f0000001905060006119046121ae565b90508060800151516001865161191a9190614bde565b1461195a576040517f08c379a0000000000000000000000000000000000000000000000000000000008152600401611951906147dd565b60405180910390fd5b60006040518060400160405280600081526020016000815250905060005b8651811015611abb57838782815181106119bb577f4e487b7100000000000000000000000000000000000000000000000000000000600052603260045260246000fd5b602002602001015110611a03576040517f08c379a00000000000000000000000000000000000000000000000000000000081526004016119fa9061483d565b60405180910390fd5b611aa682611aa18560800151600185611a1c9190614bde565b81518110611a53577f4e487b7100000000000000000000000000000000000000000000000000000000600052603260045260246000fd5b60200260200101518a8581518110611a94577f4e487b7100000000000000000000000000000000000000000000000000000000600052603260045260246000fd5b60200260200101516127fe565b61294d565b91508080611ab390614ddb565b915050611978565b50611b0b818360800151600081518110611afe577f4e487b7100000000000000000000000000000000000000000000000000000000600052603260045260246000fd5b602002602001015161294d565b9050611b41611b1d8660000151612ae8565b8660200151846000015185602001518587604001518b604001518960600151612b8d565b611b515760019350505050611b59565b600093505050505b92915050565b6000611b6a83610efc565b14611baa576040517f08c379a0000000000000000000000000000000000000000000000000000000008152600401611ba19061477d565b60405180910390fd5b6001600083815260200190815260200160002073__$4c0484323457fe1a856f46a4759b553fe4$__63b4bdd1179091837f30644e72e131a029b85045b68181585d2833e84879b9709143e1f593f0000001604051602001611c0a90614609565b6040516020818303038152906040528051906020012060001c611c2d9190614e24565b6040518463ffffffff1660e01b8152600401611c4b9392919061497d565b60006040518083038186803b158015611c6357600080fd5b505af4158015611c77573d6000803e3d6000fd5b50505050817f6e41c6ac154b547a2112d36281cc5de1cdfa7d7f260d4edf74f3ef59f9df0c5982604051611cab91906149f8565b60405180910390a25050565b600080600085815260200190815260200160002060009054906101000a900460ff1615611d19576040517f08c379a0000000000000000000000000000000000000000000000000000000008152600401611d109061475d565b60405180910390fd5b6000611d258888612ed6565b905060006040518060800160405280888152602001878152602001838152602001868152509050611fac604051806040016040528086600060088110611d94577f4e487b7100000000000000000000000000000000000000000000000000000000600052603260045260246000fd5b6020020135815260200186600160088110611dd8577f4e487b7100000000000000000000000000000000000000000000000000000000600052603260045260246000fd5b60200201358152506040518060400160405280604051806040016040528089600260088110611e30577f4e487b7100000000000000000000000000000000000000000000000000000000600052603260045260246000fd5b6020020135815260200189600360088110611e74577f4e487b7100000000000000000000000000000000000000000000000000000000600052603260045260246000fd5b60200201358152508152602001604051806040016040528089600460088110611ec6577f4e487b7100000000000000000000000000000000000000000000000000000000600052603260045260246000fd5b6020020135815260200189600560088110611f0a577f4e487b7100000000000000000000000000000000000000000000000000000000600052603260045260246000fd5b6020020135815250815250604051806040016040528088600660088110611f5a577f4e487b7100000000000000000000000000000000000000000000000000000000600052603260045260246000fd5b6020020135815260200188600760088110611f9e577f4e487b7100000000000000000000000000000000000000000000000000000000600052603260045260246000fd5b602002013581525084610a48565b925050509695505050505050565b6000611fc583610efc565b1415612006576040517f08c379a0000000000000000000000000000000000000000000000000000000008152600401611ffd9061481d565b60405180910390fd5b6001600083815260200190815260200160002073__$4c0484323457fe1a856f46a4759b553fe4$__63168703fa9091836040518363ffffffff1660e01b81526004016120539291906148fd565b60006040518083038186803b15801561206b57600080fd5b505af415801561207f573d6000803e3d6000fd5b50505050600061208e83610f44565b9050826002600083815260200190815260200160002081905550827f03fd27265b7dd1f55558bedc22a58fa3b10afb1be776e614bd5a7ba7b949940683836040516120da9291906149cf565b60405180910390a2505050565b6000612149826040518060400160405280602081526020017f5361666545524332303a206c6f772d6c6576656c2063616c6c206661696c65648152508573ffffffffffffffffffffffffffffffffffffffff16612f109092919063ffffffff16565b90506000815111156121a957808060200190518101906121699190613eaf565b6121a8576040517f08c379a000000000000000000000000000000000000000000000000000000000815260040161219f9061489d565b60405180910390fd5b5b505050565b6121b661375c565b60405180604001604052807f2d4d9aa7e302d9df41749d5507949d05dbea33fbb16c643b22f599a2be6df2e281526020017f14bedd503c37ceb061d8ec60209fe345ce89830a19230301f076caff004d19268152508160000181905250604051806040016040528060405180604001604052807f0967032fcbf776d1afc985f88877f182d38480a653f2decaa9794cbc3bf3060c81526020017f0e187847ad4c798374d0d6732bf501847dd68bc0e071241e0213bc7fc13db7ab815250815260200160405180604001604052807f304cfbd1e08a704a99f5e847d93f8c3caafddec46b7a0d379da69a4d112346a781526020017f1739c1b1a457a8c7313123d24d2f9192f896b7c63eea05a9d57f06547ad0cec88152508152508160200181905250604051806040016040528060405180604001604052807f198e9393920d483a7260bfb731fb5d25f1aa493335a9e71297e485b7aef312c281526020017f1800deef121f1e76426a00665e5c4479674322d4f75edadd46debd5cd992f6ed815250815260200160405180604001604052807f090689d0585ff075ec9e99ad690c3395bc4b313370b38ef355acdadcd122975b81526020017f12c85ea5db8c6deb4aab71808dcb408fe3d1e7690c43d37b4ce6cc0166fa7daa8152508152508160400181905250604051806040016040528060405180604001604052807f1bdb443ce61ebcf93daed4215a57e1cec90ca64973023e31197a112e8cee72f681526020017f117e26c4235f42625b3404f2973059814ff260dba7176d7aae910f493a8e1fb5815250815260200160405180604001604052807f196e247a12f580e36894f256f0c122393489b4c213b3e913250feee806ca45ff81526020017f2fedff4e4bbcbf9f1c56e28a060d50eef5f54e2aab897f6b465acd2ed005ae918152508152508160600181905250600567ffffffffffffffff8111156124a3577f4e487b7100000000000000000000000000000000000000000000000000000000600052604160045260246000fd5b6040519080825280602002602001820160405280156124dc57816020015b6124c96137a3565b8152602001906001900390816124c15790505b50816080018190525060405180604001604052807f2c097b31a897227a6f64c9fc31d9a8fc421b0d8b8207f92532b464e431e61db881526020017f0fcf6d89d77d5123a43dfb23efb9c929c28c148ca82c794057864b8e66903c548152508160800151600081518110612578577f4e487b7100000000000000000000000000000000000000000000000000000000600052603260045260246000fd5b602002602001018190525060405180604001604052807f0186dae5999acfe2cda6fa7a157ae726afda7c6f57b00ea0aa6c2c23bf83838881526020017f2f078608f710c45b60d23716c58e106d8c7a1c6db28119defffc413e074f87168152508160800151600181518110612616577f4e487b7100000000000000000000000000000000000000000000000000000000600052603260045260246000fd5b602002602001018190525060405180604001604052807f2464c1784bda2cbfb51e5ab87cf7eb2764ad81f7038152bdbbb07d404b49aa3781526020017f0638b273e4ee33e03e42ca6c7de1ea7043dbdcaa48661864de644d91c6b4821f81525081608001516002815181106126b4577f4e487b7100000000000000000000000000000000000000000000000000000000600052603260045260246000fd5b602002602001018190525060405180604001604052807f098ce8b5289ef791db34b68b9e0043ab7bf25306d83a9f0ce74396b8a69c57bb81526020017f1ec6f7a81748f3d2c2b87610d747ca72045ac1530e226f00710630d41aad7e268152508160800151600381518110612752577f4e487b7100000000000000000000000000000000000000000000000000000000600052603260045260246000fd5b602002602001018190525060405180604001604052807f07dbf682cc528d3ff763fa576d05db50e023921728119ef66f880b6adae01cbe81526020017f0d287dcd9318207576eaa871e7b3308f613d9df7865059cdbc9f66fdef342dc681525081608001516004815181106127f0577f4e487b7100000000000000000000000000000000000000000000000000000000600052603260045260246000fd5b602002602001018190525090565b6128066137a3565b61280e6137bd565b83600001518160006003811061284d577f4e487b7100000000000000000000000000000000000000000000000000000000600052603260045260246000fd5b602002018181525050836020015181600160038110612895577f4e487b7100000000000000000000000000000000000000000000000000000000600052603260045260246000fd5b60200201818152505082816002600381106128d9577f4e487b7100000000000000000000000000000000000000000000000000000000600052603260045260246000fd5b602002018181525050600060608360808460076107d05a03fa9050806000811461290257612904565bfe5b5080612945576040517f08c379a000000000000000000000000000000000000000000000000000000000815260040161293c906147fd565b60405180910390fd5b505092915050565b6129556137a3565b61295d6137df565b83600001518160006004811061299c577f4e487b7100000000000000000000000000000000000000000000000000000000600052603260045260246000fd5b6020020181815250508360200151816001600481106129e4577f4e487b7100000000000000000000000000000000000000000000000000000000600052603260045260246000fd5b602002018181525050826000015181600260048110612a2c577f4e487b7100000000000000000000000000000000000000000000000000000000600052603260045260246000fd5b602002018181525050826020015181600360048110612a74577f4e487b7100000000000000000000000000000000000000000000000000000000600052603260045260246000fd5b602002018181525050600060608360c08460066107d05a03fa90508060008114612a9d57612a9f565bfe5b5080612ae0576040517f08c379a0000000000000000000000000000000000000000000000000000000008152600401612ad7906148bd565b60405180910390fd5b505092915050565b612af06137a3565b60007f30644e72e131a029b85045b68181585d97816a916871ca8d3c208c16d87cfd47905060008360000151148015612b2d575060008360200151145b15612b51576040518060400160405280600081526020016000815250915050612b88565b604051806040016040528084600001518152602001828560200151612b769190614e24565b83612b819190614c8e565b8152509150505b919050565b600080600467ffffffffffffffff811115612bd1577f4e487b7100000000000000000000000000000000000000000000000000000000600052604160045260246000fd5b604051908082528060200260200182016040528015612c0a57816020015b612bf76137a3565b815260200190600190039081612bef5790505b5090506000600467ffffffffffffffff811115612c50577f4e487b7100000000000000000000000000000000000000000000000000000000600052604160045260246000fd5b604051908082528060200260200182016040528015612c8957816020015b612c76613801565b815260200190600190039081612c6e5790505b5090508a82600081518110612cc7577f4e487b7100000000000000000000000000000000000000000000000000000000600052603260045260246000fd5b60200260200101819052508882600181518110612d0d577f4e487b7100000000000000000000000000000000000000000000000000000000600052603260045260246000fd5b60200260200101819052508682600281518110612d53577f4e487b7100000000000000000000000000000000000000000000000000000000600052603260045260246000fd5b60200260200101819052508482600381518110612d99577f4e487b7100000000000000000000000000000000000000000000000000000000600052603260045260246000fd5b60200260200101819052508981600081518110612ddf577f4e487b7100000000000000000000000000000000000000000000000000000000600052603260045260246000fd5b60200260200101819052508781600181518110612e25577f4e487b7100000000000000000000000000000000000000000000000000000000600052603260045260246000fd5b60200260200101819052508581600281518110612e6b577f4e487b7100000000000000000000000000000000000000000000000000000000600052603260045260246000fd5b60200260200101819052508381600381518110612eb1577f4e487b7100000000000000000000000000000000000000000000000000000000600052603260045260246000fd5b6020026020010181905250612ec68282612f28565b9250505098975050505050505050565b600060088383604051602001612eed9291906145f0565b6040516020818303038152906040528051906020012060001c901c905092915050565b6060612f1f848460008561359b565b90509392505050565b60008151835114612f6e576040517f08c379a0000000000000000000000000000000000000000000000000000000008152600401612f659061487d565b60405180910390fd5b6000835190506000600682612f839190614c34565b905060008167ffffffffffffffff811115612fc7577f4e487b7100000000000000000000000000000000000000000000000000000000600052604160045260246000fd5b604051908082528060200260200182016040528015612ff55781602001602082028036833780820191505090505b50905060005b838110156134da5786818151811061303c577f4e487b7100000000000000000000000000000000000000000000000000000000600052603260045260246000fd5b6020026020010151600001518260006006846130589190614c34565b6130629190614bde565b81518110613099577f4e487b7100000000000000000000000000000000000000000000000000000000600052603260045260246000fd5b6020026020010181815250508681815181106130de577f4e487b7100000000000000000000000000000000000000000000000000000000600052603260045260246000fd5b6020026020010151602001518260016006846130fa9190614c34565b6131049190614bde565b8151811061313b577f4e487b7100000000000000000000000000000000000000000000000000000000600052603260045260246000fd5b602002602001018181525050858181518110613180577f4e487b7100000000000000000000000000000000000000000000000000000000600052603260045260246000fd5b6020026020010151600001516000600281106131c5577f4e487b7100000000000000000000000000000000000000000000000000000000600052603260045260246000fd5b60200201518260026006846131da9190614c34565b6131e49190614bde565b8151811061321b577f4e487b7100000000000000000000000000000000000000000000000000000000600052603260045260246000fd5b602002602001018181525050858181518110613260577f4e487b7100000000000000000000000000000000000000000000000000000000600052603260045260246000fd5b6020026020010151600001516001600281106132a5577f4e487b7100000000000000000000000000000000000000000000000000000000600052603260045260246000fd5b60200201518260036006846132ba9190614c34565b6132c49190614bde565b815181106132fb577f4e487b7100000000000000000000000000000000000000000000000000000000600052603260045260246000fd5b602002602001018181525050858181518110613340577f4e487b7100000000000000000000000000000000000000000000000000000000600052603260045260246000fd5b602002602001015160200151600060028110613385577f4e487b7100000000000000000000000000000000000000000000000000000000600052603260045260246000fd5b602002015182600460068461339a9190614c34565b6133a49190614bde565b815181106133db577f4e487b7100000000000000000000000000000000000000000000000000000000600052603260045260246000fd5b602002602001018181525050858181518110613420577f4e487b7100000000000000000000000000000000000000000000000000000000600052603260045260246000fd5b602002602001015160200151600160028110613465577f4e487b7100000000000000000000000000000000000000000000000000000000600052603260045260246000fd5b602002015182600560068461347a9190614c34565b6134849190614bde565b815181106134bb577f4e487b7100000000000000000000000000000000000000000000000000000000600052603260045260246000fd5b60200260200101818152505080806134d290614ddb565b915050612ffb565b506134e3613827565b6000602082602086026020860160086107d05a03fa905080600081146135085761350a565bfe5b508061354b576040517f08c379a0000000000000000000000000000000000000000000000000000000008152600401613542906148dd565b60405180910390fd5b600082600060018110613587577f4e487b7100000000000000000000000000000000000000000000000000000000600052603260045260246000fd5b602002015114159550505050505092915050565b6060824710156135e0576040517f08c379a00000000000000000000000000000000000000000000000000000000081526004016135d7906147bd565b60405180910390fd5b6135e9856136af565b613628576040517f08c379a000000000000000000000000000000000000000000000000000000000815260040161361f9061485d565b60405180910390fd5b6000808673ffffffffffffffffffffffffffffffffffffffff16858760405161365191906145d9565b60006040518083038185875af1925050503d806000811461368e576040519150601f19603f3d011682016040523d82523d6000602084013e613693565b606091505b50915091506136a38282866136c2565b92505050949350505050565b600080823b905060008111915050919050565b606083156136d257829050613722565b6000835111156136e55782518084602001fd5b816040517f08c379a0000000000000000000000000000000000000000000000000000000008152600401613719919061473b565b60405180910390fd5b9392505050565b604051806060016040528061373c6137a3565b8152602001613749613801565b81526020016137566137a3565b81525090565b6040518060a0016040528061376f6137a3565b815260200161377c613801565b8152602001613789613801565b8152602001613796613801565b8152602001606081525090565b604051806040016040528060008152602001600081525090565b6040518060600160405280600390602082028036833780820191505090505090565b6040518060800160405280600490602082028036833780820191505090505090565b6040518060400160405280613814613849565b8152602001613821613849565b81525090565b6040518060200160405280600190602082028036833780820191505090505090565b6040518060400160405280600290602082028036833780820191505090505090565b600061387e61387984614a38565b614a13565b9050808285604086028201111561389457600080fd5b60005b858110156138c457816138aa8882613a7a565b845260208401935060408301925050600181019050613897565b5050509392505050565b60006138e16138dc84614a5e565b614a13565b905080828560208602820111156138f757600080fd5b60005b85811015613927578161390d8882613c57565b8452602084019350602083019250506001810190506138fa565b5050509392505050565b600061394461393f84614a84565b614a13565b9050808285602086028201111561395a57600080fd5b60005b8581101561398a57816139708882613c57565b84526020840193506020830192505060018101905061395d565b5050509392505050565b60006139a76139a284614aaa565b614a13565b905080838252602082019050828560208602820111156139c657600080fd5b60005b858110156139f657816139dc8882613c57565b8452602084019350602083019250506001810190506139c9565b5050509392505050565b6000613a13613a0e84614ad6565b614a13565b905082815260208101848484011115613a2b57600080fd5b613a36848285614d68565b509392505050565b600081359050613a4d81615281565b92915050565b600082601f830112613a6457600080fd5b6002613a7184828561386b565b91505092915050565b600082601f830112613a8b57600080fd5b6002613a988482856138ce565b91505092915050565b600082601f830112613ab257600080fd5b6004613abf848285613931565b91505092915050565b600081905082602060080282011115613ae057600080fd5b92915050565b60008083601f840112613af857600080fd5b8235905067ffffffffffffffff811115613b1157600080fd5b602083019150836020820283011115613b2957600080fd5b9250929050565b600082601f830112613b4157600080fd5b8135613b51848260208601613994565b91505092915050565b60008083601f840112613b6c57600080fd5b8235905067ffffffffffffffff811115613b8557600080fd5b602083019150836020820283011115613b9d57600080fd5b9250929050565b600081519050613bb381615298565b92915050565b600081359050613bc8816152af565b92915050565b600082601f830112613bdf57600080fd5b8135613bef848260208601613a00565b91505092915050565b600081359050613c07816152c6565b92915050565b60008083601f840112613c1f57600080fd5b8235905067ffffffffffffffff811115613c3857600080fd5b602083019150836001820283011115613c5057600080fd5b9250929050565b600081359050613c66816152d6565b92915050565b600081359050613c7b816152ed565b92915050565b600080600080600060a08688031215613c9957600080fd5b6000613ca788828901613a3e565b9550506020613cb888828901613a3e565b945050604086013567ffffffffffffffff811115613cd557600080fd5b613ce188828901613b30565b935050606086013567ffffffffffffffff811115613cfe57600080fd5b613d0a88828901613b30565b925050608086013567ffffffffffffffff811115613d2757600080fd5b613d3388828901613bce565b9150509295509295909350565b60008060008060808587031215613d5657600080fd5b6000613d6487828801613a3e565b9450506020613d7587828801613a3e565b9350506040613d8687828801613c57565b925050606085013567ffffffffffffffff811115613da357600080fd5b613daf87828801613bce565b91505092959194509250565b600080600080600060a08688031215613dd357600080fd5b6000613de188828901613a3e565b9550506020613df288828901613a3e565b9450506040613e0388828901613c57565b9350506060613e1488828901613c57565b925050608086013567ffffffffffffffff811115613e3157600080fd5b613e3d88828901613bce565b9150509295509295909350565b6000806000806101808587031215613e6157600080fd5b6000613e6f87828801613a7a565b9450506040613e8087828801613a53565b93505060c0613e9187828801613a7a565b925050610100613ea387828801613aa1565b91505092959194509250565b600060208284031215613ec157600080fd5b6000613ecf84828501613ba4565b91505092915050565b600060208284031215613eea57600080fd5b6000613ef884828501613bb9565b91505092915050565b60008060008060006101608688031215613f1a57600080fd5b600086013567ffffffffffffffff811115613f3457600080fd5b613f4088828901613c0d565b95509550506020613f5388828901613c57565b9350506040613f6488828901613c57565b9250506060613f7588828901613ac8565b9150509295509295909350565b600060208284031215613f9457600080fd5b6000613fa284828501613c57565b91505092915050565b600080600080600060a08688031215613fc357600080fd5b6000613fd188828901613c57565b9550506020613fe288828901613a3e565b9450506040613ff388828901613a3e565b935050606061400488828901613bf8565b925050608061401588828901613c57565b9150509295509295909350565b6000806040838503121561403557600080fd5b600061404385828601613c57565b925050602061405485828601613c57565b9150509250929050565b600080600080600080600060a0888a03121561407957600080fd5b60006140878a828b01613c57565b97505060206140988a828b01613c57565b965050604088013567ffffffffffffffff8111156140b557600080fd5b6140c18a828b01613ae6565b9550955050606088013567ffffffffffffffff8111156140e057600080fd5b6140ec8a828b01613b5a565b935093505060806140ff8a828b01613a3e565b91505092959891949750929550565b60008060006060848603121561412357600080fd5b600061413186828701613c57565b935050602061414286828701613c57565b925050604061415386828701613c57565b9150509250925092565b6000614169838361457f565b60208301905092915050565b600061418183836145ca565b60208301905092915050565b61419681614cc2565b82525050565b60006141a88385614b6d565b93507f07ffffffffffffffffffffffffffffffffffffffffffffffffffffffffffffff8311156141d757600080fd5b6020830292506141e8838584614d68565b82840190509392505050565b60006141ff82614b21565b6142098185614b5c565b935061421483614b07565b8060005b8381101561424557815161422c888261415d565b975061423783614b42565b925050600181019050614218565b5085935050505092915050565b600061425e8385614b7e565b935061426982614b17565b8060005b858110156142a25761427f8284614bc7565b6142898882614175565b975061429483614b4f565b92505060018101905061426d565b5085925050509392505050565b6142b881614cd4565b82525050565b6142c781614ce0565b82525050565b60006142d882614b2c565b6142e28185614ba0565b93506142f2818560208601614d77565b80840191505092915050565b61430781614d56565b82525050565b60006143198385614bbc565b9350614326838584614d68565b82840190509392505050565b600061433d82614b37565b6143478185614bab565b9350614357818560208601614d77565b61436081614f11565b840191505092915050565b6000614378603683614bab565b915061438382614f22565b604082019050919050565b600061439b600483614b8f565b91506143a682614f71565b602082019050919050565b60006143be602583614bab565b91506143c982614f9a565b604082019050919050565b60006143e1603183614bab565b91506143ec82614fe9565b604082019050919050565b6000614404602683614bab565b915061440f82615038565b604082019050919050565b6000614427601283614bab565b915061443282615087565b602082019050919050565b600061444a601283614bab565b9150614455826150b0565b602082019050919050565b600061446d600983614bbc565b9150614478826150d9565b600982019050919050565b6000614490602583614bab565b915061449b82615102565b604082019050919050565b60006144b3601f83614bab565b91506144be82615151565b602082019050919050565b60006144d6601d83614bab565b91506144e18261517a565b602082019050919050565b60006144f9601683614bab565b9150614504826151a3565b602082019050919050565b600061451c602a83614bab565b9150614527826151cc565b604082019050919050565b600061453f601283614bab565b915061454a8261521b565b602082019050919050565b6000614562601583614bab565b915061456d82615244565b602082019050919050565b8082525050565b61458881614d3f565b82525050565b61459781614d3f565b82525050565b6145a681614d3f565b82525050565b6145b581614d49565b82525050565b6145c481614d49565b82525050565b6145d381614d49565b82525050565b60006145e582846142cd565b915081905092915050565b60006145fd82848661430d565b91508190509392505050565b600061461482614460565b9150819050919050565b6000602082019050614633600083018461418d565b92915050565b600060608201905061464e600083018661418d565b61465b602083018561418d565b614668604083018461458e565b949350505050565b600060a082019050614685600083018761418d565b614692602083018661418d565b61469f604083018561458e565b6146ac606083018461458e565b81810360808301526146bd8161438e565b905095945050505050565b600060208201905081810360008301526146e281846141f4565b905092915050565b60006020820190506146ff60008301846142af565b92915050565b600060208201905061471a60008301846142be565b92915050565b600060208201905061473560008301846142fe565b92915050565b600060208201905081810360008301526147558184614332565b905092915050565b600060208201905081810360008301526147768161436b565b9050919050565b60006020820190508181036000830152614796816143b1565b9050919050565b600060208201905081810360008301526147b6816143d4565b9050919050565b600060208201905081810360008301526147d6816143f7565b9050919050565b600060208201905081810360008301526147f68161441a565b9050919050565b600060208201905081810360008301526148168161443d565b9050919050565b6000602082019050818103600083015261483681614483565b9050919050565b60006020820190508181036000830152614856816144a6565b9050919050565b60006020820190508181036000830152614876816144c9565b9050919050565b60006020820190508181036000830152614896816144ec565b9050919050565b600060208201905081810360008301526148b68161450f565b9050919050565b600060208201905081810360008301526148d681614532565b9050919050565b600060208201905081810360008301526148f681614555565b9050919050565b60006040820190506149126000830185614578565b61491f602083018461459d565b9392505050565b600060808201905061493b6000830189614578565b614948602083018861459d565b818103604083015261495b81868861419c565b90508181036060830152614970818486614252565b9050979650505050505050565b60006060820190506149926000830186614578565b61499f60208301856145bb565b6149ac604083018461459d565b949350505050565b60006020820190506149c9600083018461458e565b92915050565b60006040820190506149e4600083018561458e565b6149f1602083018461458e565b9392505050565b6000602082019050614a0d60008301846145ac565b92915050565b6000614a1d614a2e565b9050614a298282614daa565b919050565b6000604051905090565b600067ffffffffffffffff821115614a5357614a52614ee2565b5b602082029050919050565b600067ffffffffffffffff821115614a7957614a78614ee2565b5b602082029050919050565b600067ffffffffffffffff821115614a9f57614a9e614ee2565b5b602082029050919050565b600067ffffffffffffffff821115614ac557614ac4614ee2565b5b602082029050602081019050919050565b600067ffffffffffffffff821115614af157614af0614ee2565b5b614afa82614f11565b9050602081019050919050565b6000819050602082019050919050565b6000819050919050565b600081519050919050565b600081519050919050565b600081519050919050565b6000602082019050919050565b6000602082019050919050565b600082825260208201905092915050565b600082825260208201905092915050565b600082825260208201905092915050565b600082825260208201905092915050565b600081905092915050565b600082825260208201905092915050565b600081905092915050565b6000614bd66020840184613c6c565b905092915050565b6000614be982614d3f565b9150614bf483614d3f565b9250827fffffffffffffffffffffffffffffffffffffffffffffffffffffffffffffffff03821115614c2957614c28614e55565b5b828201905092915050565b6000614c3f82614d3f565b9150614c4a83614d3f565b9250817fffffffffffffffffffffffffffffffffffffffffffffffffffffffffffffffff0483118215151615614c8357614c82614e55565b5b828202905092915050565b6000614c9982614d3f565b9150614ca483614d3f565b925082821015614cb757614cb6614e55565b5b828203905092915050565b6000614ccd82614d1f565b9050919050565b60008115159050919050565b60007fffffffff0000000000000000000000000000000000000000000000000000000082169050919050565b6000819050614d1a8261526d565b919050565b600073ffffffffffffffffffffffffffffffffffffffff82169050919050565b6000819050919050565b600060ff82169050919050565b6000614d6182614d0c565b9050919050565b82818337600083830152505050565b60005b83811015614d95578082015181840152602081019050614d7a565b83811115614da4576000848401525b50505050565b614db382614f11565b810181811067ffffffffffffffff82111715614dd257614dd1614ee2565b5b80604052505050565b6000614de682614d3f565b91507fffffffffffffffffffffffffffffffffffffffffffffffffffffffffffffffff821415614e1957614e18614e55565b5b600182019050919050565b6000614e2f82614d3f565b9150614e3a83614d3f565b925082614e4a57614e49614e84565b5b828206905092915050565b7f4e487b7100000000000000000000000000000000000000000000000000000000600052601160045260246000fd5b7f4e487b7100000000000000000000000000000000000000000000000000000000600052601260045260246000fd5b7f4e487b7100000000000000000000000000000000000000000000000000000000600052602160045260246000fd5b7f4e487b7100000000000000000000000000000000000000000000000000000000600052604160045260246000fd5b6000601f19601f8301169050919050565b7f53656d6170686f7265436f72653a20796f752063616e6e6f742075736520746860008201527f652073616d65206e756c6c696669657220747769636500000000000000000000602082015250565b7f3078303000000000000000000000000000000000000000000000000000000000600082015250565b7f53656d6170686f726547726f7570733a2067726f757020616c7265616479206560008201527f7869737473000000000000000000000000000000000000000000000000000000602082015250565b7f53656d6170686f726557686973746c65626c6f77696e673a2063616c6c65722060008201527f6973206e6f742074686520656469746f72000000000000000000000000000000602082015250565b7f416464726573733a20696e73756666696369656e742062616c616e636520666f60008201527f722063616c6c0000000000000000000000000000000000000000000000000000602082015250565b7f76657269666965722d6261642d696e7075740000000000000000000000000000600082015250565b7f70616972696e672d6d756c2d6661696c65640000000000000000000000000000600082015250565b7f53656d6170686f72650000000000000000000000000000000000000000000000600082015250565b7f53656d6170686f726547726f7570733a2067726f757020646f6573206e6f742060008201527f6578697374000000000000000000000000000000000000000000000000000000602082015250565b7f76657269666965722d6774652d736e61726b2d7363616c61722d6669656c6400600082015250565b7f416464726573733a2063616c6c20746f206e6f6e2d636f6e7472616374000000600082015250565b7f70616972696e672d6c656e677468732d6661696c656400000000000000000000600082015250565b7f5361666545524332303a204552433230206f7065726174696f6e20646964206e60008201527f6f74207375636365656400000000000000000000000000000000000000000000602082015250565b7f70616972696e672d6164642d6661696c65640000000000000000000000000000600082015250565b7f70616972696e672d6f70636f64652d6661696c65640000000000000000000000600082015250565b6003811061527e5761527d614eb3565b5b50565b61528a81614cc2565b811461529557600080fd5b50565b6152a181614cd4565b81146152ac57600080fd5b50565b6152b881614ce0565b81146152c357600080fd5b50565b600381106152d357600080fd5b50565b6152df81614d3f565b81146152ea57600080fd5b50565b6152f681614d49565b811461530157600080fd5b5056fea2646970667358221220c8d47f0016c5d6c94752c1892dfc222bb54a4e149f0df6fa60720f12a142dc1664736f6c63430008040033",
  "linkReferences": {
    "@zk-kit/incremental-merkle-tree.sol/contracts/IncrementalBinaryTree.sol": {
      "IncrementalBinaryTree": [
        {
          "length": 20,
          "start": 6013
        },
        {
          "length": 20,
          "start": 7135
        },
        {
          "length": 20,
          "start": 8251
        }
      ]
    }
  },
  "deployedLinkReferences": {
    "@zk-kit/incremental-merkle-tree.sol/contracts/IncrementalBinaryTree.sol": {
      "IncrementalBinaryTree": [
        {
          "length": 20,
          "start": 5981
        },
        {
          "length": 20,
          "start": 7103
        },
        {
          "length": 20,
          "start": 8219
        }
      ]
    }
  }
}