{
  "_format": "hh-sol-artifact-1",
  "contractName": "stakingToken",
  "sourceName": "contracts/mockERC721.sol",
  "abi": [
    {
      "inputs": [
        {
          "internalType": "string",
          "name": "name",
          "type": "string"
        },
        {
          "internalType": "string",
          "name": "symbol",
          "type": "string"
        },
        {
          "internalType": "string",
          "name": "uri",
          "type": "string"
        }
      ],
      "stateMutability": "nonpayable",
      "type": "constructor"
    },
    {
      "anonymous": false,
      "inputs": [
        {
          "indexed": true,
          "internalType": "address",
          "name": "owner",
          "type": "address"
        },
        {
          "indexed": true,
          "internalType": "address",
          "name": "approved",
          "type": "address"
        },
        {
          "indexed": true,
          "internalType": "uint256",
          "name": "tokenId",
          "type": "uint256"
        }
      ],
      "name": "Approval",
      "type": "event"
    },
    {
      "anonymous": false,
      "inputs": [
        {
          "indexed": true,
          "internalType": "address",
          "name": "owner",
          "type": "address"
        },
        {
          "indexed": true,
          "internalType": "address",
          "name": "operator",
          "type": "address"
        },
        {
          "indexed": false,
          "internalType": "bool",
          "name": "approved",
          "type": "bool"
        }
      ],
      "name": "ApprovalForAll",
      "type": "event"
    },
    {
      "anonymous": false,
      "inputs": [
        {
          "indexed": true,
          "internalType": "address",
          "name": "from",
          "type": "address"
        },
        {
          "indexed": true,
          "internalType": "address",
          "name": "to",
          "type": "address"
        },
        {
          "indexed": true,
          "internalType": "uint256",
          "name": "tokenId",
          "type": "uint256"
        }
      ],
      "name": "Transfer",
      "type": "event"
    },
    {
      "inputs": [
        {
          "internalType": "address",
          "name": "to",
          "type": "address"
        },
        {
          "internalType": "uint256",
          "name": "tokenId",
          "type": "uint256"
        }
      ],
      "name": "approve",
      "outputs": [],
      "stateMutability": "nonpayable",
      "type": "function"
    },
    {
      "inputs": [
        {
          "internalType": "address",
          "name": "owner",
          "type": "address"
        }
      ],
      "name": "balanceOf",
      "outputs": [
        {
          "internalType": "uint256",
          "name": "",
          "type": "uint256"
        }
      ],
      "stateMutability": "view",
      "type": "function"
    },
    {
      "inputs": [
        {
          "internalType": "uint256",
          "name": "tokenId",
          "type": "uint256"
        }
      ],
      "name": "burn",
      "outputs": [],
      "stateMutability": "nonpayable",
      "type": "function"
    },
    {
      "inputs": [
        {
          "internalType": "uint256",
          "name": "tokenId",
          "type": "uint256"
        }
      ],
      "name": "exists",
      "outputs": [
        {
          "internalType": "bool",
          "name": "",
          "type": "bool"
        }
      ],
      "stateMutability": "view",
      "type": "function"
    },
    {
      "inputs": [
        {
          "internalType": "uint256",
          "name": "tokenId",
          "type": "uint256"
        }
      ],
      "name": "getApproved",
      "outputs": [
        {
          "internalType": "address",
          "name": "",
          "type": "address"
        }
      ],
      "stateMutability": "view",
      "type": "function"
    },
    {
      "inputs": [
        {
          "internalType": "address",
          "name": "owner",
          "type": "address"
        },
        {
          "internalType": "address",
          "name": "operator",
          "type": "address"
        }
      ],
      "name": "isApprovedForAll",
      "outputs": [
        {
          "internalType": "bool",
          "name": "",
          "type": "bool"
        }
      ],
      "stateMutability": "view",
      "type": "function"
    },
    {
      "inputs": [
        {
          "internalType": "address",
          "name": "to",
          "type": "address"
        },
        {
          "internalType": "uint256",
          "name": "tokenId",
          "type": "uint256"
        }
      ],
      "name": "mint",
      "outputs": [],
      "stateMutability": "nonpayable",
      "type": "function"
    },
    {
      "inputs": [],
      "name": "name",
      "outputs": [
        {
          "internalType": "string",
          "name": "",
          "type": "string"
        }
      ],
      "stateMutability": "view",
      "type": "function"
    },
    {
      "inputs": [
        {
          "internalType": "uint256",
          "name": "tokenId",
          "type": "uint256"
        }
      ],
      "name": "ownerOf",
      "outputs": [
        {
          "internalType": "address",
          "name": "",
          "type": "address"
        }
      ],
      "stateMutability": "view",
      "type": "function"
    },
    {
      "inputs": [
        {
          "internalType": "address",
          "name": "to",
          "type": "address"
        },
        {
          "internalType": "uint256",
          "name": "tokenId",
          "type": "uint256"
        },
        {
          "internalType": "bytes",
          "name": "_data",
          "type": "bytes"
        }
      ],
      "name": "safeMint",
      "outputs": [],
      "stateMutability": "nonpayable",
      "type": "function"
    },
    {
      "inputs": [
        {
          "internalType": "address",
          "name": "to",
          "type": "address"
        },
        {
          "internalType": "uint256",
          "name": "tokenId",
          "type": "uint256"
        }
      ],
      "name": "safeMint",
      "outputs": [],
      "stateMutability": "nonpayable",
      "type": "function"
    },
    {
      "inputs": [
        {
          "internalType": "address",
          "name": "from",
          "type": "address"
        },
        {
          "internalType": "address",
          "name": "to",
          "type": "address"
        },
        {
          "internalType": "uint256",
          "name": "tokenId",
          "type": "uint256"
        }
      ],
      "name": "safeTransferFrom",
      "outputs": [],
      "stateMutability": "nonpayable",
      "type": "function"
    },
    {
      "inputs": [
        {
          "internalType": "address",
          "name": "from",
          "type": "address"
        },
        {
          "internalType": "address",
          "name": "to",
          "type": "address"
        },
        {
          "internalType": "uint256",
          "name": "tokenId",
          "type": "uint256"
        },
        {
          "internalType": "bytes",
          "name": "_data",
          "type": "bytes"
        }
      ],
      "name": "safeTransferFrom",
      "outputs": [],
      "stateMutability": "nonpayable",
      "type": "function"
    },
    {
      "inputs": [
        {
          "internalType": "address",
          "name": "operator",
          "type": "address"
        },
        {
          "internalType": "bool",
          "name": "approved",
          "type": "bool"
        }
      ],
      "name": "setApprovalForAll",
      "outputs": [],
      "stateMutability": "nonpayable",
      "type": "function"
    },
    {
      "inputs": [
        {
          "internalType": "address",
          "name": "to",
          "type": "address"
        }
      ],
      "name": "simpleMint",
      "outputs": [],
      "stateMutability": "nonpayable",
      "type": "function"
    },
    {
      "inputs": [
        {
          "internalType": "bytes4",
          "name": "interfaceId",
          "type": "bytes4"
        }
      ],
      "name": "supportsInterface",
      "outputs": [
        {
          "internalType": "bool",
          "name": "",
          "type": "bool"
        }
      ],
      "stateMutability": "view",
      "type": "function"
    },
    {
      "inputs": [],
      "name": "symbol",
      "outputs": [
        {
          "internalType": "string",
          "name": "",
          "type": "string"
        }
      ],
      "stateMutability": "view",
      "type": "function"
    },
    {
      "inputs": [
        {
          "internalType": "uint256",
          "name": "index",
          "type": "uint256"
        }
      ],
      "name": "tokenByIndex",
      "outputs": [
        {
          "internalType": "uint256",
          "name": "",
          "type": "uint256"
        }
      ],
      "stateMutability": "view",
      "type": "function"
    },
    {
      "inputs": [
        {
          "internalType": "address",
          "name": "owner",
          "type": "address"
        },
        {
          "internalType": "uint256",
          "name": "index",
          "type": "uint256"
        }
      ],
      "name": "tokenOfOwnerByIndex",
      "outputs": [
        {
          "internalType": "uint256",
          "name": "",
          "type": "uint256"
        }
      ],
      "stateMutability": "view",
      "type": "function"
    },
    {
      "inputs": [
        {
          "internalType": "uint256",
          "name": "_id",
          "type": "uint256"
        }
      ],
      "name": "tokenURI",
      "outputs": [
        {
          "internalType": "string",
          "name": "",
          "type": "string"
        }
      ],
      "stateMutability": "view",
      "type": "function"
    },
    {
      "inputs": [],
      "name": "totalSupply",
      "outputs": [
        {
          "internalType": "uint256",
          "name": "",
          "type": "uint256"
        }
      ],
      "stateMutability": "view",
      "type": "function"
    },
    {
      "inputs": [],
      "name": "totalTokensMinted",
      "outputs": [
        {
          "internalType": "uint256",
          "name": "",
          "type": "uint256"
        }
      ],
      "stateMutability": "view",
      "type": "function"
    },
    {
      "inputs": [
        {
          "internalType": "address",
          "name": "from",
          "type": "address"
        },
        {
          "internalType": "address",
          "name": "to",
          "type": "address"
        },
        {
          "internalType": "uint256",
          "name": "tokenId",
          "type": "uint256"
        }
      ],
      "name": "transferFrom",
      "outputs": [],
      "stateMutability": "nonpayable",
      "type": "function"
    }
  ],
  "bytecode": "0x60806040523480156200001157600080fd5b5060405162003568380380620035688339818101604052810190620000379190620001b1565b82828160009080519060200190620000519291906200008f565b5080600190805190602001906200006a9291906200008f565b50505080600a9080519060200190620000859291906200008f565b50505050620003c2565b8280546200009d90620002e7565b90600052602060002090601f016020900481019282620000c157600085556200010d565b82601f10620000dc57805160ff19168380011785556200010d565b828001600101855582156200010d579182015b828111156200010c578251825591602001919060010190620000ef565b5b5090506200011c919062000120565b5090565b5b808211156200013b57600081600090555060010162000121565b5090565b60006200015662000150846200027b565b62000252565b9050828152602081018484840111156200016f57600080fd5b6200017c848285620002b1565b509392505050565b600082601f8301126200019657600080fd5b8151620001a88482602086016200013f565b91505092915050565b600080600060608486031215620001c757600080fd5b600084015167ffffffffffffffff811115620001e257600080fd5b620001f08682870162000184565b935050602084015167ffffffffffffffff8111156200020e57600080fd5b6200021c8682870162000184565b925050604084015167ffffffffffffffff8111156200023a57600080fd5b620002488682870162000184565b9150509250925092565b60006200025e62000271565b90506200026c82826200031d565b919050565b6000604051905090565b600067ffffffffffffffff82111562000299576200029862000382565b5b620002a482620003b1565b9050602081019050919050565b60005b83811015620002d1578082015181840152602081019050620002b4565b83811115620002e1576000848401525b50505050565b600060028204905060018216806200030057607f821691505b6020821081141562000317576200031662000353565b5b50919050565b6200032882620003b1565b810181811067ffffffffffffffff821117156200034a576200034962000382565b5b80604052505050565b7f4e487b7100000000000000000000000000000000000000000000000000000000600052602260045260246000fd5b7f4e487b7100000000000000000000000000000000000000000000000000000000600052604160045260246000fd5b6000601f19601f8301169050919050565b61319680620003d26000396000f3fe608060405234801561001057600080fd5b506004361061014d5760003560e01c80634f6ccce7116100c357806395d89b411161007c57806395d89b41146103c0578063a1448194146103de578063a22cb465146103fa578063b88d4fde14610416578063c87b56dd14610432578063e985e9c5146104625761014d565b80634f6ccce7146102da57806358dd27181461030a5780636352211e1461032657806370a08231146103565780637d549e99146103865780638832e6e3146103a45761014d565b806323b872dd1161011557806323b872dd1461020a5780632f745c591461022657806340c10f191461025657806342842e0e1461027257806342966c681461028e5780634f558e79146102aa5761014d565b806301ffc9a71461015257806306fdde0314610182578063081812fc146101a0578063095ea7b3146101d057806318160ddd146101ec575b600080fd5b61016c60048036038101906101679190612306565b610492565b60405161017991906126e9565b60405180910390f35b61018a61050c565b6040516101979190612704565b60405180910390f35b6101ba60048036038101906101b59190612358565b61059e565b6040516101c79190612682565b60405180910390f35b6101ea60048036038101906101e59190612263565b610623565b005b6101f461073b565b6040516102019190612906565b60405180910390f35b610224600480360381019061021f919061215d565b610748565b005b610240600480360381019061023b9190612263565b6107a8565b60405161024d9190612906565b60405180910390f35b610270600480360381019061026b9190612263565b61084d565b005b61028c6004803603810190610287919061215d565b610875565b005b6102a860048036038101906102a39190612358565b610895565b005b6102c460048036038101906102bf9190612358565b6108a1565b6040516102d191906126e9565b60405180910390f35b6102f460048036038101906102ef9190612358565b6108b3565b6040516103019190612906565b60405180910390f35b610324600480360381019061031f91906120f8565b61094a565b005b610340600480360381019061033b9190612358565b610973565b60405161034d9190612682565b60405180910390f35b610370600480360381019061036b91906120f8565b610a25565b60405161037d9190612906565b60405180910390f35b61038e610add565b60405161039b9190612906565b60405180910390f35b6103be60048036038101906103b9919061229f565b610ae3565b005b6103c8610af3565b6040516103d59190612704565b60405180910390f35b6103f860048036038101906103f39190612263565b610b85565b005b610414600480360381019061040f9190612227565b610b93565b005b610430600480360381019061042b91906121ac565b610ba9565b005b61044c60048036038101906104479190612358565b610c0b565b6040516104599190612704565b60405180910390f35b61047c60048036038101906104779190612121565b610c45565b60405161048991906126e9565b60405180910390f35b60007f780e9d63000000000000000000000000000000000000000000000000000000007bffffffffffffffffffffffffffffffffffffffffffffffffffffffff1916827bffffffffffffffffffffffffffffffffffffffffffffffffffffffff19161480610505575061050482610cd9565b5b9050919050565b60606000805461051b90612b2b565b80601f016020809104026020016040519081016040528092919081815260200182805461054790612b2b565b80156105945780601f1061056957610100808354040283529160200191610594565b820191906000526020600020905b81548152906001019060200180831161057757829003601f168201915b5050505050905090565b60006105a982610dbb565b6105e8576040517f08c379a00000000000000000000000000000000000000000000000000000000081526004016105df90612866565b60405180910390fd5b6004600083815260200190815260200160002060009054906101000a900473ffffffffffffffffffffffffffffffffffffffff169050919050565b600061062e82610973565b90508073ffffffffffffffffffffffffffffffffffffffff168373ffffffffffffffffffffffffffffffffffffffff16141561069f576040517f08c379a0000000000000000000000000000000000000000000000000000000008152600401610696906128a6565b60405180910390fd5b8073ffffffffffffffffffffffffffffffffffffffff166106be610e27565b73ffffffffffffffffffffffffffffffffffffffff1614806106ed57506106ec816106e7610e27565b610c45565b5b61072c576040517f08c379a0000000000000000000000000000000000000000000000000000000008152600401610723906127e6565b60405180910390fd5b6107368383610e2f565b505050565b6000600880549050905090565b610759610753610e27565b82610ee8565b610798576040517f08c379a000000000000000000000000000000000000000000000000000000000815260040161078f906128c6565b60405180910390fd5b6107a3838383610fc6565b505050565b60006107b383610a25565b82106107f4576040517f08c379a00000000000000000000000000000000000000000000000000000000081526004016107eb90612726565b60405180910390fd5b600660008473ffffffffffffffffffffffffffffffffffffffff1673ffffffffffffffffffffffffffffffffffffffff168152602001908152602001600020600083815260200190815260200160002054905092915050565b6108578282611222565b6001600b600082825461086a91906129ba565b925050819055505050565b61089083838360405180602001604052806000815250610ba9565b505050565b61089e816113f0565b50565b60006108ac82610dbb565b9050919050565b60006108bd61073b565b82106108fe576040517f08c379a00000000000000000000000000000000000000000000000000000000081526004016108f5906128e6565b60405180910390fd5b60088281548110610938577f4e487b7100000000000000000000000000000000000000000000000000000000600052603260045260246000fd5b90600052602060002001549050919050565b6001600b600082825461095d91906129ba565b9250508190555061097081600b54611222565b50565b6000806002600084815260200190815260200160002060009054906101000a900473ffffffffffffffffffffffffffffffffffffffff169050600073ffffffffffffffffffffffffffffffffffffffff168173ffffffffffffffffffffffffffffffffffffffff161415610a1c576040517f08c379a0000000000000000000000000000000000000000000000000000000008152600401610a1390612826565b60405180910390fd5b80915050919050565b60008073ffffffffffffffffffffffffffffffffffffffff168273ffffffffffffffffffffffffffffffffffffffff161415610a96576040517f08c379a0000000000000000000000000000000000000000000000000000000008152600401610a8d90612806565b60405180910390fd5b600360008373ffffffffffffffffffffffffffffffffffffffff1673ffffffffffffffffffffffffffffffffffffffff168152602001908152602001600020549050919050565b600b5481565b610aee838383611501565b505050565b606060018054610b0290612b2b565b80601f0160208091040260200160405190810160405280929190818152602001828054610b2e90612b2b565b8015610b7b5780601f10610b5057610100808354040283529160200191610b7b565b820191906000526020600020905b815481529060010190602001808311610b5e57829003601f168201915b5050505050905090565b610b8f828261155c565b5050565b610ba5610b9e610e27565b838361157a565b5050565b610bba610bb4610e27565b83610ee8565b610bf9576040517f08c379a0000000000000000000000000000000000000000000000000000000008152600401610bf0906128c6565b60405180910390fd5b610c05848484846116e7565b50505050565b6060610c15611743565b610c1e836117d5565b604051602001610c2f92919061265e565b6040516020818303038152906040529050919050565b6000600560008473ffffffffffffffffffffffffffffffffffffffff1673ffffffffffffffffffffffffffffffffffffffff16815260200190815260200160002060008373ffffffffffffffffffffffffffffffffffffffff1673ffffffffffffffffffffffffffffffffffffffff16815260200190815260200160002060009054906101000a900460ff16905092915050565b60007f80ac58cd000000000000000000000000000000000000000000000000000000007bffffffffffffffffffffffffffffffffffffffffffffffffffffffff1916827bffffffffffffffffffffffffffffffffffffffffffffffffffffffff19161480610da457507f5b5e139f000000000000000000000000000000000000000000000000000000007bffffffffffffffffffffffffffffffffffffffffffffffffffffffff1916827bffffffffffffffffffffffffffffffffffffffffffffffffffffffff1916145b80610db45750610db382611982565b5b9050919050565b60008073ffffffffffffffffffffffffffffffffffffffff166002600084815260200190815260200160002060009054906101000a900473ffffffffffffffffffffffffffffffffffffffff1673ffffffffffffffffffffffffffffffffffffffff1614159050919050565b600033905090565b816004600083815260200190815260200160002060006101000a81548173ffffffffffffffffffffffffffffffffffffffff021916908373ffffffffffffffffffffffffffffffffffffffff160217905550808273ffffffffffffffffffffffffffffffffffffffff16610ea283610973565b73ffffffffffffffffffffffffffffffffffffffff167f8c5be1e5ebec7d5bd14f71427d1e84f3dd0314c0f7b2291e5b200ac8c7c3b92560405160405180910390a45050565b6000610ef382610dbb565b610f32576040517f08c379a0000000000000000000000000000000000000000000000000000000008152600401610f29906127c6565b60405180910390fd5b6000610f3d83610973565b90508073ffffffffffffffffffffffffffffffffffffffff168473ffffffffffffffffffffffffffffffffffffffff161480610fac57508373ffffffffffffffffffffffffffffffffffffffff16610f948461059e565b73ffffffffffffffffffffffffffffffffffffffff16145b80610fbd5750610fbc8185610c45565b5b91505092915050565b8273ffffffffffffffffffffffffffffffffffffffff16610fe682610973565b73ffffffffffffffffffffffffffffffffffffffff161461103c576040517f08c379a000000000000000000000000000000000000000000000000000000000815260040161103390612886565b60405180910390fd5b600073ffffffffffffffffffffffffffffffffffffffff168273ffffffffffffffffffffffffffffffffffffffff1614156110ac576040517f08c379a00000000000000000000000000000000000000000000000000000000081526004016110a390612786565b60405180910390fd5b6110b78383836119ec565b6110c2600082610e2f565b6001600360008573ffffffffffffffffffffffffffffffffffffffff1673ffffffffffffffffffffffffffffffffffffffff16815260200190815260200160002060008282546111129190612a41565b925050819055506001600360008473ffffffffffffffffffffffffffffffffffffffff1673ffffffffffffffffffffffffffffffffffffffff168152602001908152602001600020600082825461116991906129ba565b92505081905550816002600083815260200190815260200160002060006101000a81548173ffffffffffffffffffffffffffffffffffffffff021916908373ffffffffffffffffffffffffffffffffffffffff160217905550808273ffffffffffffffffffffffffffffffffffffffff168473ffffffffffffffffffffffffffffffffffffffff167fddf252ad1be2c89b69c2b068fc378daa952ba7f163c4a11628f55a4df523b3ef60405160405180910390a4505050565b600073ffffffffffffffffffffffffffffffffffffffff168273ffffffffffffffffffffffffffffffffffffffff161415611292576040517f08c379a000000000000000000000000000000000000000000000000000000000815260040161128990612846565b60405180910390fd5b61129b81610dbb565b156112db576040517f08c379a00000000000000000000000000000000000000000000000000000000081526004016112d290612766565b60405180910390fd5b6112e7600083836119ec565b6001600360008473ffffffffffffffffffffffffffffffffffffffff1673ffffffffffffffffffffffffffffffffffffffff168152602001908152602001600020600082825461133791906129ba565b92505081905550816002600083815260200190815260200160002060006101000a81548173ffffffffffffffffffffffffffffffffffffffff021916908373ffffffffffffffffffffffffffffffffffffffff160217905550808273ffffffffffffffffffffffffffffffffffffffff16600073ffffffffffffffffffffffffffffffffffffffff167fddf252ad1be2c89b69c2b068fc378daa952ba7f163c4a11628f55a4df523b3ef60405160405180910390a45050565b60006113fb82610973565b9050611409816000846119ec565b611414600083610e2f565b6001600360008373ffffffffffffffffffffffffffffffffffffffff1673ffffffffffffffffffffffffffffffffffffffff16815260200190815260200160002060008282546114649190612a41565b925050819055506002600083815260200190815260200160002060006101000a81549073ffffffffffffffffffffffffffffffffffffffff021916905581600073ffffffffffffffffffffffffffffffffffffffff168273ffffffffffffffffffffffffffffffffffffffff167fddf252ad1be2c89b69c2b068fc378daa952ba7f163c4a11628f55a4df523b3ef60405160405180910390a45050565b61150b8383611222565b6115186000848484611b00565b611557576040517f08c379a000000000000000000000000000000000000000000000000000000000815260040161154e90612746565b60405180910390fd5b505050565b611576828260405180602001604052806000815250611501565b5050565b8173ffffffffffffffffffffffffffffffffffffffff168373ffffffffffffffffffffffffffffffffffffffff1614156115e9576040517f08c379a00000000000000000000000000000000000000000000000000000000081526004016115e0906127a6565b60405180910390fd5b80600560008573ffffffffffffffffffffffffffffffffffffffff1673ffffffffffffffffffffffffffffffffffffffff16815260200190815260200160002060008473ffffffffffffffffffffffffffffffffffffffff1673ffffffffffffffffffffffffffffffffffffffff16815260200190815260200160002060006101000a81548160ff0219169083151502179055508173ffffffffffffffffffffffffffffffffffffffff168373ffffffffffffffffffffffffffffffffffffffff167f17307eab39ab6107e8899845ad3d59bd9653f200f220920489ca2b5937696c31836040516116da91906126e9565b60405180910390a3505050565b6116f2848484610fc6565b6116fe84848484611b00565b61173d576040517f08c379a000000000000000000000000000000000000000000000000000000000815260040161173490612746565b60405180910390fd5b50505050565b6060600a805461175290612b2b565b80601f016020809104026020016040519081016040528092919081815260200182805461177e90612b2b565b80156117cb5780601f106117a0576101008083540402835291602001916117cb565b820191906000526020600020905b8154815290600101906020018083116117ae57829003601f168201915b5050505050905090565b6060600082141561181d576040518060400160405280600181526020017f3000000000000000000000000000000000000000000000000000000000000000815250905061197d565b600082905060005b6000821461184f57808061183890612b8e565b915050600a826118489190612a10565b9150611825565b60008167ffffffffffffffff811115611891577f4e487b7100000000000000000000000000000000000000000000000000000000600052604160045260246000fd5b6040519080825280601f01601f1916602001820160405280156118c35781602001600182028036833780820191505090505b5090505b60008514611976576001826118dc9190612a41565b9150600a856118eb9190612bd7565b60306118f791906129ba565b60f81b818381518110611933577f4e487b7100000000000000000000000000000000000000000000000000000000600052603260045260246000fd5b60200101907effffffffffffffffffffffffffffffffffffffffffffffffffffffffffffff1916908160001a905350600a8561196f9190612a10565b94506118c7565b8093505050505b919050565b60007f01ffc9a7000000000000000000000000000000000000000000000000000000007bffffffffffffffffffffffffffffffffffffffffffffffffffffffff1916827bffffffffffffffffffffffffffffffffffffffffffffffffffffffff1916149050919050565b6119f7838383611c97565b600073ffffffffffffffffffffffffffffffffffffffff168373ffffffffffffffffffffffffffffffffffffffff161415611a3a57611a3581611c9c565b611a79565b8173ffffffffffffffffffffffffffffffffffffffff168373ffffffffffffffffffffffffffffffffffffffff1614611a7857611a778382611ce5565b5b5b600073ffffffffffffffffffffffffffffffffffffffff168273ffffffffffffffffffffffffffffffffffffffff161415611abc57611ab781611e52565b611afb565b8273ffffffffffffffffffffffffffffffffffffffff168273ffffffffffffffffffffffffffffffffffffffff1614611afa57611af98282611f95565b5b5b505050565b6000611b218473ffffffffffffffffffffffffffffffffffffffff16612014565b15611c8a578373ffffffffffffffffffffffffffffffffffffffff1663150b7a02611b4a610e27565b8786866040518563ffffffff1660e01b8152600401611b6c949392919061269d565b602060405180830381600087803b158015611b8657600080fd5b505af1925050508015611bb757506040513d601f19601f82011682018060405250810190611bb4919061232f565b60015b611c3a573d8060008114611be7576040519150601f19603f3d011682016040523d82523d6000602084013e611bec565b606091505b50600081511415611c32576040517f08c379a0000000000000000000000000000000000000000000000000000000008152600401611c2990612746565b60405180910390fd5b805181602001fd5b63150b7a0260e01b7bffffffffffffffffffffffffffffffffffffffffffffffffffffffff1916817bffffffffffffffffffffffffffffffffffffffffffffffffffffffff191614915050611c8f565b600190505b949350505050565b505050565b6008805490506009600083815260200190815260200160002081905550600881908060018154018082558091505060019003906000526020600020016000909190919091505550565b60006001611cf284610a25565b611cfc9190612a41565b9050600060076000848152602001908152602001600020549050818114611de1576000600660008673ffffffffffffffffffffffffffffffffffffffff1673ffffffffffffffffffffffffffffffffffffffff168152602001908152602001600020600084815260200190815260200160002054905080600660008773ffffffffffffffffffffffffffffffffffffffff1673ffffffffffffffffffffffffffffffffffffffff168152602001908152602001600020600084815260200190815260200160002081905550816007600083815260200190815260200160002081905550505b6007600084815260200190815260200160002060009055600660008573ffffffffffffffffffffffffffffffffffffffff1673ffffffffffffffffffffffffffffffffffffffff16815260200190815260200160002060008381526020019081526020016000206000905550505050565b60006001600880549050611e669190612a41565b9050600060096000848152602001908152602001600020549050600060088381548110611ebc577f4e487b7100000000000000000000000000000000000000000000000000000000600052603260045260246000fd5b906000526020600020015490508060088381548110611f04577f4e487b7100000000000000000000000000000000000000000000000000000000600052603260045260246000fd5b906000526020600020018190555081600960008381526020019081526020016000208190555060096000858152602001908152602001600020600090556008805480611f79577f4e487b7100000000000000000000000000000000000000000000000000000000600052603160045260246000fd5b6001900381819060005260206000200160009055905550505050565b6000611fa083610a25565b905081600660008573ffffffffffffffffffffffffffffffffffffffff1673ffffffffffffffffffffffffffffffffffffffff168152602001908152602001600020600083815260200190815260200160002081905550806007600084815260200190815260200160002081905550505050565b600080823b905060008111915050919050565b600061203a61203584612946565b612921565b90508281526020810184848401111561205257600080fd5b61205d848285612ae9565b509392505050565b60008135905061207481613104565b92915050565b6000813590506120898161311b565b92915050565b60008135905061209e81613132565b92915050565b6000815190506120b381613132565b92915050565b600082601f8301126120ca57600080fd5b81356120da848260208601612027565b91505092915050565b6000813590506120f281613149565b92915050565b60006020828403121561210a57600080fd5b600061211884828501612065565b91505092915050565b6000806040838503121561213457600080fd5b600061214285828601612065565b925050602061215385828601612065565b9150509250929050565b60008060006060848603121561217257600080fd5b600061218086828701612065565b935050602061219186828701612065565b92505060406121a2868287016120e3565b9150509250925092565b600080600080608085870312156121c257600080fd5b60006121d087828801612065565b94505060206121e187828801612065565b93505060406121f2878288016120e3565b925050606085013567ffffffffffffffff81111561220f57600080fd5b61221b878288016120b9565b91505092959194509250565b6000806040838503121561223a57600080fd5b600061224885828601612065565b92505060206122598582860161207a565b9150509250929050565b6000806040838503121561227657600080fd5b600061228485828601612065565b9250506020612295858286016120e3565b9150509250929050565b6000806000606084860312156122b457600080fd5b60006122c286828701612065565b93505060206122d3868287016120e3565b925050604084013567ffffffffffffffff8111156122f057600080fd5b6122fc868287016120b9565b9150509250925092565b60006020828403121561231857600080fd5b60006123268482850161208f565b91505092915050565b60006020828403121561234157600080fd5b600061234f848285016120a4565b91505092915050565b60006020828403121561236a57600080fd5b6000612378848285016120e3565b91505092915050565b61238a81612a75565b82525050565b61239981612a87565b82525050565b60006123aa82612977565b6123b4818561298d565b93506123c4818560208601612af8565b6123cd81612cc4565b840191505092915050565b60006123e382612982565b6123ed818561299e565b93506123fd818560208601612af8565b61240681612cc4565b840191505092915050565b600061241c82612982565b61242681856129af565b9350612436818560208601612af8565b80840191505092915050565b600061244f602b8361299e565b915061245a82612cd5565b604082019050919050565b600061247260328361299e565b915061247d82612d24565b604082019050919050565b6000612495601c8361299e565b91506124a082612d73565b602082019050919050565b60006124b860248361299e565b91506124c382612d9c565b604082019050919050565b60006124db60198361299e565b91506124e682612deb565b602082019050919050565b60006124fe602c8361299e565b915061250982612e14565b604082019050919050565b600061252160388361299e565b915061252c82612e63565b604082019050919050565b6000612544602a8361299e565b915061254f82612eb2565b604082019050919050565b600061256760298361299e565b915061257282612f01565b604082019050919050565b600061258a60208361299e565b915061259582612f50565b602082019050919050565b60006125ad602c8361299e565b91506125b882612f79565b604082019050919050565b60006125d060298361299e565b91506125db82612fc8565b604082019050919050565b60006125f360218361299e565b91506125fe82613017565b604082019050919050565b600061261660318361299e565b915061262182613066565b604082019050919050565b6000612639602c8361299e565b9150612644826130b5565b604082019050919050565b61265881612adf565b82525050565b600061266a8285612411565b91506126768284612411565b91508190509392505050565b60006020820190506126976000830184612381565b92915050565b60006080820190506126b26000830187612381565b6126bf6020830186612381565b6126cc604083018561264f565b81810360608301526126de818461239f565b905095945050505050565b60006020820190506126fe6000830184612390565b92915050565b6000602082019050818103600083015261271e81846123d8565b905092915050565b6000602082019050818103600083015261273f81612442565b9050919050565b6000602082019050818103600083015261275f81612465565b9050919050565b6000602082019050818103600083015261277f81612488565b9050919050565b6000602082019050818103600083015261279f816124ab565b9050919050565b600060208201905081810360008301526127bf816124ce565b9050919050565b600060208201905081810360008301526127df816124f1565b9050919050565b600060208201905081810360008301526127ff81612514565b9050919050565b6000602082019050818103600083015261281f81612537565b9050919050565b6000602082019050818103600083015261283f8161255a565b9050919050565b6000602082019050818103600083015261285f8161257d565b9050919050565b6000602082019050818103600083015261287f816125a0565b9050919050565b6000602082019050818103600083015261289f816125c3565b9050919050565b600060208201905081810360008301526128bf816125e6565b9050919050565b600060208201905081810360008301526128df81612609565b9050919050565b600060208201905081810360008301526128ff8161262c565b9050919050565b600060208201905061291b600083018461264f565b92915050565b600061292b61293c565b90506129378282612b5d565b919050565b6000604051905090565b600067ffffffffffffffff82111561296157612960612c95565b5b61296a82612cc4565b9050602081019050919050565b600081519050919050565b600081519050919050565b600082825260208201905092915050565b600082825260208201905092915050565b600081905092915050565b60006129c582612adf565b91506129d083612adf565b9250827fffffffffffffffffffffffffffffffffffffffffffffffffffffffffffffffff03821115612a0557612a04612c08565b5b828201905092915050565b6000612a1b82612adf565b9150612a2683612adf565b925082612a3657612a35612c37565b5b828204905092915050565b6000612a4c82612adf565b9150612a5783612adf565b925082821015612a6a57612a69612c08565b5b828203905092915050565b6000612a8082612abf565b9050919050565b60008115159050919050565b60007fffffffff0000000000000000000000000000000000000000000000000000000082169050919050565b600073ffffffffffffffffffffffffffffffffffffffff82169050919050565b6000819050919050565b82818337600083830152505050565b60005b83811015612b16578082015181840152602081019050612afb565b83811115612b25576000848401525b50505050565b60006002820490506001821680612b4357607f821691505b60208210811415612b5757612b56612c66565b5b50919050565b612b6682612cc4565b810181811067ffffffffffffffff82111715612b8557612b84612c95565b5b80604052505050565b6000612b9982612adf565b91507fffffffffffffffffffffffffffffffffffffffffffffffffffffffffffffffff821415612bcc57612bcb612c08565b5b600182019050919050565b6000612be282612adf565b9150612bed83612adf565b925082612bfd57612bfc612c37565b5b828206905092915050565b7f4e487b7100000000000000000000000000000000000000000000000000000000600052601160045260246000fd5b7f4e487b7100000000000000000000000000000000000000000000000000000000600052601260045260246000fd5b7f4e487b7100000000000000000000000000000000000000000000000000000000600052602260045260246000fd5b7f4e487b7100000000000000000000000000000000000000000000000000000000600052604160045260246000fd5b6000601f19601f8301169050919050565b7f455243373231456e756d657261626c653a206f776e657220696e646578206f7560008201527f74206f6620626f756e6473000000000000000000000000000000000000000000602082015250565b7f4552433732313a207472616e7366657220746f206e6f6e20455243373231526560008201527f63656976657220696d706c656d656e7465720000000000000000000000000000602082015250565b7f4552433732313a20746f6b656e20616c7265616479206d696e74656400000000600082015250565b7f4552433732313a207472616e7366657220746f20746865207a65726f2061646460008201527f7265737300000000000000000000000000000000000000000000000000000000602082015250565b7f4552433732313a20617070726f766520746f2063616c6c657200000000000000600082015250565b7f4552433732313a206f70657261746f7220717565727920666f72206e6f6e657860008201527f697374656e7420746f6b656e0000000000000000000000000000000000000000602082015250565b7f4552433732313a20617070726f76652063616c6c6572206973206e6f74206f7760008201527f6e6572206e6f7220617070726f76656420666f7220616c6c0000000000000000602082015250565b7f4552433732313a2062616c616e636520717565727920666f7220746865207a6560008201527f726f206164647265737300000000000000000000000000000000000000000000602082015250565b7f4552433732313a206f776e657220717565727920666f72206e6f6e657869737460008201527f656e7420746f6b656e0000000000000000000000000000000000000000000000602082015250565b7f4552433732313a206d696e7420746f20746865207a65726f2061646472657373600082015250565b7f4552433732313a20617070726f76656420717565727920666f72206e6f6e657860008201527f697374656e7420746f6b656e0000000000000000000000000000000000000000602082015250565b7f4552433732313a207472616e73666572206f6620746f6b656e2074686174206960008201527f73206e6f74206f776e0000000000000000000000000000000000000000000000602082015250565b7f4552433732313a20617070726f76616c20746f2063757272656e74206f776e6560008201527f7200000000000000000000000000000000000000000000000000000000000000602082015250565b7f4552433732313a207472616e736665722063616c6c6572206973206e6f74206f60008201527f776e6572206e6f7220617070726f766564000000000000000000000000000000602082015250565b7f455243373231456e756d657261626c653a20676c6f62616c20696e646578206f60008201527f7574206f6620626f756e64730000000000000000000000000000000000000000602082015250565b61310d81612a75565b811461311857600080fd5b50565b61312481612a87565b811461312f57600080fd5b50565b61313b81612a93565b811461314657600080fd5b50565b61315281612adf565b811461315d57600080fd5b5056fea264697066735822122058ff050570ace1a8f4263bfb91f264a94872752c331d4a372340bee4cc142d3764736f6c63430008040033",
  "linkReferences": {},
  "deployedLinkReferences": {}
}