{
  "_format": "hh-sol-artifact-1",
  "contractName": "SemaphoreVoting",
  "sourceName": "contracts/extensions/SemaphoreVoting.sol",
  "abi": [
    {
      "anonymous": false,
      "inputs": [
        {
          "indexed": true,
          "internalType": "uint256",
          "name": "groupId",
          "type": "uint256"
        },
        {
          "indexed": false,
          "internalType": "uint8",
          "name": "depth",
          "type": "uint8"
        }
      ],
      "name": "GroupAdded",
      "type": "event"
    },
    {
      "anonymous": false,
      "inputs": [
        {
          "indexed": true,
          "internalType": "uint256",
          "name": "groupId",
          "type": "uint256"
        },
        {
          "indexed": false,
          "internalType": "uint256",
          "name": "identityCommitment",
          "type": "uint256"
        },
        {
          "indexed": false,
          "internalType": "uint256",
          "name": "root",
          "type": "uint256"
        }
      ],
      "name": "MemberAdded",
      "type": "event"
    },
    {
      "anonymous": false,
      "inputs": [
        {
          "indexed": true,
          "internalType": "uint256",
          "name": "groupId",
          "type": "uint256"
        },
        {
          "indexed": false,
          "internalType": "uint256",
          "name": "identityCommitment",
          "type": "uint256"
        },
        {
          "indexed": false,
          "internalType": "uint256",
          "name": "root",
          "type": "uint256"
        }
      ],
      "name": "MemberRemoved",
      "type": "event"
    },
    {
      "anonymous": false,
      "inputs": [
        {
          "indexed": false,
          "internalType": "uint256",
          "name": "nullifierHash",
          "type": "uint256"
        }
      ],
      "name": "NullifierHashAdded",
      "type": "event"
    },
    {
      "anonymous": false,
      "inputs": [
        {
          "indexed": false,
          "internalType": "uint256",
          "name": "pollId",
          "type": "uint256"
        },
        {
          "indexed": true,
          "internalType": "address",
          "name": "coordinator",
          "type": "address"
        }
      ],
      "name": "PollCreated",
      "type": "event"
    },
    {
      "anonymous": false,
      "inputs": [
        {
          "indexed": false,
          "internalType": "uint256",
          "name": "pollId",
          "type": "uint256"
        },
        {
          "indexed": true,
          "internalType": "address",
          "name": "coordinator",
          "type": "address"
        },
        {
          "indexed": false,
          "internalType": "uint256",
          "name": "decryptionKey",
          "type": "uint256"
        }
      ],
      "name": "PollEnded",
      "type": "event"
    },
    {
      "anonymous": false,
      "inputs": [
        {
          "indexed": false,
          "internalType": "uint256",
          "name": "pollId",
          "type": "uint256"
        },
        {
          "indexed": true,
          "internalType": "address",
          "name": "coordinator",
          "type": "address"
        },
        {
          "indexed": false,
          "internalType": "uint256",
          "name": "encryptionKey",
          "type": "uint256"
        }
      ],
      "name": "PollStarted",
      "type": "event"
    },
    {
      "anonymous": false,
      "inputs": [
        {
          "indexed": true,
          "internalType": "uint256",
          "name": "pollId",
          "type": "uint256"
        },
        {
          "indexed": false,
          "internalType": "string",
          "name": "vote",
          "type": "string"
        }
      ],
      "name": "VoteAdded",
      "type": "event"
    },
    {
      "inputs": [
        {
          "internalType": "uint256",
          "name": "pollId",
          "type": "uint256"
        },
        {
          "internalType": "uint256",
          "name": "identityCommitment",
          "type": "uint256"
        }
      ],
      "name": "addVoter",
      "outputs": [],
      "stateMutability": "nonpayable",
      "type": "function"
    },
    {
      "inputs": [
        {
          "internalType": "string",
          "name": "vote",
          "type": "string"
        },
        {
          "internalType": "uint256",
          "name": "nullifierHash",
          "type": "uint256"
        },
        {
          "internalType": "uint256",
          "name": "pollId",
          "type": "uint256"
        },
        {
          "internalType": "uint256[8]",
          "name": "proof",
          "type": "uint256[8]"
        }
      ],
      "name": "castVote",
      "outputs": [],
      "stateMutability": "nonpayable",
      "type": "function"
    },
    {
      "inputs": [
        {
          "internalType": "uint256",
          "name": "pollId",
          "type": "uint256"
        },
        {
          "internalType": "address",
          "name": "coordinator",
          "type": "address"
        }
      ],
      "name": "createPoll",
      "outputs": [],
      "stateMutability": "nonpayable",
      "type": "function"
    },
    {
      "inputs": [
        {
          "internalType": "uint256",
          "name": "pollId",
          "type": "uint256"
        },
        {
          "internalType": "uint256",
          "name": "decryptionKey",
          "type": "uint256"
        }
      ],
      "name": "endPoll",
      "outputs": [],
      "stateMutability": "nonpayable",
      "type": "function"
    },
    {
      "inputs": [
        {
          "internalType": "uint256",
          "name": "groupId",
          "type": "uint256"
        }
      ],
      "name": "getDepth",
      "outputs": [
        {
          "internalType": "uint256",
          "name": "",
          "type": "uint256"
        }
      ],
      "stateMutability": "view",
      "type": "function"
    },
    {
      "inputs": [
        {
          "internalType": "uint256",
          "name": "groupId",
          "type": "uint256"
        }
      ],
      "name": "getRoot",
      "outputs": [
        {
          "internalType": "uint256",
          "name": "",
          "type": "uint256"
        }
      ],
      "stateMutability": "view",
      "type": "function"
    },
    {
      "inputs": [
        {
          "internalType": "uint256",
          "name": "groupId",
          "type": "uint256"
        }
      ],
      "name": "getSize",
      "outputs": [
        {
          "internalType": "uint256",
          "name": "",
          "type": "uint256"
        }
      ],
      "stateMutability": "view",
      "type": "function"
    },
    {
      "inputs": [
        {
          "internalType": "uint256",
          "name": "pollId",
          "type": "uint256"
        },
        {
          "internalType": "uint256",
          "name": "encryptionKey",
          "type": "uint256"
        }
      ],
      "name": "startPoll",
      "outputs": [],
      "stateMutability": "nonpayable",
      "type": "function"
    },
    {
      "inputs": [
        {
          "internalType": "uint256[2]",
          "name": "a",
          "type": "uint256[2]"
        },
        {
          "internalType": "uint256[2][2]",
          "name": "b",
          "type": "uint256[2][2]"
        },
        {
          "internalType": "uint256[2]",
          "name": "c",
          "type": "uint256[2]"
        },
        {
          "internalType": "uint256[4]",
          "name": "input",
          "type": "uint256[4]"
        }
      ],
      "name": "verifyProof",
      "outputs": [
        {
          "internalType": "bool",
          "name": "r",
          "type": "bool"
        }
      ],
      "stateMutability": "view",
      "type": "function"
    }
  ],
  "bytecode": "0x608060405234801561001057600080fd5b5061406f806100206000396000f3fe608060405234801561001057600080fd5b50600436106100935760003560e01c806375e618c91161006657806375e618c9146101305780639b24b3b014610160578063a9a0dd4114610190578063b359dd43146101ac578063bbd8c7db146101c857610093565b8063023c23db146100985780630a120bb0146100c85780633141b414146100e45780635fe8c13b14610100575b600080fd5b6100b260048036038101906100ad9190613260565b6101e4565b6040516100bf9190613882565b60405180910390f35b6100e260048036038101906100dd91906132c5565b610204565b005b6100fe60048036038101906100f99190613289565b610395565b005b61011a6004803603810190610115919061317a565b6104e7565b6040516101279190613603565b60405180910390f35b61014a60048036038101906101459190613260565b61099b565b6040516101579190613882565b60405180910390f35b61017a60048036038101906101759190613260565b6109cb565b6040516101879190613882565b60405180910390f35b6101aa60048036038101906101a591906131df565b6109eb565b005b6101c660048036038101906101c191906132c5565b610cfc565b005b6101e260048036038101906101dd91906132c5565b610f3f565b005b600060016000838152602001908152602001600020600201549050919050565b8161020d611182565b73ffffffffffffffffffffffffffffffffffffffff166003600083815260200190815260200160002060000160009054906101000a900473ffffffffffffffffffffffffffffffffffffffff1673ffffffffffffffffffffffffffffffffffffffff16146102b0576040517f08c379a00000000000000000000000000000000000000000000000000000000081526004016102a790613782565b60405180910390fd5b600060028111156102ea577f4e487b7100000000000000000000000000000000000000000000000000000000600052602160045260246000fd5b6003600085815260200190815260200160002060000160149054906101000a900460ff166002811115610346577f4e487b7100000000000000000000000000000000000000000000000000000000600052602160045260246000fd5b14610386576040517f08c379a000000000000000000000000000000000000000000000000000000000815260040161037d90613702565b60405180910390fd5b610390838361118a565b505050565b6103a08260146112b7565b6103a8612da0565b81816000019073ffffffffffffffffffffffffffffffffffffffff16908173ffffffffffffffffffffffffffffffffffffffff1681525050806003600085815260200190815260200160002060008201518160000160006101000a81548173ffffffffffffffffffffffffffffffffffffffff021916908373ffffffffffffffffffffffffffffffffffffffff16021790555060208201518160000160146101000a81548160ff0219169083600281111561048c577f4e487b7100000000000000000000000000000000000000000000000000000000600052602160045260246000fd5b02179055509050508173ffffffffffffffffffffffffffffffffffffffff167fb447d309fd3b1a27466cdb08ccc02ee5188e9c71fc58af042bafe3e0bb451230846040516104da9190613882565b60405180910390a2505050565b60006104f1612e08565b604051806040016040528087600060028110610536577f4e487b7100000000000000000000000000000000000000000000000000000000600052603260045260246000fd5b602002015181526020018760016002811061057a577f4e487b7100000000000000000000000000000000000000000000000000000000600052603260045260246000fd5b6020020151815250816000018190525060405180604001604052806040518060400160405280886000600281106105da577f4e487b7100000000000000000000000000000000000000000000000000000000600052603260045260246000fd5b6020020151600060028110610618577f4e487b7100000000000000000000000000000000000000000000000000000000600052603260045260246000fd5b602002015181526020018860006002811061065c577f4e487b7100000000000000000000000000000000000000000000000000000000600052603260045260246000fd5b602002015160016002811061069a577f4e487b7100000000000000000000000000000000000000000000000000000000600052603260045260246000fd5b602002015181525081526020016040518060400160405280886001600281106106ec577f4e487b7100000000000000000000000000000000000000000000000000000000600052603260045260246000fd5b602002015160006002811061072a577f4e487b7100000000000000000000000000000000000000000000000000000000600052603260045260246000fd5b602002015181526020018860016002811061076e577f4e487b7100000000000000000000000000000000000000000000000000000000600052603260045260246000fd5b60200201516001600281106107ac577f4e487b7100000000000000000000000000000000000000000000000000000000600052603260045260246000fd5b60200201518152508152508160200181905250604051806040016040528085600060028110610804577f4e487b7100000000000000000000000000000000000000000000000000000000600052603260045260246000fd5b6020020151815260200185600160028110610848577f4e487b7100000000000000000000000000000000000000000000000000000000600052603260045260246000fd5b602002015181525081604001819052506000600467ffffffffffffffff81111561089b577f4e487b7100000000000000000000000000000000000000000000000000000000600052604160045260246000fd5b6040519080825280602002602001820160405280156108c95781602001602082028036833780820191505090505b50905060005b600481101561096e57848160048110610911577f4e487b7100000000000000000000000000000000000000000000000000000000600052603260045260246000fd5b602002015182828151811061094f577f4e487b7100000000000000000000000000000000000000000000000000000000600052603260045260246000fd5b602002602001018181525050808061096690613b0d565b9150506108cf565b50600061097b828461140f565b141561098c57600192505050610993565b6000925050505b949350505050565b60006001600083815260200190815260200160002060000160009054906101000a900460ff1660ff169050919050565b600060016000838152602001908152602001600020600101549050919050565b816109f4611182565b73ffffffffffffffffffffffffffffffffffffffff166003600083815260200190815260200160002060000160009054906101000a900473ffffffffffffffffffffffffffffffffffffffff1673ffffffffffffffffffffffffffffffffffffffff1614610a97576040517f08c379a0000000000000000000000000000000000000000000000000000000008152600401610a8e90613782565b60405180910390fd5b6000600360008581526020019081526020016000206040518060400160405290816000820160009054906101000a900473ffffffffffffffffffffffffffffffffffffffff1673ffffffffffffffffffffffffffffffffffffffff1673ffffffffffffffffffffffffffffffffffffffff1681526020016000820160149054906101000a900460ff166002811115610b58577f4e487b7100000000000000000000000000000000000000000000000000000000600052602160045260246000fd5b6002811115610b90577f4e487b7100000000000000000000000000000000000000000000000000000000600052602160045260246000fd5b81525050905060016002811115610bd0577f4e487b7100000000000000000000000000000000000000000000000000000000600052602160045260246000fd5b81602001516002811115610c0d577f4e487b7100000000000000000000000000000000000000000000000000000000600052602160045260246000fd5b14610c4d576040517f08c379a0000000000000000000000000000000000000000000000000000000008152600401610c4490613762565b60405180910390fd5b610c718787600160008881526020019081526020016000206001015488888861169a565b610cb0576040517f08c379a0000000000000000000000000000000000000000000000000000000008152600401610ca790613662565b60405180910390fd5b610cb98561199d565b837f0ac6ee434e2e22214897d8dcdfce63aaae60241483ea57f3b72b404221b2ceac8888604051610ceb92919061361e565b60405180910390a250505050505050565b81610d05611182565b73ffffffffffffffffffffffffffffffffffffffff166003600083815260200190815260200160002060000160009054906101000a900473ffffffffffffffffffffffffffffffffffffffff1673ffffffffffffffffffffffffffffffffffffffff1614610da8576040517f08c379a0000000000000000000000000000000000000000000000000000000008152600401610d9f90613782565b60405180910390fd5b60006002811115610de2577f4e487b7100000000000000000000000000000000000000000000000000000000600052602160045260246000fd5b6003600085815260200190815260200160002060000160149054906101000a900460ff166002811115610e3e577f4e487b7100000000000000000000000000000000000000000000000000000000600052602160045260246000fd5b14610e7e576040517f08c379a0000000000000000000000000000000000000000000000000000000008152600401610e75906137c2565b60405180910390fd5b60016003600085815260200190815260200160002060000160146101000a81548160ff02191690836002811115610ede577f4e487b7100000000000000000000000000000000000000000000000000000000600052602160045260246000fd5b0217905550610eeb611182565b73ffffffffffffffffffffffffffffffffffffffff167f426c5e6bd38728569cc4e1f0a309f506d4c1bc56189920d59343af2639b60d3e8484604051610f3292919061389d565b60405180910390a2505050565b81610f48611182565b73ffffffffffffffffffffffffffffffffffffffff166003600083815260200190815260200160002060000160009054906101000a900473ffffffffffffffffffffffffffffffffffffffff1673ffffffffffffffffffffffffffffffffffffffff1614610feb576040517f08c379a0000000000000000000000000000000000000000000000000000000008152600401610fe290613782565b60405180910390fd5b60016002811115611025577f4e487b7100000000000000000000000000000000000000000000000000000000600052602160045260246000fd5b6003600085815260200190815260200160002060000160149054906101000a900460ff166002811115611081577f4e487b7100000000000000000000000000000000000000000000000000000000600052602160045260246000fd5b146110c1576040517f08c379a00000000000000000000000000000000000000000000000000000000081526004016110b8906136a2565b60405180910390fd5b60026003600085815260200190815260200160002060000160146101000a81548160ff02191690836002811115611121577f4e487b7100000000000000000000000000000000000000000000000000000000600052602160045260246000fd5b021790555061112e611182565b73ffffffffffffffffffffffffffffffffffffffff167f4a0c303670c99ff9b9eab216bcca4f03007fbece83818599a2946ea62c541fde848460405161117592919061389d565b60405180910390a2505050565b600033905090565b60006111958361099b565b14156111d6576040517f08c379a00000000000000000000000000000000000000000000000000000000081526004016111cd90613722565b60405180910390fd5b6001600083815260200190815260200160002073__$4c0484323457fe1a856f46a4759b553fe4$__63168703fa9091836040518363ffffffff1660e01b8152600401611223929190613822565b60006040518083038186803b15801561123b57600080fd5b505af415801561124f573d6000803e3d6000fd5b50505050600061125e836109cb565b9050826002600083815260200190815260200160002081905550827f03fd27265b7dd1f55558bedc22a58fa3b10afb1be776e614bd5a7ba7b949940683836040516112aa92919061389d565b60405180910390a2505050565b60006112c28361099b565b14611302576040517f08c379a00000000000000000000000000000000000000000000000000000000081526004016112f990613682565b60405180910390fd5b6001600083815260200190815260200160002073__$4c0484323457fe1a856f46a4759b553fe4$__63b4bdd1179091837f30644e72e131a029b85045b68181585d2833e84879b9709143e1f593f0000001604051602001611362906135ee565b6040516020818303038152906040528051906020012060001c6113859190613b56565b6040518463ffffffff1660e01b81526004016113a39392919061384b565b60006040518083038186803b1580156113bb57600080fd5b505af41580156113cf573d6000803e3d6000fd5b50505050817f6e41c6ac154b547a2112d36281cc5de1cdfa7d7f260d4edf74f3ef59f9df0c598260405161140391906138c6565b60405180910390a25050565b6000807f30644e72e131a029b85045b68181585d2833e84879b9709143e1f593f00000019050600061143f6119cb565b9050806080015151600186516114559190613994565b14611495576040517f08c379a000000000000000000000000000000000000000000000000000000000815260040161148c906136c2565b60405180910390fd5b60006040518060400160405280600081526020016000815250905060005b86518110156115f657838782815181106114f6577f4e487b7100000000000000000000000000000000000000000000000000000000600052603260045260246000fd5b60200260200101511061153e576040517f08c379a000000000000000000000000000000000000000000000000000000000815260040161153590613742565b60405180910390fd5b6115e1826115dc85608001516001856115579190613994565b8151811061158e577f4e487b7100000000000000000000000000000000000000000000000000000000600052603260045260246000fd5b60200260200101518a85815181106115cf577f4e487b7100000000000000000000000000000000000000000000000000000000600052603260045260246000fd5b602002602001015161201b565b61216a565b915080806115ee90613b0d565b9150506114b3565b50611646818360800151600081518110611639577f4e487b7100000000000000000000000000000000000000000000000000000000600052603260045260246000fd5b602002602001015161216a565b905061167c6116588660000151612305565b8660200151846000015185602001518587604001518b6040015189606001516123aa565b61168c5760019350505050611694565b600093505050505b92915050565b600080600085815260200190815260200160002060009054906101000a900460ff16156116fc576040517f08c379a00000000000000000000000000000000000000000000000000000000081526004016116f390613642565b60405180910390fd5b600061170888886126f3565b90506000604051806080016040528088815260200187815260200183815260200186815250905061198f604051806040016040528086600060088110611777577f4e487b7100000000000000000000000000000000000000000000000000000000600052603260045260246000fd5b60200201358152602001866001600881106117bb577f4e487b7100000000000000000000000000000000000000000000000000000000600052603260045260246000fd5b60200201358152506040518060400160405280604051806040016040528089600260088110611813577f4e487b7100000000000000000000000000000000000000000000000000000000600052603260045260246000fd5b6020020135815260200189600360088110611857577f4e487b7100000000000000000000000000000000000000000000000000000000600052603260045260246000fd5b602002013581525081526020016040518060400160405280896004600881106118a9577f4e487b7100000000000000000000000000000000000000000000000000000000600052603260045260246000fd5b60200201358152602001896005600881106118ed577f4e487b7100000000000000000000000000000000000000000000000000000000600052603260045260246000fd5b602002013581525081525060405180604001604052808860066008811061193d577f4e487b7100000000000000000000000000000000000000000000000000000000600052603260045260246000fd5b6020020135815260200188600760088110611981577f4e487b7100000000000000000000000000000000000000000000000000000000600052603260045260246000fd5b6020020135815250846104e7565b925050509695505050505050565b600160008083815260200190815260200160002060006101000a81548160ff02191690831515021790555050565b6119d3612e3b565b60405180604001604052807f2d4d9aa7e302d9df41749d5507949d05dbea33fbb16c643b22f599a2be6df2e281526020017f14bedd503c37ceb061d8ec60209fe345ce89830a19230301f076caff004d19268152508160000181905250604051806040016040528060405180604001604052807f0967032fcbf776d1afc985f88877f182d38480a653f2decaa9794cbc3bf3060c81526020017f0e187847ad4c798374d0d6732bf501847dd68bc0e071241e0213bc7fc13db7ab815250815260200160405180604001604052807f304cfbd1e08a704a99f5e847d93f8c3caafddec46b7a0d379da69a4d112346a781526020017f1739c1b1a457a8c7313123d24d2f9192f896b7c63eea05a9d57f06547ad0cec88152508152508160200181905250604051806040016040528060405180604001604052807f198e9393920d483a7260bfb731fb5d25f1aa493335a9e71297e485b7aef312c281526020017f1800deef121f1e76426a00665e5c4479674322d4f75edadd46debd5cd992f6ed815250815260200160405180604001604052807f090689d0585ff075ec9e99ad690c3395bc4b313370b38ef355acdadcd122975b81526020017f12c85ea5db8c6deb4aab71808dcb408fe3d1e7690c43d37b4ce6cc0166fa7daa8152508152508160400181905250604051806040016040528060405180604001604052807f1bdb443ce61ebcf93daed4215a57e1cec90ca64973023e31197a112e8cee72f681526020017f117e26c4235f42625b3404f2973059814ff260dba7176d7aae910f493a8e1fb5815250815260200160405180604001604052807f196e247a12f580e36894f256f0c122393489b4c213b3e913250feee806ca45ff81526020017f2fedff4e4bbcbf9f1c56e28a060d50eef5f54e2aab897f6b465acd2ed005ae918152508152508160600181905250600567ffffffffffffffff811115611cc0577f4e487b7100000000000000000000000000000000000000000000000000000000600052604160045260246000fd5b604051908082528060200260200182016040528015611cf957816020015b611ce6612e82565b815260200190600190039081611cde5790505b50816080018190525060405180604001604052807f2c097b31a897227a6f64c9fc31d9a8fc421b0d8b8207f92532b464e431e61db881526020017f0fcf6d89d77d5123a43dfb23efb9c929c28c148ca82c794057864b8e66903c548152508160800151600081518110611d95577f4e487b7100000000000000000000000000000000000000000000000000000000600052603260045260246000fd5b602002602001018190525060405180604001604052807f0186dae5999acfe2cda6fa7a157ae726afda7c6f57b00ea0aa6c2c23bf83838881526020017f2f078608f710c45b60d23716c58e106d8c7a1c6db28119defffc413e074f87168152508160800151600181518110611e33577f4e487b7100000000000000000000000000000000000000000000000000000000600052603260045260246000fd5b602002602001018190525060405180604001604052807f2464c1784bda2cbfb51e5ab87cf7eb2764ad81f7038152bdbbb07d404b49aa3781526020017f0638b273e4ee33e03e42ca6c7de1ea7043dbdcaa48661864de644d91c6b4821f8152508160800151600281518110611ed1577f4e487b7100000000000000000000000000000000000000000000000000000000600052603260045260246000fd5b602002602001018190525060405180604001604052807f098ce8b5289ef791db34b68b9e0043ab7bf25306d83a9f0ce74396b8a69c57bb81526020017f1ec6f7a81748f3d2c2b87610d747ca72045ac1530e226f00710630d41aad7e268152508160800151600381518110611f6f577f4e487b7100000000000000000000000000000000000000000000000000000000600052603260045260246000fd5b602002602001018190525060405180604001604052807f07dbf682cc528d3ff763fa576d05db50e023921728119ef66f880b6adae01cbe81526020017f0d287dcd9318207576eaa871e7b3308f613d9df7865059cdbc9f66fdef342dc6815250816080015160048151811061200d577f4e487b7100000000000000000000000000000000000000000000000000000000600052603260045260246000fd5b602002602001018190525090565b612023612e82565b61202b612e9c565b83600001518160006003811061206a577f4e487b7100000000000000000000000000000000000000000000000000000000600052603260045260246000fd5b6020020181815250508360200151816001600381106120b2577f4e487b7100000000000000000000000000000000000000000000000000000000600052603260045260246000fd5b60200201818152505082816002600381106120f6577f4e487b7100000000000000000000000000000000000000000000000000000000600052603260045260246000fd5b602002018181525050600060608360808460076107d05a03fa9050806000811461211f57612121565bfe5b5080612162576040517f08c379a0000000000000000000000000000000000000000000000000000000008152600401612159906136e2565b60405180910390fd5b505092915050565b612172612e82565b61217a612ebe565b8360000151816000600481106121b9577f4e487b7100000000000000000000000000000000000000000000000000000000600052603260045260246000fd5b602002018181525050836020015181600160048110612201577f4e487b7100000000000000000000000000000000000000000000000000000000600052603260045260246000fd5b602002018181525050826000015181600260048110612249577f4e487b7100000000000000000000000000000000000000000000000000000000600052603260045260246000fd5b602002018181525050826020015181600360048110612291577f4e487b7100000000000000000000000000000000000000000000000000000000600052603260045260246000fd5b602002018181525050600060608360c08460066107d05a03fa905080600081146122ba576122bc565bfe5b50806122fd576040517f08c379a00000000000000000000000000000000000000000000000000000000081526004016122f4906137e2565b60405180910390fd5b505092915050565b61230d612e82565b60007f30644e72e131a029b85045b68181585d97816a916871ca8d3c208c16d87cfd4790506000836000015114801561234a575060008360200151145b1561236e5760405180604001604052806000815260200160008152509150506123a5565b6040518060400160405280846000015181526020018285602001516123939190613b56565b8361239e9190613a44565b8152509150505b919050565b600080600467ffffffffffffffff8111156123ee577f4e487b7100000000000000000000000000000000000000000000000000000000600052604160045260246000fd5b60405190808252806020026020018201604052801561242757816020015b612414612e82565b81526020019060019003908161240c5790505b5090506000600467ffffffffffffffff81111561246d577f4e487b7100000000000000000000000000000000000000000000000000000000600052604160045260246000fd5b6040519080825280602002602001820160405280156124a657816020015b612493612ee0565b81526020019060019003908161248b5790505b5090508a826000815181106124e4577f4e487b7100000000000000000000000000000000000000000000000000000000600052603260045260246000fd5b6020026020010181905250888260018151811061252a577f4e487b7100000000000000000000000000000000000000000000000000000000600052603260045260246000fd5b60200260200101819052508682600281518110612570577f4e487b7100000000000000000000000000000000000000000000000000000000600052603260045260246000fd5b602002602001018190525084826003815181106125b6577f4e487b7100000000000000000000000000000000000000000000000000000000600052603260045260246000fd5b602002602001018190525089816000815181106125fc577f4e487b7100000000000000000000000000000000000000000000000000000000600052603260045260246000fd5b60200260200101819052508781600181518110612642577f4e487b7100000000000000000000000000000000000000000000000000000000600052603260045260246000fd5b60200260200101819052508581600281518110612688577f4e487b7100000000000000000000000000000000000000000000000000000000600052603260045260246000fd5b602002602001018190525083816003815181106126ce577f4e487b7100000000000000000000000000000000000000000000000000000000600052603260045260246000fd5b60200260200101819052506126e3828261272d565b9250505098975050505050505050565b60006008838360405160200161270a9291906135d5565b6040516020818303038152906040528051906020012060001c901c905092915050565b60008151835114612773576040517f08c379a000000000000000000000000000000000000000000000000000000000815260040161276a906137a2565b60405180910390fd5b600083519050600060068261278891906139ea565b905060008167ffffffffffffffff8111156127cc577f4e487b7100000000000000000000000000000000000000000000000000000000600052604160045260246000fd5b6040519080825280602002602001820160405280156127fa5781602001602082028036833780820191505090505b50905060005b83811015612cdf57868181518110612841577f4e487b7100000000000000000000000000000000000000000000000000000000600052603260045260246000fd5b60200260200101516000015182600060068461285d91906139ea565b6128679190613994565b8151811061289e577f4e487b7100000000000000000000000000000000000000000000000000000000600052603260045260246000fd5b6020026020010181815250508681815181106128e3577f4e487b7100000000000000000000000000000000000000000000000000000000600052603260045260246000fd5b6020026020010151602001518260016006846128ff91906139ea565b6129099190613994565b81518110612940577f4e487b7100000000000000000000000000000000000000000000000000000000600052603260045260246000fd5b602002602001018181525050858181518110612985577f4e487b7100000000000000000000000000000000000000000000000000000000600052603260045260246000fd5b6020026020010151600001516000600281106129ca577f4e487b7100000000000000000000000000000000000000000000000000000000600052603260045260246000fd5b60200201518260026006846129df91906139ea565b6129e99190613994565b81518110612a20577f4e487b7100000000000000000000000000000000000000000000000000000000600052603260045260246000fd5b602002602001018181525050858181518110612a65577f4e487b7100000000000000000000000000000000000000000000000000000000600052603260045260246000fd5b602002602001015160000151600160028110612aaa577f4e487b7100000000000000000000000000000000000000000000000000000000600052603260045260246000fd5b6020020151826003600684612abf91906139ea565b612ac99190613994565b81518110612b00577f4e487b7100000000000000000000000000000000000000000000000000000000600052603260045260246000fd5b602002602001018181525050858181518110612b45577f4e487b7100000000000000000000000000000000000000000000000000000000600052603260045260246000fd5b602002602001015160200151600060028110612b8a577f4e487b7100000000000000000000000000000000000000000000000000000000600052603260045260246000fd5b6020020151826004600684612b9f91906139ea565b612ba99190613994565b81518110612be0577f4e487b7100000000000000000000000000000000000000000000000000000000600052603260045260246000fd5b602002602001018181525050858181518110612c25577f4e487b7100000000000000000000000000000000000000000000000000000000600052603260045260246000fd5b602002602001015160200151600160028110612c6a577f4e487b7100000000000000000000000000000000000000000000000000000000600052603260045260246000fd5b6020020151826005600684612c7f91906139ea565b612c899190613994565b81518110612cc0577f4e487b7100000000000000000000000000000000000000000000000000000000600052603260045260246000fd5b6020026020010181815250508080612cd790613b0d565b915050612800565b50612ce8612f06565b6000602082602086026020860160086107d05a03fa90508060008114612d0d57612d0f565bfe5b5080612d50576040517f08c379a0000000000000000000000000000000000000000000000000000000008152600401612d4790613802565b60405180910390fd5b600082600060018110612d8c577f4e487b7100000000000000000000000000000000000000000000000000000000600052603260045260246000fd5b602002015114159550505050505092915050565b6040518060400160405280600073ffffffffffffffffffffffffffffffffffffffff16815260200160006002811115612e02577f4e487b7100000000000000000000000000000000000000000000000000000000600052602160045260246000fd5b81525090565b6040518060600160405280612e1b612e82565b8152602001612e28612ee0565b8152602001612e35612e82565b81525090565b6040518060a00160405280612e4e612e82565b8152602001612e5b612ee0565b8152602001612e68612ee0565b8152602001612e75612ee0565b8152602001606081525090565b604051806040016040528060008152602001600081525090565b6040518060600160405280600390602082028036833780820191505090505090565b6040518060800160405280600490602082028036833780820191505090505090565b6040518060400160405280612ef3612f28565b8152602001612f00612f28565b81525090565b6040518060200160405280600190602082028036833780820191505090505090565b6040518060400160405280600290602082028036833780820191505090505090565b6000612f5d612f5884613906565b6138e1565b90508082856040860282011115612f7357600080fd5b60005b85811015612fa35781612f8988826130af565b845260208401935060408301925050600181019050612f76565b5050509392505050565b6000612fc0612fbb8461392c565b6138e1565b90508082856020860282011115612fd657600080fd5b60005b858110156130065781612fec8882613165565b845260208401935060208301925050600181019050612fd9565b5050509392505050565b600061302361301e84613952565b6138e1565b9050808285602086028201111561303957600080fd5b60005b85811015613069578161304f8882613165565b84526020840193506020830192505060018101905061303c565b5050509392505050565b6000813590506130828161400b565b92915050565b600082601f83011261309957600080fd5b60026130a6848285612f4a565b91505092915050565b600082601f8301126130c057600080fd5b60026130cd848285612fad565b91505092915050565b600082601f8301126130e757600080fd5b60046130f4848285613010565b91505092915050565b60008190508260206008028201111561311557600080fd5b92915050565b60008083601f84011261312d57600080fd5b8235905067ffffffffffffffff81111561314657600080fd5b60208301915083600182028301111561315e57600080fd5b9250929050565b60008135905061317481614022565b92915050565b600080600080610180858703121561319157600080fd5b600061319f878288016130af565b94505060406131b087828801613088565b93505060c06131c1878288016130af565b9250506101006131d3878288016130d6565b91505092959194509250565b600080600080600061016086880312156131f857600080fd5b600086013567ffffffffffffffff81111561321257600080fd5b61321e8882890161311b565b9550955050602061323188828901613165565b935050604061324288828901613165565b9250506060613253888289016130fd565b9150509295509295909350565b60006020828403121561327257600080fd5b600061328084828501613165565b91505092915050565b6000806040838503121561329c57600080fd5b60006132aa85828601613165565b92505060206132bb85828601613073565b9150509250929050565b600080604083850312156132d857600080fd5b60006132e685828601613165565b92505060206132f785828601613165565b9150509250929050565b61330a81613a8a565b82525050565b600061331c8385613978565b9350613329838584613acd565b61333283613c14565b840190509392505050565b60006133498385613989565b9350613356838584613acd565b82840190509392505050565b600061336f603683613978565b915061337a82613c25565b604082019050919050565b6000613392602783613978565b915061339d82613c74565b604082019050919050565b60006133b5602583613978565b91506133c082613cc3565b604082019050919050565b60006133d8602483613978565b91506133e382613d12565b604082019050919050565b60006133fb601283613978565b915061340682613d61565b602082019050919050565b600061341e601283613978565b915061342982613d8a565b602082019050919050565b6000613441603783613978565b915061344c82613db3565b604082019050919050565b6000613464600983613989565b915061346f82613e02565b600982019050919050565b6000613487602583613978565b915061349282613e2b565b604082019050919050565b60006134aa601f83613978565b91506134b582613e7a565b602082019050919050565b60006134cd603983613978565b91506134d882613ea3565b604082019050919050565b60006134f0603383613978565b91506134fb82613ef2565b604082019050919050565b6000613513601683613978565b915061351e82613f41565b602082019050919050565b6000613536602e83613978565b915061354182613f6a565b604082019050919050565b6000613559601283613978565b915061356482613fb9565b602082019050919050565b600061357c601583613978565b915061358782613fe2565b602082019050919050565b8082525050565b6135a281613ab6565b82525050565b6135b181613ab6565b82525050565b6135c081613ac0565b82525050565b6135cf81613ac0565b82525050565b60006135e282848661333d565b91508190509392505050565b60006135f982613457565b9150819050919050565b60006020820190506136186000830184613301565b92915050565b60006020820190508181036000830152613639818486613310565b90509392505050565b6000602082019050818103600083015261365b81613362565b9050919050565b6000602082019050818103600083015261367b81613385565b9050919050565b6000602082019050818103600083015261369b816133a8565b9050919050565b600060208201905081810360008301526136bb816133cb565b9050919050565b600060208201905081810360008301526136db816133ee565b9050919050565b600060208201905081810360008301526136fb81613411565b9050919050565b6000602082019050818103600083015261371b81613434565b9050919050565b6000602082019050818103600083015261373b8161347a565b9050919050565b6000602082019050818103600083015261375b8161349d565b9050919050565b6000602082019050818103600083015261377b816134c0565b9050919050565b6000602082019050818103600083015261379b816134e3565b9050919050565b600060208201905081810360008301526137bb81613506565b9050919050565b600060208201905081810360008301526137db81613529565b9050919050565b600060208201905081810360008301526137fb8161354c565b9050919050565b6000602082019050818103600083015261381b8161356f565b9050919050565b60006040820190506138376000830185613592565b61384460208301846135a8565b9392505050565b60006060820190506138606000830186613592565b61386d60208301856135c6565b61387a60408301846135a8565b949350505050565b60006020820190506138976000830184613599565b92915050565b60006040820190506138b26000830185613599565b6138bf6020830184613599565b9392505050565b60006020820190506138db60008301846135b7565b92915050565b60006138eb6138fc565b90506138f78282613adc565b919050565b6000604051905090565b600067ffffffffffffffff82111561392157613920613be5565b5b602082029050919050565b600067ffffffffffffffff82111561394757613946613be5565b5b602082029050919050565b600067ffffffffffffffff82111561396d5761396c613be5565b5b602082029050919050565b600082825260208201905092915050565b600081905092915050565b600061399f82613ab6565b91506139aa83613ab6565b9250827fffffffffffffffffffffffffffffffffffffffffffffffffffffffffffffffff038211156139df576139de613b87565b5b828201905092915050565b60006139f582613ab6565b9150613a0083613ab6565b9250817fffffffffffffffffffffffffffffffffffffffffffffffffffffffffffffffff0483118215151615613a3957613a38613b87565b5b828202905092915050565b6000613a4f82613ab6565b9150613a5a83613ab6565b925082821015613a6d57613a6c613b87565b5b828203905092915050565b6000613a8382613a96565b9050919050565b60008115159050919050565b600073ffffffffffffffffffffffffffffffffffffffff82169050919050565b6000819050919050565b600060ff82169050919050565b82818337600083830152505050565b613ae582613c14565b810181811067ffffffffffffffff82111715613b0457613b03613be5565b5b80604052505050565b6000613b1882613ab6565b91507fffffffffffffffffffffffffffffffffffffffffffffffffffffffffffffffff821415613b4b57613b4a613b87565b5b600182019050919050565b6000613b6182613ab6565b9150613b6c83613ab6565b925082613b7c57613b7b613bb6565b5b828206905092915050565b7f4e487b7100000000000000000000000000000000000000000000000000000000600052601160045260246000fd5b7f4e487b7100000000000000000000000000000000000000000000000000000000600052601260045260246000fd5b7f4e487b7100000000000000000000000000000000000000000000000000000000600052604160045260246000fd5b6000601f19601f8301169050919050565b7f53656d6170686f7265436f72653a20796f752063616e6e6f742075736520746860008201527f652073616d65206e756c6c696669657220747769636500000000000000000000602082015250565b7f53656d6170686f7265566f74696e673a207468652070726f6f66206973206e6f60008201527f742076616c696400000000000000000000000000000000000000000000000000602082015250565b7f53656d6170686f726547726f7570733a2067726f757020616c7265616479206560008201527f7869737473000000000000000000000000000000000000000000000000000000602082015250565b7f53656d6170686f7265566f74696e673a20706f6c6c206973206e6f74206f6e6760008201527f6f696e6700000000000000000000000000000000000000000000000000000000602082015250565b7f76657269666965722d6261642d696e7075740000000000000000000000000000600082015250565b7f70616972696e672d6d756c2d6661696c65640000000000000000000000000000600082015250565b7f53656d6170686f7265566f74696e673a20766f746572732063616e206f6e6c7960008201527f206265206164646564206265666f726520766f74696e67000000000000000000602082015250565b7f53656d6170686f72650000000000000000000000000000000000000000000000600082015250565b7f53656d6170686f726547726f7570733a2067726f757020646f6573206e6f742060008201527f6578697374000000000000000000000000000000000000000000000000000000602082015250565b7f76657269666965722d6774652d736e61726b2d7363616c61722d6669656c6400600082015250565b7f53656d6170686f7265566f74696e673a20766f74652063616e206f6e6c79206260008201527f65206361737420696e20616e206f6e676f696e6720706f6c6c00000000000000602082015250565b7f53656d6170686f7265566f74696e673a2063616c6c6572206973206e6f74207460008201527f686520706f6c6c20636f6f7264696e61746f7200000000000000000000000000602082015250565b7f70616972696e672d6c656e677468732d6661696c656400000000000000000000600082015250565b7f53656d6170686f7265566f74696e673a20706f6c6c2068617320616c7265616460008201527f79206265656e2073746172746564000000000000000000000000000000000000602082015250565b7f70616972696e672d6164642d6661696c65640000000000000000000000000000600082015250565b7f70616972696e672d6f70636f64652d6661696c65640000000000000000000000600082015250565b61401481613a78565b811461401f57600080fd5b50565b61402b81613ab6565b811461403657600080fd5b5056fea264697066735822122095fb2a01bf78609036edf46530ebca8965a6c0b431ec2027001f1fa018a33bdc64736f6c63430008040033",
  "linkReferences": {
    "@zk-kit/incremental-merkle-tree.sol/contracts/IncrementalBinaryTree.sol": {
      "IncrementalBinaryTree": [
        {
          "length": 20,
          "start": 4619
        },
        {
          "length": 20,
          "start": 4919
        }
      ]
    }
  },
  "deployedLinkReferences": {
    "@zk-kit/incremental-merkle-tree.sol/contracts/IncrementalBinaryTree.sol": {
      "IncrementalBinaryTree": [
        {
          "length": 20,
          "start": 4587
        },
        {
          "length": 20,
          "start": 4887
        }
      ]
    }
  }
}