{
  "_format": "hh-sol-artifact-1",
  "contractName": "PoseidonT6",
  "sourceName": "@zk-kit/incremental-merkle-tree.sol/contracts/Hashes.sol",
  "abi": [
    {
      "inputs": [
        {
          "internalType": "uint256[5]",
          "name": "",
          "type": "uint256[5]"
        }
      ],
      "name": "poseidon",
      "outputs": [
        {
          "internalType": "uint256",
          "name": "",
          "type": "uint256"
        }
      ],
      "stateMutability": "pure",
      "type": "function"
    }
  ],
  "bytecode": "0x610276610053600b82828239805160001a607314610046577f4e487b7100000000000000000000000000000000000000000000000000000000600052600060045260246000fd5b30600052607381538281f3fe73000000000000000000000000000000000000000030146080604052600436106100355760003560e01c80634937a2581461003a575b600080fd5b610054600480360381019061004f9190610110565b61006a565b6040516100619190610148565b60405180910390f35b6000919050565b600061008461007f84610188565b610163565b9050808285602086028201111561009a57600080fd5b60005b858110156100ca57816100b088826100fb565b84526020840193506020830192505060018101905061009d565b5050509392505050565b600082601f8301126100e557600080fd5b60056100f2848285610071565b91505092915050565b60008135905061010a81610229565b92915050565b600060a0828403121561012257600080fd5b6000610130848285016100d4565b91505092915050565b610142816101ae565b82525050565b600060208201905061015d6000830184610139565b92915050565b600061016d61017e565b905061017982826101b8565b919050565b6000604051905090565b600067ffffffffffffffff8211156101a3576101a26101e9565b5b602082029050919050565b6000819050919050565b6101c182610218565b810181811067ffffffffffffffff821117156101e0576101df6101e9565b5b80604052505050565b7f4e487b7100000000000000000000000000000000000000000000000000000000600052604160045260246000fd5b6000601f19601f8301169050919050565b610232816101ae565b811461023d57600080fd5b5056fea2646970667358221220a2488f3dd9b2de5780d337f40e8e7c989a840f20f0c0bc24ffe210bd56ed2f3964736f6c63430008040033",
  "linkReferences": {},
  "deployedLinkReferences": {}
}